:107000006BC00000AAC000008EC000008CC0000051
:107010008AC0000088C0000086C0000084C0000054
:1070200082C0000080C000007EC000007CC0000064
:107030007AC0000078C0000076C0000074C0000074
:1070400072C0000070C000006EC000006CC0000084
:107050006AC0000068C0000066C0000064C0000094
:1070600062C0000060C00000EC2DFD2DB7B6B0FC82
:10707000FDCF27BFE895B7B6B0FCFDCF21E1B7B68D
:10708000B6FCF4CF08950902120001010080320914
:10709000040000000000000012011001FF000008C1
:1070A000C016DC050201010200010E035500530069
:1070B00042006100730070001C03770077007700C6
:1070C0002E00660069007300630068006C002E00EB
:1070D000640065000403090411241FBECFEFD8E04B
:1070E000DEBFCDBF24B7D8E0CEEF39913833399128
:1070F00009F03FEF30933C0120933B0111E0A0E009
:10710000B1E0E4E7F8E702C005900D92A630B107C0
:10711000D9F721E0A6E0B1E001C01D92AB33B20780
:10712000E1F77CD1A5C36CCFA82FB92F80E090E008
:1071300041E050EA609530E009C02D918227979593
:10714000879510F084279527305EC8F36F5FA8F30A
:107150000895EADF8D939D930895CF93CFB7CF9392
:10716000DF93C3954B9BE9F74B9B0BC04B9B09C02F
:107170004B9B07C04B9B05C04B9B03C04B9B01C067
:1071800089C06F93C0911E01DD27CB5DDE4F2F9329
:1071900065E54B9B03C02F916F91E6CF0F931F9333
:1071A0004F9320E040E15F9309B10C7003FB27F996
:1071B0003F9350E03BE039C01C7040642F77012FB3
:1071C0005F5F1EC0406819B11C702F7752501FC0FE
:1071D000406409B12F770C70D1F15F5F00C023C00C
:1071E000406219B12F771C7091F15F5F00C025C01C
:1071F0000C701027515012F45D5F0000115027955C
:107200002C3F19B1C8F61C700127015027952C3F5F
:10721000C8F64227499309B10C7010274F731150DB
:1072200027952C3FA8F64695469519B11C7079F024
:107230000127015027952C3F98F66B5A60F3315087
:1072400009B1B0F600C011E01CBB002717C03B50CD
:107250003195C31BD04011E01CBB0881033CF9F001
:107260000B34E9F020911C011981110F1213EDCF9D
:10727000093651F10D3211F0013E39F70093230127
:107280003F915F914F911F910F912F916F91CCB3CF
:10729000C0FD67CFDF91CF91CFBFCF9118952091DF
:1072A0002301222369F310912101112339F5343090
:1072B0003AF13093210120931D0110911E013BE012
:1072C000311B30931E011CC0009121010130B4F428
:1072D0000AE53091010134FD14C000930101C1E1C0
:1072E000D1E013C0052710E000C000000BB91AC0A0
:1072F000052710E0221F1DC010E021C04AE502C092
:1073000032ED432FC4E1D0E032E01AB11C605B9A49
:107310000BB11AB95CE020E865E320FF05270BB943
:10732000279517951C3FF0F66695B8F7B1F720FF43
:1073300005270BB9279517951C3FD0F6279517956C
:1073400017FF052700001C3F0BB9B0F629913A95AD
:1073500019F7037F10912201110FC651D0400BB9CC
:1073600011F010931C0111E01CBB08601AB1137FCF
:10737000402F437F54E05A95F1F70BB91AB94BB936
:107380007FCFFC01438134818381948198278927B1
:1073900098272281203339F43370E32FF0E0EE5F39
:1073A000FE4F80810895283561F489E0E1E0F0E046
:1073B000442371F089E0E3E0F0E0483049F080E0F8
:1073C0000895203579F4411107C089E0F0E0E0E04C
:1073D000809357008491089589E0E2E0F0E048301E
:1073E00071F7F6CF203229F4880F991FFC018491A0
:1073F0000895283229F4FC01EE0FFF1F3196F7CFD4
:10740000203A09F41FC2203C19F4658123D2D7CF5A
:107410002F3FA9F681EF80930F01D1CF1AB880E2F8
:107420008BB981E085BF82E085BFE0E0F1E7A895F8
:1074300031978040E1F780913B01877F21F4809173
:107440003C01882371F04D9B0CC0F894539A1BB8F3
:107450001DBA1092690081E085BF15BEF0E0E0E042
:1074600009958EEF80930F0114BE0FB6F894A8957E
:1074700080916000886180936000109260000FBE70
:1074800080916900826080936900E89A539A8CE049
:10749000E0E0F5E3A89531978040E1F753987894C0
:1074A00010912101135017FD5AC080911E01CCE0AC
:1074B000D0E0C81BD109CB5DDE4F80911D018D321C
:1074C00009F00BC1183009F048C083EC809311011A
:1074D0008AE580930101109210013881832F807614
:1074E0009981882309F49BC046E051E05093200124
:1074F00040931F01933069F4CE0143DF809309016B
:1075000084E09F81911127C09E81981720F5892FD3
:1075100022C0953009F4DFC09A3009F4DCC08CEF4A
:10752000890F863008F070C04A815B8150930E014C
:1075300040930D01993009F46EC08E8180930C0147
:107540002D81227020930B0190930A0137FF8FEF5A
:1075500090E8909310018093000110922101809196
:10756000010184FF36C0809100018F3F91F1182FF7
:10757000893008F018E0982F911B909300019091AA
:10758000110128E89227909311018823A9F03091E6
:10759000100137FF2EC180910C01811708F4182FBC
:1075A000811B80930C01D0900A0100E082E1E82E5B
:1075B00081E0F82E101305C1612F82E191E0C9DD51
:1075C00084E0810F183019F09FEF909300018093B1
:1075D000010184E199B19C7031F48150D9F7109286
:1075E000220110921C0180910F01803108F41FC10B
:1075F0004D9B05C080910F01805180930F018091B8
:107600000F0181114DCF21CF80910F01923029F4CC
:107610008E7F80930F0180E074CF8160FACF2A8142
:1076200010921A0191110AC010921B012AE131E057
:1076300082E03093200120931F0163CF953029F41D
:10764000209322012AE131E0F4CF963099F59B8115
:10765000913059F488E990E79093200180931F01BD
:1076600082E190E4909310014CCF923019F486E8B7
:1076700090E7F2CF9330A9F7211108C084ED90E78D
:107680009093200180931F0184E0EBCF213041F4DF
:1076900088EB90E79093200180931F018CE1E1CF6C
:1076A0002230F9F68AEA90E79093200180931F0137
:1076B0008EE0D7CF983059F0993019F420932401F7
:1076C000C1CF81E09A3009F4BDCF80E0BBCF24E286
:1076D00031E081E0AECF81E014CF8091100187FFCF
:1076E0003CCF00910C01011708F4102F011B0093EF
:1076F0000C01F12CF11628F001112FCF109200018E
:107700002CCF80910D0190910E0120910A0127301C
:1077100058F069919C012F5F3F4F30930E012093E9
:107720000D0198D0F394E6CF8115904738F7F39484
:10773000F394F894E0910D01F0910E0129913991A3
:1077400081E0090180935700E89511247894809195
:107750000D0190910E01029690930E0180930D0100
:107760008F779927892B51F00111C4CFF11608F4B6
:10777000C1CF80910B01882309F4BCCFF894E0912C
:107780000D01F0910E01329783E080935700E89548
:10779000789407B600FCFDCFF894E0910D01F091CC
:1077A0000E01329785E080935700E895789407B6EC
:1077B00000FCFDCFF89481E180935700E895789420
:1077C00099CFC0910D01D0910E0126E02D1570F4D6
:1077D000CE0138D0F7018083FFEFEF1AFF0A219620
:1077E000D0930E01C0930D010F5FE4CEFE01849192
:1077F000F1CF80911F0190912001212F280FFC01D2
:1078000082E191E036FF0CC03491DC013C9301969B
:1078100031962E13F9CFF0932001E0931F01CCCEC7
:10782000DC0131913C9301962E13FACFF4CF4D99A0
:10783000E6CE80910F01823008F4E1CE80910F01F5
:107840008250DBCEF999FECF92BD81BDF89A99277F
:1078500080B50895262FF999FECF1FBA92BD81BD3C
:1078600020BD0FB6F894FA9AF99A0FBE01960895C2
:04787000F894FFCFBA
:06787400FF5A1E950F00F3
:040000030000700089
:100000000C9435020C9452020C946D020C94520222
:100010000C9452020C9452020C94C61B0C94520283
:100020000C9452020C9452020C9452020C94520200
:100030000C9452020C9452020C945E1C0C945202CA
:100040000C9452020C9452020C9452020C945202E0
:100050000C9452020C9452020C9452020C945202D0
:100060000C9452020C94520235001E001F00200016
:1000700021002A0027002600250024002B00140060
:100080001A00080022004C00130012000C0023008C
:1000900029000400160015001700340033000F007B
:1000A00018001C00E1001D00070009000A002800DC
:1000B00038000E000D000B00E0001B0006001900C8
:1000C00005004F0037003600100011002252E200F8
:1000D000E30021522C0052005100500022522C000B
:1000E00035021E021F02200221022A0027022602D8
:1000F0002502240235021E021F02200222024C00A9
:1001000027022602250223024C003A003B0021026E
:100110002202310230022F02240223020100400099
:100120003C003D003E0001004D002E022D023F002C
:1001300001004100420043004400AE004A00640256
:100140003202450001000100010001000100A90088
:10015000AA00AB000100010035001E001F002000B6
:1001600021002A00270026002500240035001E005B
:100170001F00200022004C0027002600250023003D
:100180004C003A003B0021002200310030002F00DB
:1001900024002300010040003C003D003E0001001F
:1001A0004E002E002D003F000100410042004300A0
:1001B0004400AE004B006400320045000100010025
:1001C000010001000100A900AA00AB00010001002C
:1001D0000100010001000100010001000100010017
:1001E0000100010001000100010001000100010007
:1001F00001000100010001000100010001000100F7
:1002000001000100010001000100010001000100E6
:1002100001000100010001000100010001000100D6
:1002200001000100010001000100010001000100C6
:1002300001000100010001000100010001000100B6
:1002400001000100010001000000000000000000AA
:100250002A2B280000000000000000000000000021
:1002600000000029000000002C1E3420212224342C
:100270002627252E362D3738271E1F2021222324FE
:1002800025263333362E37381F0405060708090A9A
:100290000B0C0D0E0F101112131415161718191A36
:1002A0001B1C1D2F3130232D350405060708090AB4
:1002B0000B0C0D0E0F101112131415161718191A16
:1002C0001B1C1D2F3130354C0000000000000000C9
:1002D000000000000000000000000000000000001E
:1002E0000000000000000000000000007E0F00D4AD
:1002F000FFFFFFC70000007809025B00030100A0B8
:10030000320904000001030101000921010100017B
:1003100022400007058103080001090401000203CF
:1003200000000009210101000122220007058403C9
:100330000800010705040308000109040200010385
:10034000000000092101010001227B000705830351
:1003500008000112011001000000086A700200018B
:10036000000102000116034C0075006D006200657B
:100370000072006A00610063006B0000000A035015
:1003800000650065006A000000040309040660FFC0
:100390000961A1010962150026FF009520750881F9
:1003A000020963150026FF00952075089102C0051B
:1003B000010902A10185020901A10005091901290C
:1003C000081500250195087501810205010930090C
:1003D000311581257F95027508810609381581251B
:1003E0007F950175088106050C0A38021581257F65
:1003F000950175088106C0C005010980A10185032A
:1004000019012AB700150126B70095017510810062
:10041000C0050C0901A101850419012AA0021501DA
:1004200026A002950175108100C005010906A101F1
:10043000050719E029E715002501950875018102D6
:100440009501750881030507190029FF150026FF8E
:10045000009506750881000508190129059505759F
:10046000019102950175039103C011241FBECFEFC6
:10047000D8E0DEBFCDBF11E0A0E0B1E0ECE2F2E4F5
:1004800002C005900D92A838B107D9F723E0A8E87B
:10049000B1E001C01D92A134B207E1F70E944A12F7
:1004A0000C94CC200C940000A82FB92F80E090E091
:1004B00041E050EA609530E009C02D918227979580
:1004C000879510F084279527305EC8F36F5FA8F3F7
:1004D0000895EADF8D939D930895CF93CFB7CF937F
:1004E000DF93C3954B9BE9F74B9B10C04B9B0EC012
:1004F0004B9B0CC04B9B0AC04B9B08C04B9B06C040
:10050000C0911803C395C09318038EC06F93C09118
:100510001703DD27C15EDC4F2F9365E54B9B03C0BE
:100520002F916F91E1CF0F931F934F9320E040E104
:100530005F9309B10C7003FB27F93F9350E03BE058
:1005400039C01C7040642F77012F5F5F1EC0406868
:1005500019B11C702F7752501FC0406409B12F771A
:100560000C70D1F15F5F00C023C0406219B12F77DA
:100570001C7091F15F5F00C025C00C7010275150B6
:1005800012F45D5F0000115027952C3F19B1C8F699
:100590001C700127015027952C3FC8F6422749932C
:1005A00009B10C7010274F73115027952C3FA8F6F6
:1005B0004695469519B11C7079F001270150279591
:1005C0002C3F98F66B5A60F3315009B1B0F600C079
:1005D00012E01CBB00271CC03B503195C31BD04010
:1005E00012E01CBB0881033C21F10B3411F1209176
:1005F00014031981110F1213EDCF4A81441F0936DC
:1006000079F10D3211F0013E29F74F7009F0042FF6
:1006100000931D033F915F914F911F910F912F9177
:100620006F91CCB3C1FD5DCFDF91CF91CFBFCF91A3
:10063000189520911D03222369F310911B031123A8
:1006400009F049C034300AF448C030931B032093AA
:100650001603109117033BE0311B309317033DC085
:1006600000911B030130BCF50AE54F7049F430914D
:10067000130134FD33C000931301C1EFD2E032C047
:10068000433059F0443091F03091FC0234FD26C0E3
:100690000093FC02CDEFD2E025C03091350334FD4C
:1006A0001DC000933503C6E3D3E01CC0309108039E
:1006B00034FD14C000930803C9E0D3E013C005273C
:1006C00010E000C000000BB91AC0052710E0221F7F
:1006D0001DC010E021C04AE502C032ED432FC4E145
:1006E000D0E032E01AB11C605B9A0BB11AB95CE041
:1006F00020E865E320FF05270BB9279517951C3FD8
:10070000F0F66695B8F7B1F720FF05270BB92795E6
:1007100017951C3FD0F62795179517FF0527000062
:100720001C3F0BB9B0F629913A9519F7037F109148
:100730001C03110FC651D0400BB911F010931403D4
:1007400012E01CBB08601AB1137F402F437F54E0B6
:100750005A95F1F70BB91AB94BB95CCFFB0122815D
:10076000222329F0459ABF010E94E103089545988C
:10077000FACF882321F0449A0E94CA080895449829
:10078000FBCF84E008958430B8F46630A8F44A3092
:1007900098F4E42FF0E09AE0699FE00DF11D112438
:1007A0009CE3899FE00DF11D1124EE0FFF1FE85916
:1007B000FF4F85919491089580E090E0089581E045
:1007C000089581E0089508950E94E3030895A5E047
:1007D000B0E0EDEEF3E00C94382049835A83309179
:1007E0008F0189819A81311119C0662399F02223E2
:1007F00089F00E949009182F682F89819A810E94A0
:100800006C0969817A81812F0E94CC0F2596E3E0E3
:100810000C9454200E947E09182FF3CF0E94900957
:1008200069817A81F1CFFC01262F4081518162815B
:10083000738184810E94E703089581E00895CF9336
:10084000DF93D82FC92F60E00E9413046D2F7C2FF7
:100850000E94E403DF91CF910895E1E0F0E0DF0131
:1008600002C0AA0FBB1F6A95E2F7BD01DF0102C0FB
:10087000AA0FBB1F4A95E2F76A2B01C0EE0F2A951B
:10088000EAF7962F9823961302C08E2B0895E095D1
:100890008E230895242F462F682F8091A8010E944F
:1008A0002D040E94CD0808950E94FA1008950E9418
:1008B000FE10089508950E9461080E945A042FEFC7
:1008C00084E39CE0215080409040E1F700C00000AC
:1008D00008950E945B040E94821C08950E945B049C
:1008E0000E94971C08950F931F93CF93DF938C0161
:1008F00061E00E941304EC01B8010E944A158111C5
:1009000006C080E0DF91CF911F910F910895B8014B
:10091000CE010E94AE038823A1F3B801CE010E944C
:10092000821A882371F3B801CE010E94A51688238C
:1009300041F3B801CE010E94F419882311F3F801A4
:100940008281882381F0CA35FCE7DF0711F178F452
:10095000C130ECE7DE07D1F0C330FCE7DF07A1F0E0
:10096000C115DC4771F0C8010E94DF03CBCFCB3546
:10097000ECE7DE0789F0CC35DC47A9F70E945F0D74
:10098000F2CF0E946904BDCF0E94710D0E946E04D7
:10099000B8CF0E94690DE7CF0E946D0DE4CF0E9491
:1009A000A81B0E94F90408950E94FD040E94AD1B3B
:1009B000089508950E94D904089581E00895089546
:1009C000CF93DF93D82F0E94DD04C82F882319F01E
:1009D0008D2F0E94DF048C2FDF91CF910895089511
:1009E000CF93C82F0E94DA048C2F0E94E004CF918D
:1009F000089580E00E94F00408950E94CF1A0E949A
:100A0000F0040895CF930E94CF1AC82F80918A01D5
:100A10008C1779F0C0938A010E94321C60938B017D
:100A200070938C0180938D0190938E018C2F0E9486
:100A3000F004CF910895ABE0B0E0E1E2F5E00C9472
:100A400039204F83588769877A878B8761110E9485
:100A5000C00C1E8285E0FE013796DE0111960190E2
:100A60000D928A95E1F78C819D81892B61F44981F2
:100A70005A816B817C818D819E810E94E10B2B9636
:100A8000E2E00C94552089819A8189238F3F79F384
:100A9000CE0101960E941D048111E9CFF0CFFC0127
:100AA000808191810E94B9090895662329F00E94EE
:100AB000CE120E94A11308950E942813FACFCF935B
:100AC000C82F8823B9F08CEF8C0F813AA8F46C2FD3
:100AD00080910001909101010E94541B882329F00C
:100AE0008C2F0E947E0C0E94E10C8C2F0E94760CB1
:100AF0000E94E10CCF91089580E28C0F883048F479
:100B0000C77081E001C0880FCA95EAF70E94A10C66
:100B1000EFCF8BE58C0F833038F42C2F2452330B1E
:100B2000C9010E94F61AE6CFE8E5EC0FE93150F46E
:100B3000F0E0EE0FFF1FEC5EFE4F808191810E947E
:100B40001C1BD8CF83E38C0F8331A0F661E08C2F80
:100B50000E945505CFCF882381F19CEF980F913AE1
:100B600028F40E947E0C0E94E10C089590E2980FF8
:100B7000983050F4877091E001C0990F8A95EAF798
:100B8000892F0E94A70CEFCF9BE5980F933028F494
:100B900090E080E00E94F61A089598E5980F993148
:100BA00028F490E080E00E941C1B089593E3980FC6
:100BB000933118F460E00E94550508951F93CF9378
:100BC000DF93182FEB010E945F05209739F4812FE6
:100BD0000E94AB05DF91CF911F9108958FE99FE0AF
:100BE0000197F1F700C000002197EFCF70E060E0BF
:100BF000893311F460E570E00E94DE0508958823D2
:100C000021F00E94A10C0E94E10C0895882321F09C
:100C10000E94A70C0E94E10C0895B0E0A0E0E3E17F
:100C2000F6E00C9431206C01D62FC72FFC01128105
:100C3000F580F2948FE0F8220E94970CE82E88232A
:100C4000B9F0E12E1123A1F08C2F807F803421F0A8
:100C500080E28D0F8830C8F08091D40282FF15C0E9
:100C600082E00E942E0D0E94970C91E0E82EE9266A
:100C70008C2F82958F70A82EB12C8C3008F067C015
:100C8000F501E253FF4D0C941C20E12CF1CF0C2F09
:100C90000F70C07F11F00295007F112399F000239F
:100CA00059F080E28D0F883010F0D11107C0802FED
:100CB0000E94A10C0E94E10C8D2F41C0802F0E9448
:100CC000B20CF8CF8D2F0E94AB05002309F43FC072
:100CD00080E28D0F883010F0D11104C0802F0E9467
:100CE000A70C03C0802F0E94B80C0E94E10C2FC0FB
:100CF0000C2F0F70C07FC03211F00295007FDD23F2
:100D000081F0D13009F46BC0112309F475C0FF20C4
:100D100009F46BC0F601858180FFCECF8F7085838B
:100D200064C08091D40282FD35C0112359F00023A4
:100D300029F0802F0E94A10C0E94E10C80E00E940B
:100D40005F0505C080E00E94AB050111C7CFE8E058
:100D5000AE1AB108F4E0AF16B10420F40E94CF1A25
:100D60000E94F004EE2089F00E94930C80FD0DC0DB
:100D7000F60112820E948D0C0E94DF08C6010E94BB
:100D800021080E948D0C0E94EB08CDB7DEB7EAE087
:100D90000C944D20112389F0F11006C00E94C30C61
:100DA000802B0E94FF05D3CFF1E0FF12F7CF0E9406
:100DB000C30C802B0E94CA0CCACFF11006C00E943F
:100DC000D70C802F0E940606C2CF21E0F21609F44C
:100DD000BECF802F0E9406060E94D70CB8CF1123E9
:100DE00031F085E08F1508F4B2CF802FDACF94E090
:100DF0009F1508F4ACCFE5CFFF2019F3D93349F4A0
:100E0000FFEF27EE83E0F15020408040E1F700C083
:100E100000008D2F0E94AB059ACF8C2F869586956A
:100E2000837069F0813009F092CF8D2F9C2F9370E1
:100E3000111102C080E090E00E941C1B88CF8D2F12
:100E40009C2F9370111102C080E090E00E94F61A6E
:100E50007ECF612F8D2F0E94550579CF8C2F837007
:100E600081F5111174CF4D2F429546954770440F6F
:100E7000440F8D2F8F70042E01C0880F0A94EAF75B
:100E80002D2F2071D4FF07C02FE030E001C0220FCA
:100E90004A95EAF72095C695C695C370822BC23055
:100EA00051F0C33059F0C13019F00E94BE084FCF45
:100EB0000E94B8084CCF0E94C40849CF0E94B508D0
:100EC00046CF8695112311F08C2F8170882309F469
:100ED0003ECF4D2F429546954770440F440F8D2FBE
:100EE0008F70042E01C0880F0A94EAF72D2F20710D
:100EF000D4FF07C02FE030E001C0220F4A95EAF787
:100F00002095C695C695C370822BC23051F0C33070
:100F100059F0C13019F00E940A0919CF0E94040942
:100F200016CF0E94100913CF0E94CD0810CFCF70AA
:100F3000112329F08C2F0E94DF088D2F32CF8D2FA7
:100F40000E9406068C2F0E94EB0801CFD23F51F180
:100F500060F4D03FB9F0D13F81F0112309F449C0CA
:100F6000F110AACE8C2F8F7121C0D33F11F1D43F45
:100F7000A1F78091D40282FD26C08C2F8F7111239E
:100F800011F314C0112349F094E09F1508F4DFCE4B
:100F90008C2F8F710E94F808DACEE5E0EF1508F487
:100FA000D6CEF6CF8C2F8F711111CDCF0E94DF08D6
:100FB000CECE112329F08C2F8F710E94D608C7CE78
:100FC0000E94D208C4CE112349F0CF718C2F0E9409
:100FD000DF0863E08C2F0E94100DB9CE81E00E94E3
:100FE0002E0DF1E0FF1508F0B2CE82E00E942E0D2A
:100FF000AECEFF2059F0D93309F00BCF2FEF87EE9B
:1010000093E0215080409040E1F701CF8C2F8F7109
:101010009ACF0F931F93CF93DF93EC01688179816F
:101020008A810E94C6098C010E9416090E94B40898
:10103000B801CE010E940D06DF91CF911F910F9153
:101040000895CF93DF93EC018B819C81892B29F04C
:101050008881998189238F3F51F4DF91CF91089541
:10106000CE010E940908CE010E941F04F6CFCE01D6
:101070000E9473048111F4CF0E94970C882369F3B6
:101080008A81882351F38091D40282FFE6CF82E0E7
:101090000E942E0DE2CF90E080E00E94F61A90E0D0
:1010A00080E00E941C1B0E94C00C0E94E10C0E9468
:1010B000BC130E94A11308950E94860C0E944B0845
:1010C00008950E94AF0C0E945C080895282F929505
:1010D0009F70963091F060F4925F9F70923030F480
:1010E00081E0203F81F030F4283E30F080E0089528
:1010F0009A5FF3CF243FD1F7089581E0283EE0F3D3
:10110000213FA1F7F9CF0895FC0183819481892BB8
:1011100029F08081918189238F3F11F480E0089527
:10112000808191810E94B9090E9466080895A5E016
:10113000B0E0EDE9F8E00C9439202596E2E00C945B
:101140005520A6E0B0E0E7EAF8E00C9439202696B6
:10115000E2E00C94552008950E94AB0808950E9487
:10116000AC088093A901089508950E94AF080895DE
:101170009091A901892B0E94AF0808959091A9012F
:1011800089230E94AF0808959091A90189270E94A0
:10119000AF0808950E94AB0808950E94B903809398
:1011A000A801089580E00E94CD08089591E001C053
:1011B000990F8A95EAF7892F0E94CD08089521E0BA
:1011C00030E001C0220F8A95EAF78091A801822BB6
:1011D0000E94CD08089521E030E001C0220F8A95D9
:1011E000EAF720958091A80182230E94CD080895F6
:1011F00021E030E001C0220F8A95EAF78091A80132
:1012000082270E94CD0808959091A801892B0E9401
:10121000CD0808959091A80189230E94CD080895D2
:101220009091A80189270E94CD08089508959B01F7
:10123000677091E001C0990F6A95EAF763E036950F
:1012400027956A95E1F7F901EE0FFF1FE20FF31FF3
:10125000E40FF51F50E040E0682F70E08191DF015E
:1012600011979B01042E02C0369527950A94E2F748
:10127000217021952827292328272C934F5F5F4F22
:101280004330510559F708959C01982F977083E0DA
:10129000369527958A95E1F7F901EE0FFF1FE20FCA
:1012A000F31FE60FF71F50E040E080E0219130E0AF
:1012B000092E02C0369527950A94E2F7217033274C
:1012C000042E01C0220F0A94EAF7822B4F5F5F4F72
:1012D0004330510559F70895282F862F963068F42A
:1012E0002A3058F4622F70E02AE0929F600D711D41
:1012F000112440E951E00E9417090895292F9630E2
:1013000068F48A3058F490E060E971E03AE0239F95
:10131000800D911D11240E944409089580E00895D4
:10132000B0E0A0E0E6E9F9E00C9434207C01009103
:10133000A8018091A901082BC7E0D0E010E0DC2EC5
:10134000C8010C2E02C0959587950A94E2F780FD9E
:1013500009C02197A0F7D12C8D2DCDB7DEB7E7E0DE
:101360000C945020B7018C2F0E94D80F019789F35D
:10137000F3CFCF93DF93D82FC92F0E9490096D2F01
:101380007C2F0E94D80FDF91CF9108951F93CF93A8
:10139000DF93162FD72F90918F01992341F0862F3D
:1013A000972F0E94B909DF91CF911F91089588234B
:1013B00081F0862F972F0E949009C82F682F812FC8
:1013C0009D2F0E946C09612F7D2F8C2F0E94D80FBA
:1013D000EACF862F972F0E947E09C82FF4CF1F9344
:1013E000CF93DF93E091AA0116E08091AB018E13B9
:1013F00004C0DF91CF911F910895CE2FD0E01E9FA2
:10140000F0011124E455FE4F4081518162817381C6
:10141000848195810E94A108FE013196E770E5CF95
:101420004091DC015091DD016091DE017091DF019E
:101430008091E0019091E1010E94A10808951F931D
:10144000CF93DF938091E101807F09F049C08091C3
:10145000DE01882309F444C08091AA01C091AB0148
:101460006091DC017091DD01A091DF01B091E0019C
:10147000D62FD72316E0C81799F190E0109711F0F6
:10148000DF3F19F401968770F6CF189F9001199FDE
:10149000300D1124F901E455FE4F41814713F2CF7D
:1014A00040814613EFCF42814111ECCF43815481FB
:1014B0004A1B5B0B483C510528F78091E1018F7076
:1014C00080618093E101F901EF54FE4F80818F70BC
:1014D000806180838CED91E00E9421080E94EF09D9
:1014E000DF91CF911F910895ABE0B0E0EAE7FAE019
:1014F0000C9431208C0185E0F801DE0117960190F3
:101500000D928A95E1F7F801E2808CEDC82E81E01A
:10151000D82E6091DF017091E0016115710509F429
:1015200034C19091DC012091DD01822F89238F3F0E
:1015300009F42BC140815181A380B480F090DE0179
:10154000F501E61BF70BFF2009F4D1C08091E10102
:10155000382F307FE83CF10508F0A3C031116DC091
:10156000FE2C521316C0941314C0E11012C08F70D9
:1015700080618093E1010E94100AC6010E94210847
:101580008091E101F80185838F2D2B96EAE00C9480
:101590004D20A114B10429F0852F84238F3F09F039
:1015A0000DC180E0F82FF170DF2EE091AA012091AB
:1015B000AB0136E080FD1CC0EE2031F38091E101EB
:1015C00081608093E101F12CDFCF8E2F90E03E9F70
:1015D000F0011124E455FE4F6181561306C060816D
:1015E000641303C06281E612E7CFFC013196E77015
:1015F000E213EBCF4F8358878F8198850E94B909FA
:10160000292F22952F70903260F0225F2F702230A8
:1016100078F49F7051F0F8019581907F31F4D12CCE
:101620000AC09F7011F08823D1F3805E8830B8F330
:10163000C8010E942108FD2CA7CF521306C09413A5
:1016400004C0F801EE2009F46DC0C8010E948408AE
:10165000882319F1EE2009F18091E101803270F0C8
:101660002091DC013091DD013A8329831B82BD8208
:10167000AC828E83CE0101960E94210886E0F8019B
:10168000ACEDB1E001900D928A95E1F70E941F0A3E
:101690000E94100AFF24F39477CFC8010E9421080A
:1016A000F9CF311113C07A2DBB86AA866E2D8B859A
:1016B0000E9497088CED91E00E94210886E0F601D7
:1016C00011928A95E9F70E94100A7DCF5213BDCF7F
:1016D0009413BBCFE110B9CFF8018583C8010E94F4
:1016E000210886E0F60111928A95E9F74DCFE83C92
:1016F000F10508F03DC0FE2CEE2079F252132AC00D
:10170000941328C08091E10180FD1BC0982F907F29
:10171000C1F0F8018583903F31F0982F907F905F62
:101720008F70892B8583C8010E94210886E0F8010B
:10173000ACEDB1E001900D928A95E1F70E94100A9C
:1017400023CF86E0F801ACEDB1E001900D928A95CF
:10175000E1F71ACFC8010E94840881118FCF8091D0
:10176000E10181608093E101C8010E9421080CCF52
:101770007A2DBB86AA866E2D8B850E94970886E0FF
:10178000F60111928A95E9F7D9CFEE2009F485CFB9
:10179000C8010E948408F82E882309F47ECF86E0D1
:1017A000F801ACEDB1E001900D928A95E1F78CED76
:1017B00091E00E944F050E941F0AC0CF81E08E2554
:1017C000F1CEACE0B0E0E7EEFBE00C9438204F83C4
:1017D000588769877A878B879C87CE0107960E94F6
:1017E000740A882369F08A859B85892B39F04F819B
:1017F0005885842F85238F3F09F071C016E065C09E
:1018000086E0FE013796DE01119601900D928A95D1
:10181000E1F76A857B856115710581F35F814885F4
:10182000842F85238F3F51F32091AB0130E0C90114
:10183000019687709927E091AA01E817190671F4BB
:101840000E9461081092AB011092AA0186E0ECEDB3
:10185000F1E0DF011D928A95E9F7D0CF59834A83E1
:101860007D836C8396E0929FD001939FB00D1124ED
:10187000A455BE4FFE01319601900D929A95E1F765
:101880008093AB010E94EF09B9CF819FC001112461
:1018900084559E4F0E94740A8823E9F0E091AA01C2
:1018A0001E9FF0011124E455FE4F40815181628159
:1018B0007381848195810E94A1088091AA0190E0A2
:1018C0000196877099278093AA018091AA0190912F
:1018D000AB018913DACF2C96E3E00C945420698590
:1018E0007A858B859C850E94A10888CF682F80917E
:1018F0000001909101010E948E1B0895682F809134
:101900000001909101010E94911B089580910001B6
:10191000909101010E94941B08958091E2018595A8
:101920008595859508958091E2018770089590913D
:10193000E201977081E009F480E008958091ED0163
:1019400008959091ED01982B9093ED010895982FB3
:1019500090958091ED0189238093ED010895109277
:10196000ED0108959091EC01982B9093EC0108956E
:10197000982F90958091EC0189238093EC01089534
:101980001092EC0108958091E301089508950E945A
:10199000C60C08959091D40292FF08C09091E30183
:1019A000981721F08093E3010E94C70C089580915D
:1019B000E301882329F01092E30180E00E94C70C24
:1019C0000895E0910001F09101018091ED01808383
:1019D000E0910001F091010180819091EC01892B4F
:1019E00080839091E301992381F0E0910001F091CF
:1019F00001018081892B80838091000190910101F8
:101A00000E94421B81110E94D70C8091000190918D
:101A100001010E94DC1A089508950E940C0D08959A
:101A20009091D40292FF11C098E0899F90011124F7
:101A3000622B6093E2010E94DF088091E2018595AC
:101A4000859585950E940D0D08950E94DF080895E3
:101A50001092E20180E00E940D0D08959091E20144
:101A6000809589238093E201282F277091F4282FF5
:101A7000082E000C330B9217130659F09091D402E4
:101A800092FF07C08595859585950E94EB080E9479
:101A9000280D08959091D40292FB222720F928174F
:101AA00069F080FB92F99093D4028091D3029091D7
:101AB000D4020E94930D82E00E942E0D0895809121
:101AC000D40282FB882780F991E089270E944A0D81
:101AD000089581E00E944A0D089580E00E944A0D19
:101AE00008956FEF7FEF90E080E00E94B6200895A8
:101AF00090E080E00E949220873E9E4F19F40E9461
:101B0000D914089580E0089582E090E00E948A2030
:101B1000089583E090E00E948A20089584E090E098
:101B20000E9492200895BC0184E090E00E94B620BB
:101B30000895AB01BC018FE090E00E94AA200895B7
:101B4000AB01BC0183E190E00E94AA20089560E00F
:101B500070E0CB010E94A00D089560E070E0CB0121
:101B60000E94990D0E94A70D089567EE7EEF90E008
:101B700080E00E94B62060E082E090E00E94982021
:101B800060E083E090E00E9498201092A90160E05C
:101B900074E184E090E00E94B62060E086E090E08E
:101BA0000E9498206FEF87E090E00E94982040E02C
:101BB00050E0BA0188E090E00E94AA2060E08DE049
:101BC00090E00E94982040E050E0BA0188E190E067
:101BD0000E94AA2060E087E190E00E94982040E007
:101BE00050E0BA018CE190E00E94AA2070E060E031
:101BF00080E290E00E94B62040E050E0BA0188E127
:101C000090E00E94AA2080E00E94F2140E942C150D
:101C10000E94AD0D08950E94B50D0895682F8EE0C5
:101C200090E00E94982008950E94321C6093000268
:101C30007093010280930202909303026093FC016F
:101C40007093FD018093FE019093FF010895089524
:101C500008950E94280E089508950E942C0E08955C
:101C600082EC90E10E94C51A0E94270E0E94290E64
:101C7000089581E008950E94390E08950895089509
:101C80000E943E0E0E943F0E08950E94DE100E94A8
:101C9000EF0408950E941D1C0E943C150E94AF1184
:101CA0000E94450E0E942D0E0895A5E0B0E0EBE5E0
:101CB000FEE00C942E200E94C51120EF822E21E020
:101CC000922E640110E0F601E190F1906F01812FF6
:101CD0000E9401111F5F163009F44BC0E816F90687
:101CE00091F38091040281FD0E940A110E943B0E33
:101CF000782EF12C8F2D0E9401118C01F401A190FE
:101D0000B1904F018A159B0569F1A826B126E12CF7
:101D1000CC24C394D12CC5018C219D21892BC1F0E9
:101D20007720B1F0E982FA8221E0C8018C219D215F
:101D3000892B09F420E02B830E94261C8160782FD8
:101D40009D838C8349815A816B818D810E941B0503
:101D5000E394CC0CDD1CFAE0EF12DDCFF4013297F6
:101D600011830083F39486E0F812C4CF0E94140E0E
:101D700022C0E816F90609F0B4CF0E94261C8C0197
:101D80008091EE019091EF0108171907A1F08FEFF4
:101D900089838A831B820E94261C8160782F9D8301
:101DA0008C8349815A816B818D810E941B05109320
:101DB000EF010093EE010E94DD130E9402052596BB
:101DC000EDE00C944A20CF93DF930E94DD0FEC01ED
:101DD000811522E5920708F043C0811530E593078D
:101DE00008F0C0C0803E910520F58D3C910508F0BB
:101DF00092C0883A910570F4853A910508F088C040
:101E00008130910531F10497813A910510F1D0E0CC
:101E1000C0E01FC0885A91094997C8F7C85AD0E056
:101E2000CC0FDD1FCA5BDE4F0990D881C02DD46472
:101E300010C08115904488F4C11580E2D80708F0DD
:101E40009EC0C83ED10528F0CE019A9581159F41CC
:101E5000F0F6CE01DF91CF910895DF70D06AF9CF0F
:101E6000803832E59307B8F5803642E5940708F0EC
:101E70005BC0C03482E5D807C8F4C03292E5D90708
:101E800008F04BC02C2F2695269540E2249F900108
:101E900011248C2F8370C1E0D0E002C0CC0FDD1F75
:101EA0008A95E2F7C22BD32BDD68D3CF2C2F269552
:101EB0002695277080E2289F900111248C2F837033
:101EC000C1E0D0E002C0CC0FDD1F8A95E2F7C22B43
:101ED000D32BDC68BECFC03C92E5D90760F48C2FD1
:101EE0008F71C03AD245A0F5C82FD0E0DC2FCC27A7
:101EF000C46FD06AAECFCE01805C9245809708F067
:101F000086CFDC2FCC27CC27DF71C06FD06AA1CF62
:101F1000A497D0649ECFD0659CCFCF71D0E0DC2F4A
:101F2000CC27C16FD06A95CF282F2695269527708C
:101F300040E2249F900111248370C1E0D0E002C0F0
:101F4000CC0FDD1F8A95E2F7C22BD32BDA6881CF45
:101F50000E947F10C82FD0E0DC2FCC27CC27DF7168
:101F6000D06277CF8F710E947F1035E0D695C795EC
:101F70003A95E1F7CF70DC2FC82FD0696ACF8D2F4B
:101F80008F710E947F1090E0982F882788279F717B
:101F90009C012C2BE901E4CF462F672F763028F4E3
:101FA0004A3018F40E940819089580E090E00895DE
:101FB0000E94CC0F0E94E30E0895803E9105C1F16E
:101FC000C8F48133910509F47DC048F48932910544
:101FD00009F46DC08A32910509F47BC008958933F4
:101FE0009105D1F082389105B9F08533910509F456
:101FF00059C00895843E9105C1F138F4823E91059F
:1020000021F1833E910531F10895863E9105C1F19C
:10201000873E9105E1F108952091D302237009F0E4
:1020200065C02091D40223FF14C089E290E0089596
:102030002091D30220FD43C03091D40230FF09C06B
:1020400024FF4EC090E080E008952091D30222FD4D
:10205000F7CF08952091D30222FD45C03091D402DC
:1020600030FD44C024FFF5CFEDCF2091D40221FFF5
:10207000F0CF8091D30284FDE5CF87EE90E0089504
:102080002091D30223FFE5CF24FDDCCFF6CF2091B2
:10209000D30223FD2EC03091D40231FFE3CF84EE72
:1020A00090E008952091D30225FFD3CFBECF209199
:1020B000D30225FD21C02091D40223FFCACF89E39A
:1020C00090E0C7CF2091D30226FFC3CF8AE290E0F1
:1020D00008952091D30226FFBCCF81E390E00895BC
:1020E00083EE90E0089582EE90E0089580EE90E017
:1020F000089586EE90E0089585E390E0089590912C
:10210000D30292FF06C0282F28712830F9F4877F68
:10211000846093FF06C0282F28712831F1F4877E50
:1021200084612091D40220FF06C0382F38713830E6
:10213000D9F4877F816021FF06C0282F28712831BC
:10214000D1F4877E816194FD877E0895282F2471C4
:102150002430F9F68B7F8860DCCF282F247124315E
:1021600001F78B7E8861DDCF382F3171313019F75F
:102170008E7F8860E0CF282F2171213121F78E7E5C
:102180008861E1CF80E008950E94710D08950E945A
:10219000C5118FE39CE90197F1F700C000000E9490
:1021A000C51180E00E94011180FF04C00E94C4108C
:1021B0000E94821C08950E94C71008950E94780D05
:1021C000811102C00E940B0E0E94840D80930402B4
:1021D0000E948E0D9093D4028093D3020E94DB1054
:1021E0000E94890D0E94B5088091A8010E94B90340
:1021F000089508950E94F910089508950E94FD1011
:102200000895E82FF0E0EE0FFF1FEF51FD4F8081A2
:1022100091810895089580EA8A95F1F7089500C0A4
:1022200008950E940B110895F894E82FE295EF703D
:10223000F0E041A18F7021E030E0B90102C0660FEB
:10224000771F8A95E2F7CB01962F9095942391A35F
:1022500092A1892B82A378940895CF93DF93C2E84B
:10226000D1E089918F3F11F00E94141181E0C838AC
:10227000D807B9F7C8E7D1E089918F3F11F00E94E4
:10228000141181E0C238D807B9F7DF91CF910895D2
:10229000B0E0A0E0EEE4F1E10C943220EC01B62EC7
:1022A000062F10E0C8018E579E4F7C01FC01208153
:1022B0002F3F09F44CC0F894E22FE295EF70F0E064
:1022C00031A12F7081E090E001C0880F2A95EAF7D4
:1022D000932F982B91A392A18095892382A3789420
:1022E0000E940F11E8E7F1E041E050E0D12CC12C51
:1022F00021912F3F89F1A22FA295AF70B0E0909667
:102300008C9190E02F7002C0959587952A95E2F701
:1023100080FD22C0CA01C82AD92A440F551F81E076
:10232000E238F80729F7F70180818F3F11F00E940A
:10233000141161E0C114D10409F460E08B2D0E94F6
:102340001111000F111FC00FD11FD982C882CDB744
:10235000DEB7E9E00C944E2090E080E0DCCF0E94F4
:102360002D118CE0E1EEF2E0DF01982F1D929A959D
:10237000E9F7E5EDF2E0DF011D928A95E9F786E0E5
:102380000E9401120E9454040895ACE0B0E0EBEC0E
:10239000F1E10C9436208E010F5F1F4F8CE0F801A5
:1023A00011928A95E9F7F12C6F2DC8010E9448110E
:1023B000F394F6E0FF12F8CF4CE050E0B80185ED61
:1023C00092E00E947420AC0121E0892B09F420E006
:1023D000452B41F08CE0F801A5EDB2E001900D92A3
:1023E0008A95E1F746E061EE72E085ED92E00E94A9
:1023F0000212182F0E945704812F2C96E5E00C94AE
:1024000052200895B0E0A0E0E8E0F2E10C9434201E
:10241000D82EE92EF62E072FC42F222349F081E073
:10242000809307020E94261C909306028093050267
:1024300010910702111107C010E0812FCDB7DEB750
:10244000E7E00C94502080910502909106020E94D2
:102450004F1C059788F3D0E0CC0FDD1FAE016D2D2A
:102460007E2D8F2D902F0E947420892B51F0AE016C
:102470006D2D7E2D8F2D902F0E94812010920702AE
:10248000DCCF10E0FBCF0E94B21C0E944A0E0E94DB
:10249000C31C08950E94C51B0E94A21C0E94300EFE
:1024A0000E9443120E94D11C0E94400EFBCF8091DB
:1024B0000E0280FF0DC06091070170E0660F771F6C
:1024C0006038710570F56115710569F1862F089501
:1024D00081FF07C06091070184E0689FB00111246B
:1024E000EFCF6091070182FD0AC080910D02882321
:1024F000A9F02091060160910701821710F088E091
:10250000ECCF869FC001112433E0880F991F3A95C4
:10251000E1F7622F70E00E940820D2CF68E070E0FF
:10252000D5CF8FE7089581E0089580910E0280FF56
:102530000CC06091030170E075956795759567957E
:102540006115710549F1862F089581FF06C06091DC
:10255000030170E075956795F3CF6091030182FDEB
:102560000BC090910C029923A1F06091020180911F
:102570000301961738F0682F70E06038710500F39A
:102580008FE70895899FC001112470E00E94082000
:10259000F4CF61E070E0D7CF81E008958D3C31F455
:1025A0000E94571281958093120208958E3C19F46F
:1025B0000E945712F8CF8F3C31F40E945712819538
:1025C000809311020895803D19F40E945712F8CFAC
:1025D000893D29F40E9495128093130208958A3D43
:1025E00021F40E9495128195F7CF8B3D31F40E9422
:1025F000951281958093140208958C3D19F40E94E0
:102600009512F8CF9FE2980F983070F4815D990B86
:1026100021E030E001C0220F8A95EAF78091100294
:10262000822B8093100208958D3D31F480910E022B
:10263000816080930E0208958E3D21F480910E02F8
:102640008260F7CF8F3DB9F780910E028460F1CFA1
:10265000409111028D3C59F48091120287FF0DC008
:102660001092120241110BC010920D0208C08E3C54
:1026700081F48091120218169CF3442381F080911A
:10268000130290911402892B09F05AC010920C0287
:1026900008958F3C49F447FFF0CF109211028091CA
:1026A00012028111ECCFE0CF803D19F41416ACF387
:1026B000E4CF90911302893D29F41916F4F6109293
:1026C0001302DBCF8A3D19F497FFD7CFF8CF909153
:1026D00014028B3D29F497FFD0CF10921402CDCF76
:1026E0008C3D19F41916CCF3C8CF9FE2980F98309F
:1026F00090F4815D990B21E030E0B90102C0660FD2
:10270000771F8A95E2F7CB0180959091100289237B
:1027100080931002B2CF8D3D31F480910E028E7FF6
:1027200080930E02AACF8E3D21F480910E028D7F00
:10273000F7CF8F3D09F0A1CF80910E028B7FF0CFB4
:1027400008950E94261C2091110230911202232B21
:1027500021F080930A0290930B0220911302309192
:102760001402232B21F080930802909309028FE03A
:1027700092E00E94E71A089586E0EFE0F2E0DF01C0
:102780001D928A95E9F710920D0210920C02109298
:102790000E020895FC01828181110DC08381811197
:1027A0000AC08481811107C081E09581911101C027
:1027B00080E08170089581E0FCCFA6E0B0E0E3EE18
:1027C000F3E10C94382086E0EFE0F2E0DE011196B0
:1027D00001900D928A95E1F7109211021092120267
:1027E00010921302109214028B819C81892B89F024
:1027F00080910A0290910B020E944F1C9C018091D3
:102800000D028823C9F1909108019217130608F46C
:1028100040C08D819E81892B91F08091080290911A
:1028200009020E944F1C9C0180910C02882309F42C
:1028300071C0909104019217130608F479C0BE018B
:102840006F5F7F4F8FE092E00E949C1B811105C05B
:102850008FE092E00E94CA1381110E94A11386E0CA
:10286000FE013196AFE0B2E001900D928A95E1F75A
:102870002696E3E00C945420409109019AE0499F88
:10288000A00111244217530720F68F5F80930D0299
:1028900002C08F3FD1F71B81112359F00E945712BC
:1028A0009FEF11160CF491E0899F802D11248093E5
:1028B00011021C81112359F00E9457129FEF11162B
:1028C0000CF491E0899F802D1124809312023091A5
:1028D0001102332309F49DCF20911202222309F41F
:1028E00098CF45EB3403C0011124992359F09093FC
:1028F000110245EB240390011124332339F0309366
:10290000120287CF81E080931102F3CF81E08093A0
:1029100012027FCF409105019AE0499FA001112446
:102920004217530708F08BCF8F5F80930C0202C0D1
:102930008F3FD1F71D81112359F00E9495129FEF0F
:1029400011160CF491E0899F802D112480931302BD
:102950001E81112359F00E9495129FEF11160CF45D
:1029600091E0899F802D11248093140230911302ED
:10297000332309F464CF20911402222309F45FCF9A
:1029800045EB3403C0011124992359F090931302AD
:1029900045EB240390011124332339F030931402C2
:1029A0004ECF81E080931302F3CF81E08093140235
:1029B00046CF82E290E00E948A20813289F483E24D
:1029C00090E00E948A20823159F484E290E00E94D3
:1029D0008A2091E0873209F090E0892F8170089574
:1029E00080E0FCCFCF93C82F6FEF811161E282E2CC
:1029F00090E00E9498206FEFC11162E183E290E0C5
:102A00000E9498206FEFC11167E284E290E00E947B
:102A10009820CF9108950895A4E0B0E0E2E1F5E1B7
:102A20000C94392085E290E00E948A20282F30E023
:102A300050E040E0CA01B9012496E2E00C94552030
:102A40000895CF93C62F0E9420156C2F85E290E049
:102A50000E949820CF91089580E00E94F21460E0D7
:102A600070E0CB010E9421150E9494180E94631906
:102A700081E00E94F21408950E940B150E940C152B
:102A80000E9420150E94D914811102C00E942C15A9
:102A900008950895CF939C01FB01C281CC2301F1DD
:102AA00082509747409720F58EEF820F0E9473194E
:102AB000C0E08C2FCF91089581E00E94DF0843E0B1
:102AC00062E081E00E944A04F3CF81E00E94EB08BB
:102AD00043E062E081E00E944A04EBCF82E0F6CF5F
:102AE0008115974791F321303747C1F3C1E0E1CF1A
:102AF0002115E7E73E0701F382E021303747E9F28D
:102B0000D8CF2FEFFC01208308950E9481150895EE
:102B100080E00895AEE0B0E0E0E9F5E10C94352006
:102B20008D839E83162F8D819E810E948815811131
:102B300015C0AD81BE81EC91E150E331F0F4F0E0DD
:102B4000E652FF4D0C941C20ED81FE8111828BE03A
:102B50008283612F8D819E810E94A41D2E96E6E0C6
:102B60000C945120AD81BE8111968C91833091F1EE
:102B700048F48130B9F0823001F18FEFED81FE81B0
:102B80008083E7CF8430C9F7AD81BE8112961C9255
:102B9000129713961C92139714961C9214971596DD
:102BA0001C92D7CF0E94321C0E942220ED81FE8110
:102BB0006283738384839583CCCF0E940C150E941B
:102BC0002220AD81BE8112966D937D938D939C934F
:102BD0001597BFCFED80FE8000E0802F0E9401118D
:102BE000F701928383830F5FF2E0EF0EF11C063052
:102BF000A1F7AFCFAD81BE8111968C91823049F0A3
:102C0000853009F0BACFED81FE8182810E9449159D
:102C1000A0CFAD81BE8112968D919D910D90BC91FA
:102C2000A02DBC01CD010E9422200E94211591CF30
:102C3000AD81BE8113964C91139712966C911297A9
:102C400011968C910E945618982789279827ED8114
:102C5000FE81958384837DCFAD81BE8114962D91B5
:102C60003C91159732272327322713964C911397BF
:102C700012966C91129711968C910E94781869CFD8
:102C80000E94941866CF612F8D819E810E948515C8
:102C900060CF0E941419ED81FE8181835ACF0E947A
:102CA0001619982789279827AD81BE8112969C9383
:102CB0008E9311974ECFED81FE81638170E081810B
:102CC0009281AF014C5F5F4F9827892798270E9418
:102CD00019193FCFAD81BE8113966C91139770E0A7
:102CE00011968D919C911297AD014C5F5F4F982783
:102CF000892798270E943E192CCF0E94631929CF5B
:102D00000E944418C8CFAD81BE8113966C91139771
:102D100070E011968D919C911297AD014C5F5F4FC1
:102D20009827892798270E94C01813CFED81FE812C
:102D3000638170E081819281AF014C5F5F4F982782
:102D4000892798270E94E41804CFCF93DF93EC01E2
:102D5000FB018281882309F4D2C09E0130572332BF
:102D6000310508F0B2C00E948E0D9093D40280937A
:102D7000D302FE01E150F047E232F10520F4E351C5
:102D8000FF4D0C941C208091D30281608093D3026C
:102D900093C08091D40288608093D4028DC08091CA
:102DA000D3028260F3CF8091D3028460EFCF809111
:102DB000D3028860EBCF8091D4028160EDCF809107
:102DC000D4028260E9CF8091D3028061DFCF80910D
:102DD000D3028062DBCF8091D3028064D7CF0E9480
:102DE00061088091D3028068D1CF8091D3028C603A
:102DF000CDCF8091D4028360CFCF8091D3028E7FDC
:102E0000C5CF8091D402877FC7CF8091D3028D7FB9
:102E1000BDCF8091D3028B7FB9CF8091D302877FC2
:102E2000B5CF8091D4028E7FB7CF8091D4028D7FB1
:102E3000B3CF8091D3028F7EA9CF8091D3028F7DB3
:102E4000A5CF8091D3028F7BA1CF0E946108809192
:102E5000D3028F779BCF8091D302837F97CF8091CE
:102E6000D4028C7F99CF8091D30282FB992790F96D
:102E700021E0922790FB82F990FB83F987CF809124
:102E8000D402982F909591708E7F892B90FB81F9B9
:102E900083CF9091D302892F8F7B96FF806476CF6A
:102EA0000E9461089091D302892F97FB87F980587F
:102EB0006DCF81E00E940E0E8091D3029091D402DA
:102EC0000E94930D0E94610880E0DF91CF910895E8
:102ED00080E0F0CF9091D302892F8F7E94FF8061A4
:102EE00055CF9091D302892F8E7F90FF81604ECF76
:102EF0009091D402892F877F93FF88604DCF81E026
:102F0000E4CFB0E0A0E0E7E8F7E10C943420E82F4C
:102F1000F0E0E85BFD4FD490282F26952695269566
:102F200030E0F901E851FD4F0491877010E0082E60
:102F300002C0159507950A94E2F701701127F9016F
:102F4000E852FD4FE490F12C082E02C0F594E7946E
:102F50000A94E2F791E0E922FF24F901E853FD4FDA
:102F6000C491D0E002C0D595C7958A95E2F7C170AB
:102F7000DD270115110519F081EE0E945F05E114AE
:102F8000F10419F086EE0E945F058D2D0E94F60572
:102F9000E114F10419F086EE0E94AB05011511054C
:102FA00019F081EE0E94AB05CD2B19F08CE20E9446
:102FB000F605CDB7DEB7E7E00C945020EF92FF9214
:102FC0000F931F93CF93DF93EC01162F0AE08881B4
:102FD000882309F454C0813009F04EC089818130C2
:102FE00099F47E0122E0E20EF11C8A810E94F6052E
:102FF000E7012196812F815050F3EFE9FFE03197EF
:10300000F1F700C00000F7CF823041F47E0182E08A
:10301000E80EF11C8A810E945F05EACF833041F4FB
:103020007E01E2E0EE0EF11C8A810E94AB05E0CF4A
:10303000843011F02196DDCF2A81229690E080E045
:10304000AE014F5F5F4F2053330B2A30310548F0FC
:10305000019778F2EFE9FFE03197F1F700C0000047
:10306000F7CF089FB001099F700D1124C901860F89
:10307000971F2981EA01E4CF0E948117BACFCDB70B
:10308000DEB7E6E00C94512084E0089550E0440F50
:10309000551F94E1699F400D511D112498E7899FA8
:1030A000400D511D1124CA01869608950F931F9358
:1030B000CF93DF938430C8F46630B8F44A30A8F474
:1030C0000E9446188C010E948A20C82FD0E0DC2F75
:1030D000CC27C80101960E948A209E01282BC90195
:1030E000DF91CF911F910F91089590E080E0F8CF8C
:1030F0000F931F93CF93DF93122F032F843078F415
:10310000663068F44A3058F40E944618EC01602F8B
:103110000E949820612FCE0101960E949820DF9195
:10312000CF911F910F9108950F931F93CF93DF932A
:10313000D0E0C0E010E019C00E94C10321E030E0FF
:103140008C171D0639F034F0402F612F8C2F0E9410
:10315000C3039C01402F612F8C2F0E9478180F5FB2
:103160000A3051F71F5F163011F000E0E5CF2196CD
:10317000C430D105F9F6DF91CF911F910F910895D9
:10318000EF92FF920F931F93CF93DF93EC018A018D
:103190007C01E60EF71ECE018696CE15DF0529F4DA
:1031A000CDB7DEB7E6E00C945120C03E21E0D20757
:1031B00040F40E948A20F80180830F5F1F4F219600
:1031C000EACFF8011082F9CFB0E0A0E0EAEEF8E132
:1031D0000C9433208C016A017C01E60EF71EEC0191
:1031E000CE018696CE15DF0529F4CDB7DEB7E8E02F
:1031F0000C944F20C03E21E0D20740F4FE01E01BBA
:10320000F10BEC0DFD1D60810E9498202196E8CF06
:10321000843038F4663028F44A3018F40E94561886
:10322000089580E090E0089580E108958AEF91E0AC
:103230000895EF92FF920F931F93CF93DF93EC01CA
:103240008A017C01E60EF71ECE018A5F9D4FCE15E6
:10325000DF0529F4CDB7DEB7E6E00C945120CA3F74
:1032600021E0D20740F40E948A20F80180830F5F9A
:103270001F4F2196E9CFF8011082F9CFB0E0A0E00E
:10328000E4E4F9E10C9433208C016A017C01E60E40
:10329000F71EEC01CE018A5F9D4FCE15DF0529F4A4
:1032A000CDB7DEB7E8E00C944F20CA3F21E0D2074B
:1032B00040F4FE01E01BF10BEC0DFD1D60810E944E
:1032C00098202196E7CFCF93DF93C6E0D2E060E06D
:1032D000CE010E9498202196C11584E0D807B9F745
:1032E000DF91CF910895A8E0B0E0E9E7F9E10C940F
:1032F0003320F82E2FE0281708F472C08FEF93E0E8
:103300000E948A2081116CC006E012E0F11038C0E2
:103310001A821982FE01339686E0DF011D928A959A
:10332000E9F76801BFEFCB1ADB0AC8010E948A20C7
:1033300089831A82882309F453C08130D1F478013B
:1033400022E0E20EF11CC6010E948A208A838823B3
:1033500009F446C09FEF980F9330F8F4680183E0BA
:10336000C80ED11CC7010E948A208B838823C1F11B
:103370001C8260E0CE0101960E94DE178601D1CF4B
:10338000011584E0180761F1C8010E948A208111AB
:1033900001C0FA940F5F1F4FB9CF8430D1F402E01F
:1033A00010E0C701AFEFEA1AFA0A0E948A20E1E0B2
:1033B000F0E0EC0FFD1FE00FF11F8083882381F008
:1033C0008C3749F4E2E0F0E0EC0FFD1FE00FF11F55
:1033D00010826701CECF0F5F1F4F0730110509F72D
:1033E0002896E8E00C944F20CF93DF93EB018631D1
:1033F0009C4711F50E949E0C9A81992399F08A7A34
:1034000091E009F490E090931502811109C089E2DE
:103410000E94760C0E94E10C80E0DF91CF9108952C
:1034200085E3F6CF80911502811104C089E20E94E4
:103430007E0CF0CF85E3FBCF81E0EFCF0F931F939E
:10344000CF93DF93C42FD22FFC0182818823C9F050
:10345000409318020E94261C909317028093160234
:1034600080E28C0F883040F4C77081E001C0880F83
:10347000CA95EAF70E94FF05DF91CF911F910F9146
:10348000089510911802141332C080911602909181
:1034900017020E944F1C883C910548F5C0E2CD0FF1
:1034A0001D17B9F080E2810F883040F4177081E079
:1034B00001C0880F1A95EAF70E940606C83048F442
:1034C00081E09D2F977001C0880F9A95EAF70E94BE
:1034D000FF05802F0E94F605C83070F6D77081E096
:1034E00001C0880FDA95EAF70E940606C5CF80E290
:1034F0008C0F883008F6C77081E001C0880FCA952C
:10350000EAF7F2CF0F93FC01CB01E851FC47E7301B
:10351000F10590F5E15FFE4D0C941C2006E221EED2
:1035200041EE6AE17CE70E941E1A80E00F91089547
:1035300007E225EE45EE6BE17CE7F5CF06E221EEF2
:1035400040EE68E17CE7EFCF07E225EE44EE69E16B
:103550007CE7E9CF06E221EE42EE6CE17CE7E3CFC7
:1035600007E225EE46EE6DE17CE7DDCF08E221E0E3
:1035700045EE6EE17CE7D7CFFB018281882319F00D
:1035800010921802D3CF81E0D1CF9093890180931C
:103590008801089590931E0280931D020895E09182
:1035A0001D02F0911E02309729F00190F081E02D6C
:1035B0000995089580E00895E0911D02F0911E02A2
:1035C000309721F00280F381E02D09950895DC0108
:1035D000E0911D02F0911E02309739F082E08C9349
:1035E0000480F581E02DCD0109950895A3E0B0E0B8
:1035F000ECEFFAE10C9439209C0180911B02909130
:103600001C0282179307A1F030931C0220931B0227
:10361000E0911D02F0911E02309751F083E0898302
:103620003B832A830680F781E02DCE010196099520
:103630002396E2E00C945520A3E0B0E0E2E2FBE147
:103640000C9439209C018091190290911A028217E2
:103650009307A1F030931A0220931902E0911D0202
:10366000F0911E02309751F084E089833B832A83D6
:103670000680F781E02DCE01019609952396E2E0C0
:103680000C945520AC019C012E5F3F4F485F5F4F6B
:1036900080E02417350709F40895F90191919F01FD
:1036A0009923B9F38F5FF5CF9C01662351F0FC019C
:1036B0003296285F3F4F8191861729F0E217F30772
:1036C000D1F780E0089581E008959C01FC013296D5
:1036D0008FEF90E04191461751F08F3F19F441115F
:1036E00001C0892F9F5F9630A9F78F3F09F4089595
:1036F000280F311D87FD3A95F901628308959C01D9
:10370000FC013296285F3F4F8191861303C0DF0191
:1037100011971C92E217F307B9F708950E94651BF1
:1037200008950E947F1B0895FC01329686E0DF0118
:103730001D928A95E9F7089546E050E00E947420B2
:103740009C0181E0232B09F480E0089508950895F9
:103750000E94A71B0895089508950E94A61B08952E
:10376000CF930E94AB1B0E94C5110E94AC1BC0E00E
:103770008C2F0E940111892B31F4CF5FC630C1F725
:1037800080E0CF91089581E0FCCF08951F921FB68D
:103790001F9211248F939F93AF93BF9380911F0229
:1037A000811113C08091ED029091EE02A091EF0281
:1037B000B091F0024196A11DB11D8093ED0290934E
:1037C000EE02A093EF02B093F002BF91AF919F91F0
:1037D0008F911F901FBE1F90189580912202882301
:1037E00031F10E94CF0410921F0288E190E020E4A2
:1037F0000FB6F894A895809360000FBE20936000E8
:1038000083B7817F846083BF83B7816083BF7894EF
:10381000889583B78E7F83BF0FB6F894A895809163
:103820006000886180936000109260000FBE089570
:103830000E9461080E94D404089582E084BD93E050
:1038400095BD9AEF97BD80936E0008952FB7F894B9
:103850008091ED029091EE02A091EF02B091F00202
:103860002FBF0895A4E0B0E0E8E3FCE10C94392018
:103870008FB7F8942091ED023091EE024091EF0263
:103880005091F00229833A834B835C838FBF698117
:103890007A818B819C812496E2E00C9455209C01D6
:1038A0004FB7F8948091ED029091EE02A091EF0253
:1038B000B091F0024FBF821B930B089578941F9232
:1038C0001FB61F9211248F939F93AF93BF93809144
:1038D000ED029091EE02A091EF02B091F0020196FC
:1038E000A11DB11D8093ED029093EE02A093EF0213
:1038F000B093F002BF91AF919F918F911F901FBE27
:103900001F90189588E198E00FB6F894A8958093D9
:1039100060000FBE90936000A895F894D8E0CEEFB9
:1039200028E3299320E0299314BEFFCF089588E16E
:1039300098E00FB6F894A895809360000FBE90931E
:103940006000FFCF0E94261C9093210280932002EA
:1039500080E890E00FB6F894809361009093610046
:103960000FBE08950E94ED1F539A80E0815019F414
:10397000539878940895A895EFE9FFE03197F1F70F
:1039800000C00000F3CF0E94DA1D0E94CA1A2FEF78
:1039900080E792E0215080409040E1F700C00000B5
:1039A000089580911803882369F1109218030E94EA
:1039B000261C90932102809320028091220288236A
:1039C00041F0109222020E94181C80912202811163
:1039D0001DC00E94F51E80911E03882329F080914E
:1039E000FC0284FD0E94550E0E94481D0E94F51E97
:1039F00080911E03882329F08091080384FD0E9492
:103A0000CE1D089580912202882301F10E94ED1BB2
:103A10000E94B01B8823A9F3F8942AB15B9A822FE5
:103A20008C608AB99BB13CE093279BB94FE788E350
:103A300091E0415080409040E1F700C000008BB120
:103A400083278BB92AB95B987894089580912002D6
:103A5000909121020E944F1C069708F4B6CF81E096
:103A6000809322020E94ED1BB0CF8091D202089574
:103A70002091350324FF03C063E00E94EB1E0895EC
:103A80002091350324FF03C066E00E94EB1E0895D9
:103A9000CF93DF93CAE0D0E08091FC0284FF1AC08C
:103AA00080914F0290915002981789F028E0829FF0
:103AB000C001112468E08F5A9D4F0E94E61E80913C
:103AC0004F0290E001968F70992780934F02DF910B
:103AD000CF9108950E94F51E8FE99FE00197F1F7BD
:103AE00000C000002197C1F6F2CFCF93DF93D82F0B
:103AF000C92FA0915002B0E0CD0101968F70992797
:103B000020914F02281781F093E0AA0FBB1F9A95CE
:103B1000E1F7AF5ABD4F98E0ED2FFC2F01900D92C9
:103B20009A95E1F7809350020E94F51E0E94481D6D
:103B300088E0ED2FFC2FA7E4B2E001900D928A956A
:103B4000E1F7DF91CF9108950F931F93CF93DF9308
:103B5000EC016032D9F48C01005E1F4F02C00E945C
:103B6000F51E8091080384FFFACF68E0CE010E9421
:103B7000F01E2896C017D107A1F78091080384FF93
:103B80000AC060E090E080E00E94F01EDF91CF91DB
:103B90001F910F9108950E94F51EEFCF809126028C
:103BA000803239F460E287E292E00E948A15109236
:103BB000260208958AE091E00895FC0180818076D4
:103BC0008032F1F48181813061F484819581892B87
:103BD000B9F487E492E090931A038093190388E084
:103BE0000895823041F481ED92E090931A0380931E
:103BF000190381E008958A3029F483818093D102EA
:103C000080E008958930E1F78281938181159240A7
:103C100069F484819581892B49F481E080932502A0
:103C20008681978190932402809323028FEF0895D9
:103C3000FC018091230290912402892B61F08091F4
:103C40002502813041F490819093D2021092240297
:103C50001092230208958FEF0895683019F01092A2
:103C600026020895209126022931C8F7FC01A22FCF
:103C7000B0E0A95DBD4F089631913D93E817F90773
:103C8000D9F7285F209326020895FC0183818330B1
:103C900081F130F48130E9F0823019F180E008954B
:103CA000813209F445C08232C9F72481358121303F
:103CB000310509F452C02230310509F455C0232BD7
:103CC00069F78AE294E090931A038093190380E4E1
:103CD000089583E593E090931A038093190382E19A
:103CE000089588EF92E090931A03809319038BE56F
:103CF00008958281813061F0823091F08111CECFC0
:103D000089E893E090931A038093190384E008955F
:103D10008DE793E090931A03809319038AE0089546
:103D200085E693E090931A038093190386E1089542
:103D30008281813061F0823069F08111AFCF8AE0F9
:103D400093E090931A038093190389E0089583E226
:103D500093E0F7CF83E493E0F4CF2DE833E03093A2
:103D60001A032093190308958FEA93E090931A039E
:103D7000809319038BE708951F93CF93DF93782FD8
:103D8000162FEA01888184FF1EC0898128E88227D6
:103D90008983AE014E5F5F4FFA01272F392F710FD4
:103DA000D9012F5F3F4F8C918193872F821B18166B
:103DB000BCF3612FCA010E9469021C5F1883DF9166
:103DC000CF911F9108958AE58883E3CF4CEF52E0AD
:103DD0000E94BC1E089545E353E00E94BC1E089556
:103DE00048E053E00E94BC1E0895CF93DF9360919A
:103DF0001B03635067FD12C080911703CCE0D0E035
:103E0000C81BD109C15EDC4F80911603803108F0D8
:103E100059C0CE010E942D1E10921B0380911301E8
:103E200084FF43C0809112018F3F09F43EC0C82F28
:103E3000893008F0C8E0982F9C1B90931201909154
:103E4000F10228E892279093F102882301F18091F2
:103E5000190390911A032091150326FFB2C0FC01AB
:103E60002C2F42EF52E03491DA013C934F5F5F4FC9
:103E700031962150C1F79C012F5F3F4F8FEF8C0F80
:103E8000820F932F911D90931A03809319036C2F27
:103E900082EF92E00E94690284E08C0FC83019F032
:103EA0009FEF909312018093130184E199B19C706C
:103EB00031F48150D9F710921C0310921403DF9152
:103EC000CF9108958D3209F069C0683009F0A4CF10
:103ED00083EC8093F1028AE580931301109215031D
:103EE0008881807671F0CE010E94DD1D8F3FC1F484
:103EF000988197FD8E8190E890931503809312012D
:103F00008BCF2A811092FA029981911111C01092DF
:103F1000FB022AEF32E082E030931A032093190368
:103F20009F819111EBCF9E81981740F7892FE6CFA3
:103F3000953029F420931C032AEF32E0EDCF963020
:103F400099F49B81913021F4CE010E94451E08C056
:103F50009230D1F39330C1F39132B1F39232A1F3A5
:103F600090E490931503C2CF983089F0993019F4FA
:103F700020931E03E1CF9A3071F09B30E9F69BE469
:103F80009093FD029093360390930903D5CF2EE1D1
:103F900033E081E0C1CF2AEF32E0FBCF80911503FF
:103FA00087FF3ACFCE010E94181E8F3F21F48EE189
:103FB0008093130131CF882309F42ECF1092120180
:103FC0002BCFDC012C2F42EF52E0FA013D913083E0
:103FD0004F5F5F4F2150C9F74ECFCF93DF93E9E694
:103FE000F0E0808188608083E99ACCEFD2E08BE4B6
:103FF0008983A5E3B3E011968C931197E8E0F3E091
:1040000081838AE588838C938083DF91CF910895A3
:1040100097FB072E16F4009407D077FD09D00E9475
:10402000602007FC05D03EF4909581959F4F089540
:10403000709561957F4F0895EE0FFF1F0590F491E5
:10404000E02D0994692796276927782787277827FD
:1040500008952F923F924F925F926F927F928F922C
:104060009F92AF92BF92CF92DF92EF92FF920F9307
:104070001F93CF93DF93CDB7DEB7CA1BDB0B0FB611
:10408000F894DEBF0FBECDBF09942A8839884888CE
:104090005F846E847D848C849B84AA84B984C88464
:1040A000DF80EE80FD800C811B81AA81B981CE0F5B
:1040B000D11D0FB6F894DEBF0FBECDBFED01089540
:1040C000AA1BBB1B51E107C0AA1FBB1FA617B7073E
:1040D00010F0A61BB70B881F991F5A95A9F780955A
:1040E0009095BC01CD010895FB01DC0104C08D91C8
:1040F0000190801921F441505040C8F7881B990B5A
:104100000895FB01DC0102C001900D924150504026
:10411000D8F70895F999FECF92BD81BDF89A9927F5
:1041200080B50895A8E1B0E042E050E00C94BE20D4
:10413000262FF999FECF92BD81BDF89A019700B460
:10414000021639F01FBA20BD0FB6F894FA9AF99A00
:104150000FBE08950396272F0E9499200E94982051
:10416000252F0E949920242F0C9499200196272F07
:104170000E9499200C949820DC01CB01FC01F99954
:10418000FECF06C0F2BDE1BDF89A319600B40D92A3
:1041900041505040B8F70895F894FFCF47064706BE
:1041A000780678060D072907A706A7062E079707A2
:1041B000A607A607A415B215FA1518162C16401650
:1041C000431643164316BD15BD1549164F165B160B
:1041D0006A167D16801683169616FD16711705173A
:1041E000CF16D3160917D7160D171917E3166A1726
:1041F000E7161D17EB1621174917EF16251750174D
:10420000F5162B173317DB161117DF161517F916CE
:104210002F173F1759176817C916011778179E1AD5
:0C422000A41A8E1A981AAA1AB01AB61A1C
:10422C00E401280850011E0A1401351D751D401D9E
:10423C00381DFF5AE200E900EA00B500B600B700ED
:10424C00CD008301CC008A0192019401210223024A
:10425C0024022502260227022A02B300B4006F00B2
:10426C0070009F01CB01E200E900EA00B500B60046
:10427C00B700CD008301CC008A0192019401210288
:10428C00230224022502260227022A02B300B400CC
:10429C006F0070009F01CB013097969594919061BF
:0842AC006263603534333231E6
:00000001FF
