:107000006BC00000AAC000008EC000008CC0000051
:107010008AC0000088C0000086C0000084C0000054
:1070200082C0000080C000007EC000007CC0000064
:107030007AC0000078C0000076C0000074C0000074
:1070400072C0000070C000006EC000006CC0000084
:107050006AC0000068C0000066C0000064C0000094
:1070600062C0000060C00000EC2DFD2DB7B6B0FC82
:10707000FDCF27BFE895B7B6B0FCFDCF21E1B7B68D
:10708000B6FCF4CF08950902120001010080320914
:10709000040000000000000012011001FF000008C1
:1070A000C016DC050201010200010E035500530069
:1070B00042006100730070001C03770077007700C6
:1070C0002E00660069007300630068006C002E00EB
:1070D000640065000403090411241FBECFEFD8E04B
:1070E000DEBFCDBF24B7D8E0CEEF39913833399128
:1070F00009F03FEF30933C0120933B0111E0A0E009
:10710000B1E0E4E7F8E702C005900D92A630B107C0
:10711000D9F721E0A6E0B1E001C01D92AB33B20780
:10712000E1F77CD1A5C36CCFA82FB92F80E090E008
:1071300041E050EA609530E009C02D918227979593
:10714000879510F084279527305EC8F36F5FA8F30A
:107150000895EADF8D939D930895CF93CFB7CF9392
:10716000DF93C3954B9BE9F74B9B0BC04B9B09C02F
:107170004B9B07C04B9B05C04B9B03C04B9B01C067
:1071800089C06F93C0911E01DD27CB5DDE4F2F9329
:1071900065E54B9B03C02F916F91E6CF0F931F9333
:1071A0004F9320E040E15F9309B10C7003FB27F996
:1071B0003F9350E03BE039C01C7040642F77012FB3
:1071C0005F5F1EC0406819B11C702F7752501FC0FE
:1071D000406409B12F770C70D1F15F5F00C023C00C
:1071E000406219B12F771C7091F15F5F00C025C01C
:1071F0000C701027515012F45D5F0000115027955C
:107200002C3F19B1C8F61C700127015027952C3F5F
:10721000C8F64227499309B10C7010274F731150DB
:1072200027952C3FA8F64695469519B11C7079F024
:107230000127015027952C3F98F66B5A60F3315087
:1072400009B1B0F600C011E01CBB002717C03B50CD
:107250003195C31BD04011E01CBB0881033CF9F001
:107260000B34E9F020911C011981110F1213EDCF9D
:10727000093651F10D3211F0013E39F70093230127
:107280003F915F914F911F910F912F916F91CCB3CF
:10729000C0FD67CFDF91CF91CFBFCF9118952091DF
:1072A0002301222369F310912101112339F5343090
:1072B0003AF13093210120931D0110911E013BE012
:1072C000311B30931E011CC0009121010130B4F428
:1072D0000AE53091010134FD14C000930101C1E1C0
:1072E000D1E013C0052710E000C000000BB91AC0A0
:1072F000052710E0221F1DC010E021C04AE502C092
:1073000032ED432FC4E1D0E032E01AB11C605B9A49
:107310000BB11AB95CE020E865E320FF05270BB943
:10732000279517951C3FF0F66695B8F7B1F720FF43
:1073300005270BB9279517951C3FD0F6279517956C
:1073400017FF052700001C3F0BB9B0F629913A95AD
:1073500019F7037F10912201110FC651D0400BB9CC
:1073600011F010931C0111E01CBB08601AB1137FCF
:10737000402F437F54E05A95F1F70BB91AB94BB936
:107380007FCFFC01438134818381948198278927B1
:1073900098272281203339F43370E32FF0E0EE5F39
:1073A000FE4F80810895283561F489E0E1E0F0E046
:1073B000442371F089E0E3E0F0E0483049F080E0F8
:1073C0000895203579F4411107C089E0F0E0E0E04C
:1073D000809357008491089589E0E2E0F0E048301E
:1073E00071F7F6CF203229F4880F991FFC018491A0
:1073F0000895283229F4FC01EE0FFF1F3196F7CFD4
:10740000203A09F41FC2203C19F4658123D2D7CF5A
:107410002F3FA9F681EF80930F01D1CF1AB880E2F8
:107420008BB981E085BF82E085BFE0E0F1E7A895F8
:1074300031978040E1F780913B01877F21F4809173
:107440003C01882371F04D9B0CC0F894539A1BB8F3
:107450001DBA1092690081E085BF15BEF0E0E0E042
:1074600009958EEF80930F0114BE0FB6F894A8957E
:1074700080916000886180936000109260000FBE70
:1074800080916900826080936900E89A539A8CE049
:10749000E0E0F5E3A89531978040E1F753987894C0
:1074A00010912101135017FD5AC080911E01CCE0AC
:1074B000D0E0C81BD109CB5DDE4F80911D018D321C
:1074C00009F00BC1183009F048C083EC809311011A
:1074D0008AE580930101109210013881832F807614
:1074E0009981882309F49BC046E051E05093200124
:1074F00040931F01933069F4CE0143DF809309016B
:1075000084E09F81911127C09E81981720F5892FD3
:1075100022C0953009F4DFC09A3009F4DCC08CEF4A
:10752000890F863008F070C04A815B8150930E014C
:1075300040930D01993009F46EC08E8180930C0147
:107540002D81227020930B0190930A0137FF8FEF5A
:1075500090E8909310018093000110922101809196
:10756000010184FF36C0809100018F3F91F1182FF7
:10757000893008F018E0982F911B909300019091AA
:10758000110128E89227909311018823A9F03091E6
:10759000100137FF2EC180910C01811708F4182FBC
:1075A000811B80930C01D0900A0100E082E1E82E5B
:1075B00081E0F82E101305C1612F82E191E0C9DD51
:1075C00084E0810F183019F09FEF909300018093B1
:1075D000010184E199B19C7031F48150D9F7109286
:1075E000220110921C0180910F01803108F41FC10B
:1075F0004D9B05C080910F01805180930F018091B8
:107600000F0181114DCF21CF80910F01923029F4CC
:107610008E7F80930F0180E074CF8160FACF2A8142
:1076200010921A0191110AC010921B012AE131E057
:1076300082E03093200120931F0163CF953029F41D
:10764000209322012AE131E0F4CF963099F59B8115
:10765000913059F488E990E79093200180931F01BD
:1076600082E190E4909310014CCF923019F486E8B7
:1076700090E7F2CF9330A9F7211108C084ED90E78D
:107680009093200180931F0184E0EBCF213041F4DF
:1076900088EB90E79093200180931F018CE1E1CF6C
:1076A0002230F9F68AEA90E79093200180931F0137
:1076B0008EE0D7CF983059F0993019F420932401F7
:1076C000C1CF81E09A3009F4BDCF80E0BBCF24E286
:1076D00031E081E0AECF81E014CF8091100187FFCF
:1076E0003CCF00910C01011708F4102F011B0093EF
:1076F0000C01F12CF11628F001112FCF109200018E
:107700002CCF80910D0190910E0120910A0127301C
:1077100058F069919C012F5F3F4F30930E012093E9
:107720000D0198D0F394E6CF8115904738F7F39484
:10773000F394F894E0910D01F0910E0129913991A3
:1077400081E0090180935700E89511247894809195
:107750000D0190910E01029690930E0180930D0100
:107760008F779927892B51F00111C4CFF11608F4B6
:10777000C1CF80910B01882309F4BCCFF894E0912C
:107780000D01F0910E01329783E080935700E89548
:10779000789407B600FCFDCFF894E0910D01F091CC
:1077A0000E01329785E080935700E895789407B6EC
:1077B00000FCFDCFF89481E180935700E895789420
:1077C00099CFC0910D01D0910E0126E02D1570F4D6
:1077D000CE0138D0F7018083FFEFEF1AFF0A219620
:1077E000D0930E01C0930D010F5FE4CEFE01849192
:1077F000F1CF80911F0190912001212F280FFC01D2
:1078000082E191E036FF0CC03491DC013C9301969B
:1078100031962E13F9CFF0932001E0931F01CCCEC7
:10782000DC0131913C9301962E13FACFF4CF4D99A0
:10783000E6CE80910F01823008F4E1CE80910F01F5
:107840008250DBCEF999FECF92BD81BDF89A99277F
:1078500080B50895262FF999FECF1FBA92BD81BD3C
:1078600020BD0FB6F894FA9AF99A0FBE01960895C2
:04787000F894FFCFBA
:06787400FF5A1E950F00F3
:040000030000700089
:100000000C9435020C947C020C9497020C947C02A4
:100010000C947C020C947C020C94EE1D0C947C02DB
:100020000C947C020C947C020C947C020C947C0258
:100030000C947C020C947C020C94591E0C947C024F
:100040000C947C020C947C020C947C020C947C0238
:100050000C947C020C947C020C947C020C947C0228
:100060000C947C020C947C0235001E001F002000C2
:1000700021002A0027002600250024002B00140060
:100080001A00080022004C00130012000C0023008C
:1000900029000400160015001700340033000F007B
:1000A00018001C00E1001D00070009000A002800DC
:1000B00038000E000D000B00E0001B0006001900C8
:1000C00005004F0037003600100011000251E20019
:1000D000E30001512C0052005100500002512C004D
:1000E00035021E021F02200221022A0027022602D8
:1000F0002502240235021E021F02200222024C00A9
:1001000027022602250223024C003A003B0021026E
:100110002202310230022F02240223020100400099
:100120003C003D003E0001004D002E022D023F002C
:1001300001004100420043004400AE004A00640256
:100140003202450001000100010001000100A90088
:10015000AA00AB000100010035001E001F002000B6
:1001600021002A00270026002500240035001E005B
:100170001F00200022004C0027002600250023003D
:100180004C003A003B0021002200310030002F00DB
:1001900024002300010040003C003D003E0001001F
:1001A0004E002E002D003F000100410042004300A0
:1001B0004400AE004B006400320045000100010025
:1001C000010001000100A900AA00AB00010001002C
:1001D0000100010001000100010001000100010017
:1001E0000100010001000100010001000100010007
:1001F00001000100010001000100010001000100F7
:1002000001000100010001000100010001000100E6
:1002100001000100010001000100010001000100D6
:1002200001000100010001000100010001000100C6
:1002300001000100010001000100010001000100B6
:1002400001000100010001000000000000000000AA
:100250002A2B280000000000000000000000000021
:1002600000000029000000002C1E3420212224342C
:100270002627252E362D3738271E1F2021222324FE
:1002800025263333362E37381F0405060708090A9A
:100290000B0C0D0E0F101112131415161718191A36
:1002A0001B1C1D2F3130232D350405060708090AB4
:1002B0000B0C0D0E0F101112131415161718191A16
:1002C0001B1C1D2F3130354C0000000000000000C9
:1002D000000000000000000000000000000000001E
:1002E0000000000000000000000000007E0F00D4AD
:1002F000FFFFFFC70000007809025B00030100A0B8
:10030000320904000001030101000921010100017B
:1003100022400007058103080001090401000203CF
:1003200000000009210101000122220007058403C9
:100330000800010705040308000109040200010385
:10034000000000092101010001227B000705830351
:1003500008000112011001000000086A700200018B
:10036000000102000116034C0075006D006200657B
:100370000072006A00610063006B0000000A035015
:1003800000650065006A000000040309040660FFC0
:100390000961A1010962150026FF009520750881F9
:1003A000020963150026FF00952075089102C0051B
:1003B000010902A10185020901A10005091901290C
:1003C000081500250195087501810205010930090C
:1003D000311581257F95027508810609381581251B
:1003E0007F950175088106050C0A38021581257F65
:1003F000950175088106C0C005010980A10185032A
:1004000019012AB700150126B70095017510810062
:10041000C0050C0901A101850419012AA0021501DA
:1004200026A002950175108100C005010906A101F1
:10043000050719E029E715002501950875018102D6
:100440009501750881030507190029FF150026FF8E
:10045000009506750881000508190129059505759F
:10046000019102950175039103C011241FBECFEFC6
:10047000D8E0DEBFCDBF04B603FE27C08091510394
:1004800090915203A0915303B09154038730904B45
:10049000A740B04BD1F41092510310925203109226
:1004A00053031092540314BE84B7877F84BF0FB6E2
:1004B000F894A89580916000886180936000109204
:1004C00060000FBEE0E0F8E3099511E0A0E0B1E0C4
:1004D000E0E5F6E402C005900D92A638B107D9F721
:1004E00023E0A6E8B1E001C01D92A135B207E1F713
:1004F0000E94E31E0C94E7220C940000A82FB92F51
:1005000080E090E041E050EA609530E009C02D9134
:1005100082279795879510F084279527305EC8F33A
:100520006F5FA8F30895EADF8D939D930895CF93AD
:10053000CFB7CF93DF93C3954B9BE9F74B9B10C08D
:100540004B9B0EC04B9B0CC04B9B0AC04B9B08C0E7
:100550004B9B06C0C0912803C395C09328038EC04F
:100560006F93C0912703DD27C15DDC4F2F9365E5B5
:100570004B9B03C02F916F91E1CF0F931F934F932C
:1005800020E040E15F9309B10C7003FB27F93F9332
:1005900050E03BE039C01C7040642F77012F5F5F53
:1005A0001EC0406819B11C702F7752501FC04064A4
:1005B00009B12F770C70D1F15F5F00C023C040629A
:1005C00019B12F771C7091F15F5F00C025C00C70CE
:1005D0001027515012F45D5F0000115027952C3FF9
:1005E00019B1C8F61C700127015027952C3FC8F699
:1005F0004227499309B10C7010274F73115027956A
:100600002C3FA8F64695469519B11C7079F0012744
:10061000015027952C3F98F66B5A60F3315009B181
:10062000B0F600C012E01CBB00271CC03B50319547
:10063000C31BD04012E01CBB0881033C21F10B34EA
:1006400011F1209124031981110F1213EDCF4A816A
:10065000441F093679F10D3211F0013E29F74F7030
:1006600009F0042F00932D033F915F914F911F914B
:100670000F912F916F91CCB3C1FD5DCFDF91CF91E1
:10068000CFBFCF91189520912D03222369F31091AC
:100690002B03112309F049C034300AF448C03093C9
:1006A0002B0320932603109127033BE0311B30934B
:1006B00027033DC000912B030130BCF50AE54F70C4
:1006C00049F43091150134FD33C000931501C1E0A8
:1006D000D3E032C0433059F0443091F030910C03F4
:1006E00034FD26C000930C03CDE0D3E025C030914B
:1006F000450334FD1DC000934503C6E4D3E01CC090
:100700003091180334FD14C000931803C9E1D3E0FD
:1007100013C0052710E000C000000BB91AC0052760
:1007200010E0221F1DC010E021C04AE502C032EDDA
:10073000432FC4E1D0E032E01AB11C605B9A0BB1E8
:100740001AB95CE020E865E320FF05270BB927957F
:1007500017951C3FF0F66695B8F7B1F720FF05270F
:100760000BB9279517951C3FD0F62795179517FFBE
:10077000052700001C3F0BB9B0F629913A9519F7EF
:10078000037F10912C03110FC651D0400BB911F00B
:100790001093240312E01CBB08601AB1137F402F92
:1007A000437F54E05A95F1F70BB91AB94BB95CCFB6
:1007B000FB012281222321F0459ABF010C940604FB
:1007C0004598FBCFCF93DF9300D000D0CDB7DEB7F5
:1007D00069837A838B839C83459889819A81AB81D5
:1007E000BC81892B8A2B8B2B69F0449A69817A8191
:1007F0008B819C810F900F900F900F90DF91CF9184
:100800000C94A2194498F2CF81E0089581E00895F4
:1008100008950C9408041F93CF93DF9300D000D069
:100820000F92CDB7DEB749835A836B833091B701FE
:1008300089819A8131111DC06623B9F02223A9F064
:100840000E94411B182F682F89819A810E94EA1A01
:1008500069817A81812F0F900F900F900F900F90E8
:10086000DF91CF911F910C94460E0E94181B182FF8
:10087000EFCF0E94411B69817A81EDCFFC01262FC9
:10088000408151816281738184810C940B04CF93E8
:10089000DF93D82FC92F60E00E943E046D2F7C2F7C
:1008A000DF91CF910C9409048F929F92AF92BF92E7
:1008B000CF92DF92EF92FF920F931F93CF93DF932C
:1008C00000D000D0CDB7DEB76B017C0181E090E0B5
:1008D000A0E0B0E04C015D0104C0880C991CAA1C8A
:1008E000BB1C4A95D2F7B501A4014C015D0104C0BF
:1008F000880C991CAA1CBB1C2A95D2F74829592997
:100900006A297B2904C0880F991FAA1FBB1F0A955B
:10091000D2F78A019B010C211D212E213F210417B2
:10092000150726073707F9F49C01AD012C293D294D
:100930004E295F2929833A834B835C8369817A81BD
:100940008B819C810F900F900F900F90DF91CF9132
:100950001F910F91FF90EF90DF90CF90BF90AF90DD
:100960009F908F90089580959095A095B0954C019B
:100970005D018C209D20AE20BF2089829A82AB82AF
:10098000BC82DCCF0F93CF93DF9300D000D0CDB7E4
:10099000DEB7262F042F4091180250911902609162
:1009A0001A0270911B0249835A836B837C83482F00
:1009B00069817A818B819C810E9454040F900F90F1
:1009C0000F900F90DF91CF910F910C94A4190E947A
:1009D000991E0E94981C811102C00E943C1D0C941B
:1009E0001F080C94220808950E9499150E94F30490
:1009F0002FEF84E39CE0215080409040E1F700C05D
:100A000000000C947D1E0F931F93CF93DF93EC0196
:100A100061E00E943E048C01BE010E94350C8823D7
:100A200059F1BE01C8010E94D803882329F1BE01F3
:100A3000C8010E94860F8823F9F0BE01C8010E94F8
:100A4000DB0F8823C9F0BE01C8010E94AE108823C5
:100A500099F08A81882339F001158CE5180751F047
:100A60000E3D1C4579F0CE01DF91CF911F910F9182
:100A70000C9404040E94F40480E0DF91CF911F9154
:100A80000F9108950E943C1DF7CFDF92EF92FF92E5
:100A90000F931F93CF93DF93E82FF0E0E85BFD4FB8
:100AA000D490282F26952695269530E0F901E85117
:100AB000FD4F0491877010E0082E02C01595079530
:100AC0000A94E2F701701127F901E852FD4FE49012
:100AD000F12C082E02C0F594E7940A94E2F791E015
:100AE000E922FF24F901E853FD4FC491D0E002C090
:100AF000D595C7958A95E2F7C170DD2701151105D7
:100B000019F081EE0E944712E114F10419F086EE0B
:100B10000E9447128D2D0E94DA12EF2819F086EEFE
:100B20000E949412012B19F081EE0E949412CD2B99
:100B300051F08CE2DF91CF911F910F91FF90EF90D8
:100B4000DF900C94DA12DF91CF911F910F91FF90FB
:100B5000EF90DF900895EF92FF920F931F93CF9342
:100B6000DF93EC01162F0AE08881882309F454C032
:100B7000813009F04EC08981813099F47E0122E0F4
:100B8000E20EF11C8A810E94DA12E7012196812F80
:100B9000815050F3EFE9FFE03197F1F700C000001A
:100BA000F7CF823041F47E0182E0E80EF11C8A81A9
:100BB0000E944712EACF833041F47E01E2E0EE0E5C
:100BC000F11C8A810E949412E0CF843011F02196AA
:100BD000DDCF2A81229690E080E0AE014F5F5F4F2B
:100BE0002053330B2A30310548F0019778F2EFE9B2
:100BF000FFE03197F1F700C00000F7CF089FB00188
:100C0000099F700D1124C901860F971F2981EA01E0
:100C1000E4CF0E944505BACFDF91CF911F910F918C
:100C2000FF90EF90089560E00C94AB0508950C944C
:100C3000160681E008950C941906CF93C82F0E94E0
:100C400017068C2FCF910C941B0690E080E008953E
:100C50000895FC01EE0FFF1FE850FD4F8591949120
:100C60000895CF93DF930E94460E0E944307EC0144
:100C7000811520E5920708F04BC0811530E49307F9
:100C800008F0B2C0803E910518F5803C910508F04F
:100C90009FC0883A910570F4853A910508F095C097
:100CA0008130910529F10497813A910508F1D0E04E
:100CB000C0E01EC08F3B9105D1F3C85AD0E0CC0FE5
:100CC000DD1FC65EDE4F0990D881C02DD46410C0F0
:100CD000811540E2940780F48F3F910509F040F4BC
:100CE000883E910528F0805F9109D0654097F8F61D
:100CF000CE01DF91CF910895C11580E3D80708F4A4
:100D00006DC0CE019927D3FD6CC0EC01D06CF0CF43
:100D1000C11595E5D90760F5C11524E5D20708F09E
:100D200094C0C11533E5D30778F4C11542E5D40763
:100D300008F07AC0C11581E5D80708F458C0DC2F47
:100D4000CC27C16FD06AD4CFCE018370992721E020
:100D500030E002C0220F331F8A95E2F7C695C69590
:100D600090E2C99FE0011124C22BD32BDA68C0CFD7
:100D7000C1152AE5D207B0F4C11539E5D30708F04B
:100D800074C0C11546E5D40708F464C0CE01985577
:100D90008F3F910511F008F08ACFDC2FCC27C06F70
:100DA000D06AA6CFCE0190568115904208F07FCF31
:100DB0008D2F8F710E94DB0790E0982F882788275E
:100DC0009F719C012C2BE9014EC0A497D06490CF59
:100DD000805C91090E942906EC018ACFCE019F70A8
:100DE000F9CFEC01D86C84CFDF70D06A81CFCE010F
:100DF00074E0969587957A95E1F783702C2F269568
:100E00002695237040E2249F90011124382B8C2FCB
:100E10008370C1E0D0E002C0CC0FDD1F8A95E2F7FD
:100E2000C22BD32BDC6864CFCE018370992721E0DD
:100E300030E002C0220F331F8A95E2F7C695C695AF
:100E400080E2C89FE0011124EBCFDC2FCC27C46FD8
:100E5000D06A4ECF8C2F0E94DB07C82FD0E0DC2F4A
:100E6000CC27CC27DF71D06243CF8C2F8F700E94AC
:100E7000DB0734E0D695C7953A95E1F7CF70DC2FC4
:100E8000C82FD06935CF803E910599F1C8F48133E0
:100E9000910509F476C048F48932910509F46AC0D5
:100EA0008A32910509F474C0089589339105D1F00F
:100EB00082389105B9F08533910509F454C008953D
:100EC000843E910599F138F4823E9105F9F0833E14
:100ED000910509F10895863E910599F1873E9105A6
:100EE000B9F108952091FF022370A1F080EE90E007
:100EF00008952091FF0220FD52C03091000330FF81
:100F000009C024FF4FC090E080E004C02091FF02A0
:100F100022FDF7CF08952091FF0222FD46C03091B7
:100F2000000330FDE3CF24FFF5CFEDCF2091000388
:100F300021FFF0CF8091FF0284FDE5CF87EE90E0A6
:100F400008952091FF0223FFE5CF24FDDCCFF6CFEB
:100F50002091FF0223FD2CC03091000331FFE3CF2D
:100F600084EE90E008952091FF0225FFD3CF89E21F
:100F700090E008952091FF0225FFCCCF85E390E01B
:100F800008952091FF0226FFC5CF8AE290E00895E0
:100F90002091FF0226FFBECF81E390E0089589E310
:100FA00090E0089583EE90E0089582EE90E0089539
:100FB00086EE90E008959091FF0292FF06C0282FE0
:100FC00028712830F9F4877F846093FF06C0282FAA
:100FD00028712831F1F4877E84612091000320FF7D
:100FE00006C0382F38713830D9F4877F816021FFEF
:100FF00006C0282F28712831D1F4877E816194FDA5
:10100000877E0895282F24712430F9F68B7F88601D
:10101000DCCF282F2471243101F78B7E8861DDCF4E
:10102000382F3171313019F78E7F8860E0CF282F4B
:101030002171213121F78E7E8861E1CF08950C94D2
:101040001E0808950C942108E82FF0E0EE0FFF1F12
:10105000E151FD4F808191810895089580EA8A953C
:10106000F1F7089500C008950C942E08F894E82F25
:10107000E295EF70F0E041A18F7021E030E0B9011E
:1010800002C0660F771F8A95E2F7CB01962F9095E5
:10109000942391A392A1892B82A3789408950F930E
:1010A0001F93CF93DF9380E60E94360885E30E946A
:1010B000360884E30E94360883E30E94360882E300
:1010C0000E94360881E30E943608C8E4D1E002E5B8
:1010D00011E089910E9436080C171D07D1F7E3EE45
:1010E000F2E0AFEEB2E0119211921D921D9282E0F9
:1010F000EF3EF807C1F786E00E940809DF91CF9123
:101100001F910F910C94E704AF92BF92CF92DF92A0
:10111000EF92FF920F931F93CF93DF9302E511E0BD
:10112000C3EED2E0C12CD12CEE24E394F12CF801D3
:1011300081918F01F894E82FE295EF70F0E021A102
:101140008F70A70102C0440F551F8A95E2F7CA01AC
:10115000922F982B91A392A18095892382A37894B2
:101160000E943208E8E4F1E030E020E0B12CA12C4C
:101170004191A42FA295AF70B0E090968C9190E031
:101180004F7002C0959587954A95E2F780FD3BC068
:10119000C701022E02C0880F991F0A94E2F7A82AFD
:1011A000B92A2F5F3F4F2A30310511F7F8013197E7
:1011B00080810E94360855E0C5120E94340888815B
:1011C0009981A816B90611F1B982A88281E0D82ABE
:1011D000C394229686E0C812AACF2D2D46E06FEE6A
:1011E00072E083EE92E00E9409090E94F1048D2DC5
:1011F000DF91CF911F910F91FF90EF90DF90CF90F3
:10120000BF90AF90089590E080E0C9CF80E0DFCF3D
:101210000895FF920F931F93CF93DF93F82E092F1A
:10122000162FD72FC42F222349F081E080938A0103
:101230000E941E1E909389018093880180918A01EB
:101240008823A1F080918801909189010E944A1E13
:10125000069760F0EF2DF02FA12FBD2F90E080E0DA
:10126000D0E08C179D0744F010928A01DF91CF9156
:101270001F910F91FF900895219131912D933D93EE
:101280000196EFCF8091910180FF12C0609105011E
:1012900085E0689FB00111247595679575956795F0
:1012A00060387105A8F561157105A1F1862F0895C3
:1012B00081FF09C06091050185E0689FB00111249C
:1012C00075956795EDCF6091050182FD0AC080910B
:1012D00090018823D1F09091040160910501891754
:1012E00028F085E0689FB0011124DACF869FB00115
:1012F000112485E0869F9001879F300D1124692F6E
:1013000070E0C9010E947022CBCF65E070E0CECFC3
:101310008FE7089581E008958091910180FF0CC0CE
:101320006091010170E075956795759567956115F8
:10133000710549F1862F089581FF06C06091010172
:1013400070E075956795F3CF6091010182FD0BC048
:1013500090918F019923A1F060910001809101018A
:10136000961738F0682F70E06038710500F38FE74A
:101370000895899FC001112470E00E947022F4CF6B
:1013800061E070E0D7CF81E00895803F31F40E94A2
:1013900042098195809395010895813F19F40E9437
:1013A0004209F8CF823F31F40E944209819580932F
:1013B00094010895833F19F40E944209F8CF893FB0
:1013C00029F40E948C098093960108958A3F21F4A4
:1013D0000E948C098195F7CF8B3F31F40E948C09D4
:1013E00081958093970108958C3F19F40E948C0990
:1013F000F8CF9CE0980F953070F4845F990B21E052
:1014000030E001C0220F8A95EAF780919301822B88
:101410008093930108958D3F31F480919101816013
:101420008093910108958E3F21F480919101826013
:10143000F7CF8F3FB9F7809191018460F1CF409150
:101440009401803F59F48091950187FF0DC010925F
:10145000950141110BC01092900108C0813F81F4A9
:101460008091950118169CF3442381F08091960198
:1014700090919701892B09F05AC010928F0108951D
:10148000823F49F447FFF0CF10929401809195017B
:101490008111ECCFE0CF833F19F41416ACF3E4CF05
:1014A00090919601893F29F41916F4F6109296014D
:1014B000DBCF8A3F19F497FFD7CFF8CF90919701F0
:1014C0008B3F29F497FFD0CF10929701CDCF8C3F5F
:1014D00019F41916CCF3C8CF9CE0980F953090F40E
:1014E000845F990B21E030E0B90102C0660F771FDD
:1014F0008A95E2F7CB01809590919301892380939F
:101500009301B2CF8D3F31F4809191018E7F809312
:101510009101AACF8E3F21F4809191018D7FF7CF69
:101520008F3F09F0A1CF809191018B7FF0CF08957B
:101530000E941E1E2091940130919501232B21F0D1
:1015400080938D0190938E012091960130919701A7
:10155000232B21F080938B0190938C0182E991E001
:101560000C94F410EF92FF920F931F93CF93DF939D
:1015700000D000D000D0CDB7DEB786E0E2E9F1E0E0
:10158000DE01119601900D928A95E1F7E0909401A9
:10159000F09095010091960110919701109294019D
:1015A0001092950110929601109297018F2D8E291D
:1015B00091F080918D0190918E010E944A1E9C01B4
:1015C00080919001882309F443C0909106019217FD
:1015D000130608F44BC0802F812B91F080918B0172
:1015E00090918C010E944A1E9C0180918F0188235A
:1015F00009F47BC0909102019217130608F483C08E
:101600008091940190919501892B90919601892B5D
:1016100090919701892B11F00E94980AEB82FC822D
:101620000D831E8386E0FE013196A2E9B1E00190B0
:101630000D928A95E1F726960FB6F894DEBF0FBE9D
:10164000CDBFDF91CF911F910F91FF90EF90089543
:10165000409107019AE0499FA001112442175307C6
:1016600008F0B9CF8F5F8093900102C08F3FD1F710
:10167000EE2059F00E9442099FEF1E140CF491E0F5
:10168000899F802D112480939401FF2059F00E949E
:1016900042099FEF1F140CF491E0899F802D1124C3
:1016A0008093950130919401332309F494CF2091D4
:1016B0009501222309F48FCF45EB3403C001112497
:1016C000992359F09093940145EB24039001112440
:1016D000332339F0309395017ECF81E080939401DC
:1016E000F3CF81E08093950176CF409103019AE09A
:1016F000499FA00111244217530708F081CF8F5F43
:1017000080938F0102C08F3FD1F7002359F00E94D0
:101710008C099FEF10160CF491E0899F802D112405
:1017200080939601112359F00E948C099FEF1116A6
:101730000CF491E0899F802D1124809397013091C2
:101740009601332309F45CCF20919701222309F4F9
:1017500057CF45EB3403C0011124992359F09093DE
:10176000960145EB240390011124332339F0309383
:10177000970146CF81E080939601F3CF81E080937B
:1017800097013ECF86E0E2E9F1E0DF011D928A9504
:10179000E9F71092900110928F0110929101089533
:1017A00082E290E00E94A522813289F483E290E0F7
:1017B0000E94A522833059F484E290E00E94A52281
:1017C00091E0883109F090E0892F8170089580E0E0
:1017D000FCCFCF93C82F6FEF811161E282E290E0DE
:1017E0000E94B3226FEFC11163E083E290E00E9498
:1017F000B3226FEFC11168E184E290E0CF910C94C5
:10180000B32280E00E94E90B0C94921C0895CF93C0
:10181000DF9300D000D0CDB7DEB785E290E00E9424
:10182000A522282F30E050E040E0CA01B9010F9016
:101830000F900F900F90DF91CF91089585E290E087
:101840000C94B3220E94060C0E94D00B81110CC094
:1018500060E070E0CB010E941E0C0E94BD0D0E9452
:10186000AA0E81E00C94E90B0895CF939C01FB0133
:10187000C281CC2301F182519F45409720F58EEE25
:10188000820F0E94BA0EC0E08C2FCF91089581E0A4
:101890000E94DA1943E062E081E00E94C204F3CFC3
:1018A00081E00E940B1A43E062E081E00E94C204E2
:1018B000EBCF82E0F6CF80319F4591F321313F4558
:1018C000C1F3C1E0E1CF2031EFE53E0701F382E053
:1018D00021313F45E9F2D8CF2FEFFC012083089555
:1018E000EF92FF920F931F93CF93DF93CDB7DEB7A5
:1018F0002E970FB6F894DEBF0FBECDBF8D839E83AB
:10190000162FAD81BE81EC91E150E33108F094C017
:10191000F0E0E751FD4D0C948422ED81FE811182AF
:1019200089E08283612F8D819E812E960FB6F89477
:10193000DEBF0FBECDBFDF91CF911F910F91FF9002
:10194000EF900C940B20AD81BE8111968C9182306A
:1019500099F0833011F1813081F50E942A1E0E9496
:101960008A226F83788789879A87ED81FE816283D7
:10197000738384839583D6CF0E94070C0E948A22AA
:101980006B877C878D879E87AD81BE8112966D9314
:101990007D938D939C931597C5CFED80FE8000E0DD
:1019A000802F0E942408F701928383830F5FF2E067
:1019B000EF0EF11C0630A1F7B5CF612F8D819E810E
:1019C0000E946C0CAFCFAD81BE8111968C911197A6
:1019D000823099F712968D919D910D90BC91A02D1A
:1019E00089839A83AB83BC83BC01CD010E948A2288
:1019F0000E941E0C97CFED81FE814381628181811F
:101A00000E948F0D982789279827AD81BE81159652
:101A10009C938E93149786CFED81FE81248135812E
:101A20003227232732274381628181810E94A80DBA
:101A300079CF0E94BD0D76CF8FEFAD81BE818C93A3
:101A400071CF0E94530EED81FE8181836BCF0E9486
:101A5000550E982789279827AD81BE8112969C93B1
:101A60008E9311975FCFED81FE81638170E081815C
:101A70009281AF014C5F5F4F9827892798270E947A
:101A8000580E50CFAD81BE8113966C91139770E0C4
:101A900011968D919C911297AD014C5F5F4F9827E5
:101AA000892798270E947F0E3DCF0E94AA0E3ACF29
:101AB0000E947D0DC8CFAD81BE8113966C911397A6
:101AC00070E011968D919C911297AD014C5F5F4F24
:101AD0009827892798270E94F60D24CFED81FE8153
:101AE000638170E081819281AF014C5F5F4F9827E5
:101AF000892798270E941C0E15CF84E0089550E096
:101B0000440F551F94E1699F400D511D112498E722
:101B1000899F400D511D1124CA01869608950F9387
:101B20001F93CF93DF930E947F0D8C010E94A5220B
:101B3000C82FD0E0DC2FCC27C80101960E94A52237
:101B40009E01282BC901DF91CF911F910F9108951C
:101B50000F931F93CF93DF93122F032F0E947F0DBC
:101B6000EC01602F0E94B322612FCE010196DF911C
:101B7000CF911F910F910C94B322AF92BF92CF924D
:101B8000DF92FF920F931F93CF93DF93B12CA12C81
:101B900000E0650110E013C0FE01259134914F2D46
:101BA000612F802F0E94A80D2296F3948AE0F812EC
:101BB000F3CF8AE0C80ED11C1F5F163039F0E60162
:101BC000CC0FDD1FC859DF4FF12CE6CF0F5F8CE340
:101BD000A80EB11C0430E9F6DF91CF911F910F914F
:101BE000FF90DF90CF90BF90AF900895EF92FF925B
:101BF0000F931F93CF93DF93EC018A017C01E60ED4
:101C0000F71ECE018696CE15DF0539F4DF91CF9110
:101C10001F910F91FF90EF900895C03E21E0D207F1
:101C200040F40E94A522F80180830F5F1F4F219688
:101C3000E8CFF8011082F9CFCF92DF92EF92FF92B6
:101C40000F931F93CF93DF938C016A017C01E60E03
:101C5000F71EEC01CE018696CE15DF0549F4DF9123
:101C6000CF911F910F91FF90EF90DF90CF9008954B
:101C7000C03E21E0D20740F4FE01E01BF10BEC0D69
:101C8000FD1D60810E94B3222196E4CF462F672F6D
:101C9000843030F4763020F44A3010F40C948F0DF8
:101CA00090E080E0089580E108958AEF91E0089542
:101CB000EF92FF920F931F93CF93DF93EC018A0172
:101CC0007C01E60EF71ECE018A5F9D4FCE15DF0523
:101CD00039F4DF91CF911F910F91FF90EF9008950C
:101CE000CA3F21E0D20740F40E94A522F801808378
:101CF0000F5F1F4F2196E7CFF8011082F9CFCF92E7
:101D0000DF92EF92FF920F931F93CF93DF938C019B
:101D10006A017C01E60EF71EEC01CE018A5F9D4F41
:101D2000CE15DF0549F4DF91CF911F910F91FF9000
:101D3000EF90DF90CF900895CA3F21E0D20740F4A2
:101D4000FE01E01BF10BEC0DFD1D60810E94B32232
:101D50002196E3CFCF93DF93C6E0D2E060E0CE01DF
:101D60000E94B3222196C11584E0D807B9F7DF910C
:101D7000CF910895DF92EF92FF920F931F93CF932D
:101D8000DF9300D000D0CDB7DEB7F82E8FE08F15EF
:101D900040F08FEF93E00E94A52206E012E0882336
:101DA000C1F00F900F900F900F90DF91CF911F9186
:101DB0000F91FF90EF90DF900895011584E01807D0
:101DC00081F3C8010E94A522811101C0FA940F5F1E
:101DD0001F4FF110F2CF8091160190911701A09141
:101DE0001801B091190189839A83AB83BC83DD24E8
:101DF000D39478018FEFE81AF80AC8010E94A5224F
:101E000089831A82882369F29FEF980F933080F4B8
:101E10008A83D9820E5F1F4FC7010E94A5228B8340
:101E2000882309F4BECFCE0101960E941306E1CFAC
:101E30008701F9CF0F931F93CF93DF93C42FD22F36
:101E4000FC0182818823C9F040939A010E941E1EE2
:101E5000909399018093980180E28C0F883008F06C
:101E600050C0C77081E001C0880FCA95EAF7DF91C2
:101E7000CF911F910F910C94E21210919A011413BB
:101E800035C080919801909199010E944A1E883C2A
:101E9000910560F5C0E2CD0F1D17B9F080E2810F0A
:101EA000883040F4177081E001C0880F1A95EAF776
:101EB0000E94E912C83048F481E09D2F977001C05C
:101EC000880F9A95EAF70E94E212802F0E94DA1298
:101ED000C830B8F4D77081E001C0880FDA95EAF70E
:101EE000DF91CF911F910F910C94E91280E28C0F3A
:101EF000883038F4C77081E001C0880FCA95EAF7CE
:101F0000EFCFDF91CF911F910F9108950F939C0117
:101F1000CB01233F4CE53407A1F190F4283DFCE5CB
:101F20003F0749F1293D4CE53407E9F1273D3C45A0
:101F3000C1F0FC0182818823E1F110929A0119C05D
:101F4000253FFCE53F0719F1263F4CE5340729F111
:101F5000243F3C4571F707E225EE44EE64EF7CE553
:101F600005C006E221EE41EE67ED7CE50E941A0F06
:101F700080E00F91089507E225EE45EE68ED7CE5DF
:101F8000F5CF06E221EE40EE63EF7CE5EFCF06E20F
:101F900021EE42EE65EF7CE5E9CF07E225EE46EE65
:101FA00066EF7CE5E3CF08E221E045EE69ED7CE5F4
:101FB000DDCF81E0DECFCF93DF93EC01FB018281A7
:101FC000882309F4C9C0C631FCE5DF07E0F4C2305C
:101FD0009CE5D907F0F00E94AB1C9093000380931E
:101FE000FF02C631ECE5DE0720F5C230FCE5DF0775
:101FF00098F48091FF02909100030E94B91C0E9406
:10200000991580E006C09E012A5F3C4529303105C4
:1020100010F3DF91CF910895FE01E350FC458091CC
:10202000FF028160E331F10588F4E450FD4D0C942A
:102030008422CA5FDC45C930D105D8F6C15FDC4DCA
:10204000FE010C9484228091FF0282608093FF0243
:10205000D0CF8091FF028460F9CF8091FF02886029
:10206000F5CF80910003816080930003C2CF8091FF
:1020700000038260F9CF8091FF028061E7CF8091F9
:10208000FF028062E3CF8091FF028064DFCF0E9475
:1020900099158091FF028068D9CF8091FF028C60F2
:1020A000D5CF809100038360DFCF8091FF028E7FC8
:1020B000CDCF8091FF028D7FC9CF8091FF028B7FB2
:1020C000C5CF8091FF02877FC1CF809100038E7FB3
:1020D000CBCF809100038D7FC7CF8091FF028F7E91
:1020E000B5CF8091FF028F7DB1CF8091FF028F7BB2
:1020F000ADCF0E9499158091FF028F77A7CF809175
:10210000FF02837FA3CF809100038C7FADCF8091AE
:10211000FF0282FB992790F921E0922790FB82F938
:1021200090FB83F993CF80910003982F9095917045
:102130008E7F892B90FB81F997CF0E949915909102
:10214000FF02892F97FB87F9805880CF81E00E949A
:102150003E1D4FCF80E0FBCF81E05BCFCF93DF937D
:10216000EB0186319C4511F50E94DE1B9A81992373
:1021700099F08A7A91E009F490E090939B018111A3
:1021800009C089E20E94B91B0E942D1C80E0DF91EA
:10219000CF91089585E3F6CF80919B01811104C012
:1021A00089E20E94C01BF0CF85E3FBCF81E0EFCF37
:1021B0009093A1018093A0010895E091A001F09176
:1021C000A101309721F00190F081E02D099480E089
:1021D0000895E091A001F091A101309721F00280D3
:1021E000F381E02D09940895DC01E091A001F091C4
:1021F000A101309739F082E08C930480F581E02DC5
:10220000CD010994089520919E0130919F012817D6
:10221000390771F090939F0180939E01E091A00196
:10222000F091A101309721F00680F781E02D09940B
:10223000089520919C0130919D012817390771F074
:1022400090939D0180939C01E091A001F091A101E8
:10225000309721F00084F185E02D099408950E94C3
:102260002A1E6093B3017093B4018093B5019093DB
:10227000B6016093AF017093B0018093B101909368
:10228000B2010895089508950C94421108950C9494
:10229000461180E99CE10E94921E0E9443110C9419
:1022A000441181E008950C945111089508950E94FD
:1022B000151E0E944F080E94220C0E94AD1E0C9415
:1022C00047118F929F92AF92BF92CF92DF92EF927F
:1022D000FF920F931F93CF93DF9300D000D00F9204
:1022E000CDB7DEB70E9455110E9456110E94840896
:1022F00081110E942F1153EA852E51E0952E10E096
:1023000000E0A02E802F0E9424087C01F401C190DF
:10231000D1904F01C816D90609F45BC080912D02F7
:1023200081FD0E942D08C6018E259F25B12CCC244D
:10233000C394D12C9C012C213D21232B09F443C0B3
:102340000E9453118823A9F0B982AA82EC20FD20B3
:1023500081E0EF2809F480E08B830E941E1E8160DB
:10236000782F9D838C8349815A816B818D810E9456
:102370001212000F111FF801ED55FE4F808191815F
:10238000C826D926D182C0820E94B20A0E94DD10DE
:102390009091A2018917A1F10E94DD108093A20102
:1023A0000F900F900F900F900F90DF91CF911F9192
:1023B0000F91FF90EF90DF90CF90BF90AF909F90E4
:1023C0008F900C941D06B394CC0CDD1CFAE0BF1268
:1023D000B1CF0F5F1F4F0630110509F092CF8FEF7D
:1023E00089838A831B820E941E1E8160782F9D83B1
:1023F0008C8349815A816B818D810E941212C4CFD6
:102400000F900F900F900F900F90DF91CF911F9131
:102410000F91FF90EF90DF90CF90BF90AF909F9083
:102420008F900895DF92EF92FF920F931F93CF93B7
:10243000DF93CDB7DEB72B970FB6F894DEBF0FBE94
:10244000CDBF7A878B87F42E052F162FE72ED82E37
:1024500061110E94001C7E2DEC82DD824F2D502FD9
:10246000612F8D2D90E02B960FB6F894DEBF0FBE36
:10247000CDBFDF91CF911F910F91FF90EF90DF9033
:102480000C94FC17FC01808191810C94831BCF93E9
:10249000C82F882309F446C08CEF8C0F813AA0F432
:1024A0006C2F80910801909109010E94551D88238D
:1024B00029F08C2F0E94C01B0E942D1C8C2F0E9483
:1024C000B91BCF910C942D1C80E28C0F883048F4FE
:1024D000C77081E001C0880FCA95EAF70E94E11B2E
:1024E000F0CF8BE58C0F833038F42C2F2452330B34
:1024F000C901CF910C940311E8E5EC0FE73150F4DA
:10250000F0E0EE0FFF1FE85AFE4F80819181CF91DE
:102510000C941911C03F30F08C2F0E94C509CF9147
:102520000C94980ACF910895882361F19CEF980F3D
:10253000913A20F40E94C01B0C942D1C90E2980F3D
:10254000983050F4877091E001C0990F8A95EAF7AE
:10255000892F0E94E71BF0CF9BE5980F933020F462
:1025600090E080E00C94031198E5980F973120F4E7
:1025700090E080E00C941911803F20F00E941F0A27
:102580000C94980A08951F93CF93DF93182FEB01B3
:102590000E944712209731F4812FDF91CF911F9134
:1025A0000C9494128FE99FE00197F1F700C00000AE
:1025B0002197F0CF70E060E0893311F460E570E0BE
:1025C0000C94C312882321F00E94E11B0C942D1C53
:1025D0000895882321F00E94E71B0C942D1C089578
:1025E000AF92BF92CF92DF92EF92FF920F931F9321
:1025F000CF93DF9300D000D00F92CDB7DEB76C0140
:102600006D837983FC011281058102950F700E9410
:10261000D71BE82E8823A1F0E12E112389F08981B0
:10262000807F803429F08D81805EE12C883040F0FD
:1026300082E00E94781C0E94D71B91E0E82EE926D8
:10264000A980A2949FE0A922B12CF501E85EFC4D7F
:102650000C94842209810F70F981F07F11F00295AA
:10266000007F1123B1F0002361F08D81805E8830FE
:1026700018F02D81211109C0802F0E94E11B0E94BA
:102680002D1C8D810E94471215C0802F0E94F21BC5
:10269000F6CF8D810E949412002361F08D81805EBF
:1026A000883018F04D81411133C0802F0E94E71B04
:1026B0000E942D1C58E0A51AB10864E0A616B104CA
:1026C00020F40E94DD100E941D06EE2009F4CCC10A
:1026D0000E94D31B80FDC8C1F60112820E94CD1B4F
:1026E0000E94DA19C6010E945B150E94CD1B0F9053
:1026F0000F900F900F900F90DF91CF911F910F913E
:10270000FF90EF90DF90CF90BF90AF900C940B1A9A
:10271000802F0E94F81BCCCF59815F70F52E698104
:10272000607F603219F0F29480EFF8227D81772388
:1027300069F0713049F1112391F1002351F1F60153
:10274000858180FF9ECF8F70858323C0112381F008
:10275000011106C00E94141C8F290E94E212AACF08
:102760000130C1F70E94141C8F290E941A1CA2CFAD
:10277000011106C00E94231C8F2D0E94E9129ACFDE
:10278000013009F497CFF6CF112329F0063008F075
:1027900091CF8F2DE2CF053008F08CCFEDCF002305
:1027A00059F3FD81F93349F42FEF47EE53E02150FF
:1027B00040405040E1F700C000008D810E9494121B
:1027C00079CF898186958695837069F0813009F08B
:1027D00071CF8D8199819370111102C090E080E0DA
:1027E0000E94191167CF8D8199819370111102C0D8
:1027F00090E080E00E9403115DCF8D81112329F0CC
:102800000E94C5090E94980A55CF0E941F0AFACF5C
:102810008981837009F050C011114CCF4D814295D0
:1028200046954770440F440F8D818F7090E0B0E063
:10283000A0E0042E04C0880F991FAA1FBB1F0A9492
:10284000D2F76D8100E010E0980164FF0FC00FE047
:1028500010E020E030E004C0000F111F221F331FE2
:102860004A95D2F700951095209530957981769507
:10287000769573707D83B901A801482B592B6A2B7B
:102880007B2B49835A836B837C835D8169817A8149
:102890008B819C81523051F0533059F0513019F0F6
:1028A0000E94521907CF0E942A1904CF0E947A1958
:1028B00001CF0E942819FECE8695112311F089813F
:1028C0008170882309F4F6CE4D8142954695477074
:1028D000440F440F8D818F7090E0B0E0A0E0042E93
:1028E00004C0880F991FAA1FBB1F0A94D2F76D81DD
:1028F00000E010E0980164FF0FC00FE010E020E05E
:1029000030E004C0000F111F221F331F4A95D2F779
:102910000095109520953095798176957695737010
:102920007D83B901A801482B592B6A2B7B2B498346
:102930005A836B837C835D8169817A818B819C81E1
:10294000523051F0533059F0513019F00E94991A19
:10295000B1CE0E94711AAECE0E94C11AABCE0E94B7
:10296000A419A8CE69816F706983112329F0862F7D
:102970000E94DA198D81F1CE8D810E94E912898140
:102980000E940B1A97CE7D81723FA1F160F4703FD7
:10299000E1F0713F41F1112309F445C0011171CEFD
:1029A00089818F7124C08D81833F49F1843F99F7DC
:1029B000112379F199819F719983892F0E94DA19E6
:1029C00063E089810E94631C75CE112341F00530BC
:1029D00008F070CE89818F710E94401A6BCE06304C
:1029E00008F068CEF7CF89818F71112349F20E94D8
:1029F000DA1960CE89818F711123C9F3C1CF1123F8
:102A000029F089818F710E94B51954CE0E94B019A6
:102A100051CE81E00E94781C023008F44BCE82E057
:102A20000E94781C47CE002361F0ED81E93309F064
:102A3000C4CEFFEF27EE43E0F15020404040E1F7E5
:102A4000BACE89818F719CCF49814F706D81C6014B
:102A50000E9425060E949C182DCE49814F706D81E1
:102A6000C6010E94280626CE0F900F900F900F905F
:102A70000F90DF91CF911F910F91FF90EF90DF901A
:102A8000CF90BF90AF9008950F931F93CF93DF9394
:102A9000EC01688179818A810E948F1B8C010E94E0
:102AA000E91A0E942719B801CE01DF91CF911F9139
:102AB0000F910C94F012CF93DF93EC018B819C81EA
:102AC000892B29F08881998189238F3F59F4DF91DF
:102AD000CF910895CE010E944415CE01DF91CF9190
:102AE0000C944704CE010E9403058111F3CF0E948C
:102AF000D71B882361F38A81882349F382E0DF9121
:102B0000CF910C94781C90E080E00E94031190E03B
:102B100080E00E9419110E94001C0E94111C0E945A
:102B20002D1C0E94C20B0C94980A0E94C71B0C9487
:102B300083150E94EF1B0C949515282F892F8295E1
:102B40008F70903C80F48A30B0F4843020F482306E
:102B500090F480E008958630E1F781E0283E88F027
:102B6000213FB9F70EC08C3011F08F3091F793FBF5
:102B7000882780F9089581E0203F39F018F4283E35
:102B800040F70895243F29F7FCCF08950E94831B46
:102B90000C949D15CF93DF9300D000D00F92CDB74A
:102BA000DEB70F900F900F900F900F90DF91CF91A5
:102BB0000895CF93DF9300D000D000D0CDB7DEB71B
:102BC00026960FB6F894DEBF0FBECDBFDF91CF9132
:102BD00008951F93CF93DF93E091B80116E08091A1
:102BE000B9018E1304C0DF91CF911F910895CE2FAC
:102BF000D0E01E9FF0011124E654FE4F4081518128
:102C000062817381848195810E94D915FE0131967C
:102C1000E770E5CF4091EA015091EB016091EC0142
:102C20007091ED018091EE019091EF010C94D91516
:102C30001F93CF93DF938091EF01807FA9F4809160
:102C4000EC01882389F08091B801C091B9016091AD
:102C5000EA017091EB01A091ED01B091EE01D62F48
:102C6000D72316E0C81304C0DF91CF911F910895B8
:102C700090E0109711F0DF3F19F401968770F2CFC2
:102C8000189F9001199F300D1124F901E654FE4F51
:102C900041814713F2CF40814613EFCF428141116A
:102CA000ECCF438154814A1B5B0B483C510528F70C
:102CB0008091EF018F7080618093EF01F901E15401
:102CC000FE4F80818F70806180838AEE91E00E9448
:102CD0005B15DF91CF911F910C94E915AF92BF92D4
:102CE000CF92DF92EF92FF920F931F93CF93DF93D8
:102CF000CDB7DEB72B970FB6F894DEBF0FBECDBFB2
:102D00008C0185E0F801DE01179601900D928A95FD
:102D1000E1F7F80140815181E2808AEEC82E81E01E
:102D2000D82E6091ED017091EE016115710509F4E5
:102D300044C19091EA012091EB01822F89238F3FBA
:102D400009F43BC1A380B480F090EC01F501E61BCF
:102D5000F70BFF2009F4E0C08091EF01382F307F9E
:102D6000E83CF10508F0B2C0311179C0FE2C251302
:102D700023C0941321C0E1101FC08F708061809325
:102D8000EF010E940A16C6010E945B158091EF01B7
:102D9000F80185838F2D2B960FB6F894DEBF0FBEFA
:102DA000CDBFDF91CF911F910F91FF90EF90DF90FA
:102DB000CF90BF90AF900895AB2829F0842F852342
:102DC0008F3F09F016C180E0F82FF170DF2EE091FF
:102DD000B8012091B90136E080FD1CC0EE20D1F28F
:102DE0008091EF0181608093EF01F12CD3CF8E2F82
:102DF00090E03E9FF0011124E654FE4F618165137F
:102E000006C06081641303C06281E612E7CFFC0153
:102E10003196E770E213EBCF4F8358878F81988507
:102E20000E94831B292F22952F70903260F0225F21
:102E30002F70223078F49F7051F0F8019581907FC7
:102E400031F4D12C0AC09F7011F08823D1F3805E39
:102E50008830B8F3C8010E945B15FD2C9BCF251369
:102E600006C0941304C0F801EE2009F470C04F832B
:102E700058878F8198850E94C615882319F1EE2006
:102E800009F18091EF01803270F02091EA013091D8
:102E9000EB013A8329831B82BD82AC828E83CE01F3
:102EA00001960E945B1586E0F801AAEEB1E0019060
:102EB0000D928A95E1F70E9418160E940A16FF24C7
:102EC000F39468CFC8010E945B15F9CF311113C08C
:102ED0007A2DBB86AA866E2D8B850E94CA158AEE36
:102EE00091E00E945B1586E0F60111928A95E9F760
:102EF0000E940A167ACF2513BACF9413B8CFE110E7
:102F0000B6CFF8018583C8010E945B1586E0F60103
:102F100011928A95E9F73ECFE83CF10508F040C0F0
:102F2000FE2CEE2079F225132AC0941328C080913C
:102F3000EF0180FD1BC0982F907FC1F0F8018583C1
:102F4000903F31F0982F907F905F8F70892B858311
:102F5000C8010E945B1586E0F801AAEEB1E001907D
:102F60000D928A95E1F70E940A1614CF86E0F801C7
:102F7000AAEEB1E001900D928A95E1F70BCF4F8355
:102F800058878F8198850E94C61581118CCF8091BA
:102F9000EF0181608093EF01C8010E945B15FACEBA
:102FA0007A2DBB86AA866E2D8B850E94CA1586E077
:102FB000F60111928A95E9F7D6CFEE2009F482CF77
:102FC0004F8358878F8198850E94C615F82E8823D5
:102FD00009F478CF86E0F801AAEEB1E001900D92F5
:102FE0008A95E1F78AEE91E00E9442120E9418163B
:102FF000BACF81E08E25E8CE1F93CF93DF93CDB774
:10300000DEB72C970FB6F894DEBF0FBECDBF4F834F
:10301000588769877A878B879C87CE0107960E949D
:103020006E16882369F08A859B85892B39F04F813C
:103030005885842F85238F3F09F077C016E065C03F
:1030400086E0FE013796DE01119601900D928A9579
:10305000E1F76A857B856115710581F35F8148859C
:10306000842F85238F3F51F32091B90130E0C901AE
:10307000019687709927E091B801E817190671F455
:103080000E9499151092B9011092B80186E0EAEEFB
:10309000F1E0DF011D928A95E9F7D0CF59834A8389
:1030A0007D836C8396E0929FD001939FB00D112495
:1030B000A654BE4FFE01319601900D929A95E1F70C
:1030C0008093B9010E94E915B9CF819FC0011124F5
:1030D00086549E4F0E946E168823E9F0E091B80155
:1030E0001E9FF0011124E654FE4F40815181628100
:1030F0007381848195810E94D9158091B80190E0F7
:103100000196877099278093B8018091B8019091BA
:10311000B9018913DACF2C960FB6F894DEBF0FBE33
:10312000CDBFDF91CF911F91089569857A858B85F9
:103130009C850E94D91582CFEF92FF920F931F9327
:10314000CF93DF938C01892B89F0F12CEE24E3944B
:10315000E8012196F8018491843709F457C0A0F45E
:10316000823009F43EC048F48130D1F0DF91CF9134
:103170001F910F91FF90EF9008959CEF980F90375B
:10318000A8F70E9447120AC0853709F44CC09CE793
:10319000980F903758F78F770E9494128E0116C0BF
:1031A0000E5F1F4FFE01849190E2980F983060F4FB
:1031B0008770FE2D01C0FF0F8A95EAF78F2F0E94BE
:1031C000031C0E942D1C02C00E9447128F2D8150AB
:1031D00008F4BECFEFE9FFE03197F1F700C000003F
:1031E000F6CF0E5F1F4FFE01849190E2980F98304A
:1031F00050F48770FE2D01C0FF0F8A95EAF78F2FDC
:103200000E94091CDECF0E949412E0CF0E5F1F4F78
:10321000FE01C491C150D0F28FE99FE00197F1F710
:1032200000C00000F7CF0E5F1F4FFE01F490CECF1D
:1032300008950C9418190E94191960931C02709338
:103240001D0280931E0290931F020C948315089513
:103250000C941B19CF93DF9300D000D0CDB7DEB70D
:1032600069837A838B839C8380911C0290911D02D9
:10327000A0911E02B0911F0229813A814B815C818D
:10328000282B392B4A2B5B2B29833A834B835C8376
:10329000CA01B9010F900F900F900F90DF91CF915D
:1032A0000C941B19CF93DF9300D000D0CDB7DEB7BD
:1032B00069837A838B839C8380911C0290911D0289
:1032C000A0911E02B0911F0229813A814B815C813D
:1032D000282339234A235B2329833A834B835C8346
:1032E000CA01B9010F900F900F900F90DF91CF910D
:1032F0000C941B19CF93DF9300D000D0CDB7DEB76D
:1033000069837A838B839C8380911C0290911D0238
:10331000A0911E02B0911F0229813A814B815C81EC
:10332000282739274A275B2729833A834B835C83E5
:10333000CA01B9010F900F900F900F90DF91CF91BC
:103340000C941B190C9418190E94E2036093180244
:103350007093190280931A0290931B020C948315A8
:1033600060E070E0CB010C94A4190F931F93CF93EE
:10337000DF9300D000D0CDB7DEB741E050E060E091
:1033800070E08A019B0104C0000F111F221F331F30
:103390008A95D2F709831A832B833C83C901B8012C
:1033A0000F900F900F900F90DF91CF911F910F9181
:1033B0000C94A4190F931F93CF93DF9300D000D0E8
:1033C000CDB7DEB741E050E060E070E004C0440FEC
:1033D000551F661F771F8A95D2F78091180290912A
:1033E0001902A0911A02B0911B028A019B01082BBD
:1033F000192B2A2B3B2B09831A832B833C83C9016E
:10340000B8010F900F900F900F90DF91CF911F9107
:103410000F910C94A4190F931F93CF93DF9300D0B7
:1034200000D0CDB7DEB741E050E060E070E004C00E
:10343000440F551F661F771F8A95D2F74095509508
:10344000609570958091180290911902A0911A02CE
:10345000B0911B028A019B01082319232A233B23D5
:1034600009831A832B833C83C901B8010F900F9005
:103470000F900F90DF91CF911F910F910C94A41991
:103480000F931F93CF93DF9300D000D0CDB7DEB75B
:1034900041E050E060E070E004C0440F551F661F3B
:1034A000771F8A95D2F78091180290911902A09106
:1034B0001A02B0911B028A019B01082719272A27AB
:1034C0003B2709831A832B833C83C901B8010F90E2
:1034D0000F900F900F90DF91CF911F910F910C944F
:1034E000A419CF93DF9300D000D0CDB7DEB76983A6
:1034F0007A838B839C838091180290911902A0910A
:103500001A02B0911B0229813A814B815C81282BE0
:10351000392B4A2B5B2B29833A834B835C83CA016B
:10352000B9010F900F900F900F90DF91CF910C94F5
:10353000A419CF93DF9300D000D0CDB7DEB7698355
:103540007A838B839C838091180290911902A091B9
:103550001A02B0911B0229813A814B815C81282398
:1035600039234A235B2329833A834B835C83CA0133
:10357000B9010F900F900F900F90DF91CF910C94A5
:10358000A419CF93DF9300D000D0CDB7DEB7698305
:103590007A838B839C838091180290911902A09169
:1035A0001A02B0911B0229813A814B815C81282744
:1035B00039274A275B2729833A834B835C83CA01D7
:1035C000B9010F900F900F900F90DF91CF910C9455
:1035D000A4190895E82F2AE0929FE00D11248E2F60
:1035E000877041E001C0440F8A95EAF7E695E695B9
:1035F000E69585E0E89FF0011124E051FE4F30E0B0
:1036000020E070E05191DF011197CB01022E02C042
:10361000969587950A94E2F7817081958527842392
:1036200085278C932F5F3F4F2530310559F708953B
:10363000E82F2AE0929FE00D11249E2F9770E695C7
:10364000E695E69585E0E89FF0011124E051FE4FF4
:1036500050E040E080E0219130E0092E02C0369534
:1036600027950A94E2F721703327042E01C0220F18
:103670000A94EAF7822B4F5F5F4F4530510559F7A7
:103680000895BF92CF92DF92EF92FF920F931F9314
:10369000CF93DF938C01C0901802D0901902E09074
:1036A0001A02F0901B0280911C0290911D02A091C1
:1036B0001E02B0911F02C82AD92AEA2AFB2ACFE1AA
:1036C000D0E0BC2ED701C6010C2E04C0B695A7953C
:1036D000979587950A94D2F780FD0EC0219788F7B9
:1036E000B12C8B2DDF91CF911F910F91FF90EF9017
:1036F000DF90CF90BF900895B8018C2F0E943106C3
:10370000019761F3EECFCF93DF93D82FC92F0E949B
:10371000411B6D2F7C2FDF91CF910C9431061F93AD
:10372000CF93DF93162FD72F9091B701992339F0BC
:10373000862F972FDF91CF911F910C94831B8823A5
:1037400091F0862F972F0E94411BC82F682F812F41
:103750009D2F0E94EA1A612F7D2F8C2FDF91CF9130
:103760001F910C943106862F972F0E94181BC82F8B
:10377000F2CF682F80910801909109010C948F1D60
:10378000682F80910801909109010C94911D8091FE
:103790000801909109010C94931D80912002859558
:1037A0008595859508958091200287700895909160
:1037B0002002977081E009F480E0089580912C0246
:1037C000089590912C02982B90932C020895982F95
:1037D000909580912C02892380932C020895109259
:1037E0002C02089590912B02982B90932B02089510
:1037F000982F909580912B02892380932B02089516
:1038000010922B02089590912A02982B90932A02ED
:103810000895982F909580912A02892380932A02F7
:10382000089510922A020895809121020895089522
:103830000C94171C90912102981721F0809321027B
:103840000C94181C089580912102882329F010926D
:10385000210280E00C94181C0895E0910801F09179
:10386000090180912C028083E0910801F091090107
:10387000808190912B02892B8083E0910801F09147
:103880000901808190912A02892B808390912102E5
:10389000992381F0E0910801F09109018081892B41
:1038A000808380910801909109010E94431D81113C
:1038B0000E94231C80910801909109010C94E91049
:1038C00008950C94601C98E0899F90011124622B4C
:1038D000609320020E94DA198091200285958595D7
:1038E00085950C94611C1092200280E00C94611C60
:1038F000909120028095892380932002282F2770A1
:1039000071F4282F082E000C330B9217130639F090
:103910008595859585950E940B1A0C94731C0895C6
:1039200080E008956FEF7FEF90E080E00C94D1226B
:1039300090E080E00E94AD229C0181E02B3E3E4F52
:1039400009F080E0089582E090E00C94A52283E0E5
:1039500090E00C94A522CF9384E090E00E94A522F1
:10396000C82F81E290E00E94A522982F8C2FCF9142
:103970000895CF93682FC92F84E090E00E94B3226E
:103980006C2F81E290E0CF910C94B322AB01BC018B
:103990008FE090E00C94C522AB01BC0183E190E084
:1039A0000C94C52260E070E0CB010C94CC1C60E06C
:1039B00070E0CB010E94C61C0C94D21C6BEE7EEF13
:1039C00090E080E00E94D12260E082E090E00E94DE
:1039D000B32260E083E090E00E94B32210921C02C8
:1039E00010921D0210921E0210921F0260E084E0ED
:1039F00090E00E94B32260E081E290E00E94B32256
:103A000060E085E090E00E94B32260E086E090E014
:103A10000E94B3226FEF87E090E00E94B32240E063
:103A200050E0BA0188E090E00E94C52260E08DE09D
:103A300090E00E94B32240E050E0BA0188E190E0BB
:103A40000E94C52260E087E190E00E94B32240E03E
:103A500050E0BA018CE190E00E94C52260E080E273
:103A600090E00E94B32240E050E0BA0188E190E08B
:103A70000E94C5220C94D71C0C94DE1C682F8EE08B
:103A800090E00C94B322AC019C012E5F3F4F485F45
:103A90005F4F80E02417350709F40895F9019191EB
:103AA0009F019923B9F38F5FF5CF9C01662351F0F5
:103AB000FC013296285F3F4F8191861729F0E2176B
:103AC000F307D1F780E0089581E008959C01FC019F
:103AD00032968FEF90E04191461751F08F3F19F4E5
:103AE000411101C0892F9F5F9630A9F78F3F09F4DC
:103AF0000895280F311D87FD3A95F90162830895D5
:103B00009C01FC013296285F3F4F8191861303C0D0
:103B1000DF0111971C92E217F307B9F708950C948F
:103B2000661D0C94801DFC01329686E0DF011D921B
:103B30008A95E9F70895089508950C949C1D809145
:103B40002F02882349F10E949D1D80E00E941D06DE
:103B500010922E0288E190E020E40FB6F894A89528
:103B6000809360000FBE2093600083B7817F8460E4
:103B700083BF83B7816083BF7894889583B78E7F36
:103B800083BF0FB6F894A8958091600088618093F8
:103B90006000109260000FBE08950895CF930E94B8
:103BA0009B1D0E9484080E94CD1DC0E08C2F0E94A6
:103BB0002408892B31F4CF5FC630C1F780E0CF9164
:103BC000089581E0FCCF08950C94E31D0E9499159F
:103BD0000E94DD100E941D060C94E41D1F921FB66A
:103BE0001F9211248F939F93AF93BF9380912E02C6
:103BF000811113C08091FB029091FC02A091FD0203
:103C0000B091FE024196A11DB11D8093FB029093DD
:103C1000FC02A093FD02B093FE02BF91AF919F9171
:103C20008F911F901FBE1F90189582E084BD93E076
:103C300095BD9AEF97BD80936E0008952FB7F894C5
:103C40008091FB029091FC02A091FD02B091FE02D6
:103C50002FBF0895CF93DF9300D000D0CDB7DEB74C
:103C60008FB7F8942091FB023091FC024091FD0245
:103C70005091FE0229833A834B835C838FBF698115
:103C80007A818B819C810F900F900F900F90DF9124
:103C9000CF9108959C014FB7F8948091FB029091C9
:103CA000FC02A091FD02B091FE024FBF821B930B5C
:103CB000089578941F921FB61F9211248F939F939B
:103CC000AF93BF938091FB029091FC02A091FD0203
:103CD000B091FE020196A11DB11D8093FB0290934D
:103CE000FC02A093FD02B093FE02BF91AF919F91A1
:103CF0008F911F901FBE1F90189588E198E00FB616
:103D0000F894A895809360000FBE90936000A895EA
:103D1000F894D8E0CEEF28E3299320E0299314BE4D
:103D2000FFCF0895909387018093860108950C94A6
:103D3000010C0E9484088FE39CE90197F1F700C011
:103D400000000E94840880E00E94240880FF04C0D4
:103D50000E94971E0C947D1E0895CF93DF9300D090
:103D600000D0CDB7DEB70E94981C811102C00E941E
:103D70003C1D0E94A31C80932D020E94AB1C9093BB
:103D800000038093FF020E94A71C282F30E050E020
:103D900040E0CA01B9010E9428198091180290914F
:103DA0001902A0911A02B0911B0289839A83AB83F6
:103DB000BC83BC01CD010F900F900F900F90DF914D
:103DC000CF910C94E2030E941E1EEC0180E890E06B
:103DD0000FB6F89480936100909361000FBE0E942B
:103DE00049110E945522539A80E0815009F047C042
:103DF000539878940E9457110E9445200E94D81031
:103E0000FFEF20E732E0F15020403040E1F700C002
:103E1000000001E01CE0809128038823C1F110928A
:103E200028030E941E1EEC0180912F02882321F09E
:103E300010922F020E94E61D80912F028823A9F183
:103E40000E949F1D0E94CE1D882329F3F8949AB1E9
:103E50005B9A892F8C608AB98BB181278BB98FE7E8
:103E6000E8E3F1E08150E040F040E1F700C00000FD
:103E70008BB181278BB99AB95B987894CCCFA895F0
:103E8000EFE9FFE03197F1F700C00000AECF80917D
:103E90002F028111D1CFCE010E944A1E069760F2F7
:103EA00000932F020E949F1DC7CF0E945D21809129
:103EB0002E03882329F080910C0384FD0E94611158
:103EC0000E94AF1F0E945D2180912E03882329F05C
:103ED0008091450384FD0E9439200E9455110E9463
:103EE000561199CF8091E2020895CF93DF9300D0CD
:103EF0000F92CDB7DEB79B0190913202981307C0A5
:103F000040913002509131024617570791F080934B
:103F10003202309331022093300289833B832A831B
:103F20008091450384FF05C063E0CE0101960E94A5
:103F300055210F900F900F90DF91CF910895BC0104
:103F400084E00C94751FBC0183E00C94751F2091D4
:103F5000450324FF03C066E00C9455210895CF93D8
:103F6000DF93CAE0D0E080910C0384FF1AC08091F7
:103F70005F0290916002981789F028E0829FC0014B
:103F8000112468E08F599D4F0E94512180915F025A
:103F900090E001968F70992780935F02DF91CF9117
:103FA00008950E945D218FE99FE00197F1F700C01D
:103FB00000002197C1F6F2CFCF93DF93D82FC92FFE
:103FC000A0916002B0E0CD0101968F7099272091F9
:103FD0005F02281781F093E0AA0FBB1F9A95E1F7C3
:103FE000AF59BD4F98E0ED2FFC2F01900D929A959F
:103FF000E1F7809360020E945D210E94AF1F88E07C
:10400000ED2FFC2FA7E5B2E001900D928A95E1F724
:10401000DF91CF9108950F931F93CF93DF93EC011E
:10402000603211F58C01005E1F4F02C00E945D21BD
:104030008091180384FFFACF68E0CE010E945921D5
:104040002896C017D107A1F78091180384FF09C0F3
:1040500060E090E080E0DF91CF911F910F910C9490
:1040600059210E945D21F0CFDF91CF911F910F91D7
:10407000089580913602803239F460E287E392E05D
:104080000E94700C1092360208958AE091E0089523
:10409000FC01808180768032F1F48181813061F48D
:1040A00084819581892BB9F487E592E090932A0366
:1040B0008093290388E00895823041F481EE92E0F4
:1040C00090932A038093290381E008958A3029F48C
:1040D00083818093E10280E008958930E1F7828155
:1040E00093818115924069F484819581892B49F4EB
:1040F00081E080933502868197819093340280938A
:1041000033028FEF0895FC018091330290913402C5
:10411000892B61F080913502813041F49081909338
:10412000E202109234021092330208958FEF089544
:10413000683019F010923602089520913602293124
:10414000C8F7FC01A22FB0E0A95CBD4F08963191E1
:104150003D93E817F907D9F7285F209336020895B1
:10416000FC018381833081F130F48130E9F08230C9
:1041700019F180E00895813209F445C08232C9F70F
:10418000248135812130310509F452C022303105B6
:1041900009F455C0232B69F78AE294E090932A032F
:1041A0008093290380E4089583E593E090932A03A4
:1041B0008093290382E1089588EF92E090932A0387
:1041C000809329038BE508958281813061F08230EC
:1041D00091F08111CECF89E893E090932A038093E8
:1041E000290384E008958DE793E090932A03809358
:1041F00029038AE0089585E693E090932A0380934B
:10420000290386E108958281813061F0823069F06E
:104210008111AFCF8AE093E090932A038093290322
:1042200089E0089583E293E0F7CF83E493E0F4CF4D
:104230002DE833E030932A032093290308958FEA71
:1042400093E090932A03809329038BE708951F93AB
:10425000CF93DF93782F162FEA01888184FF1EC049
:10426000898128E882278983AE014E5F5F4FFA017A
:10427000272F392F710FD9012F5F3F4F8C918193D9
:10428000872F821B1816BCF3612FCA010E9493026C
:104290001C5F1883DF91CF911F9108958AE5888371
:1042A000E3CF4CE053E00C94272145E453E00C9419
:1042B000272148E153E00C942721CF93DF936091AD
:1042C0002B03635067FD12C080912703CCE0D0E040
:1042D000C81BD109C15DDC4F80912603803108F0F5
:1042E00059C0CE010E94982010922B038091150195
:1042F00084FF43C0809114018F3F09F43EC0C82F52
:10430000893008F0C8E0982F9C1B9093140190917D
:10431000010328E8922790930103882301F18091FB
:10432000290390912A032091250326FFB2C0FC01A6
:104330002C2F42E053E03491DA013C934F5F5F4F02
:1043400031962150C1F79C012F5F3F4F8FEF8C0FAB
:10435000820F932F911D90932A03809329036C2F32
:1043600082E093E00E94930284E08C0FC83019F041
:104370009FEF909314018093150184E199B19C7093
:1043800031F48150D9F710922C0310922403DF915D
:10439000CF9108958D3209F069C0683009F0A4CF3B
:1043A00083EC809301038AE5809315011092250325
:1043B0008881807671F0CE010E9448208F3FC1F441
:1043C000988197FD8E8190E8909325038093140146
:1043D0008BCF2A8110920A039981911111C01092FA
:1043E0000B032AE033E082E030932A032093290371
:1043F0009F819111EBCF9E81981740F7892FE6CFCF
:10440000953029F420932C032AE033E0EDCF963049
:1044100099F49B81913021F4CE010E94B02008C014
:104420009230D1F39330C1F39132B1F39232A1F3D0
:1044300090E490932503C2CF983089F0993019F415
:1044400020932E03E1CF9A3071F09B30E9F69BE484
:1044500090930D039093460390931903D5CF2EE2CA
:1044600033E081E0C1CF2AE033E0FBCF8091250328
:1044700087FF3ACFCE010E9483208F3F21F48EE147
:104480008093150131CF882309F42ECF10921401A7
:104490002BCFDC012C2F42E053E0FA013D91308319
:1044A0004F5F5F4F2150C9F74ECFCF93DF93E9E6BF
:1044B000F0E0808188608083E99ACCE0D3E08BE4EF
:1044C0008983A5E4B3E011968C931197E8E1F3E0BA
:1044D00081838AE588838C938083DF91CF910895CF
:1044E00097FB072E16F4009407D077FD09D00E94A1
:1044F000912207FC05D03EF4909581959F4F089539
:10450000709561957F4F0895EE0FFF1F0590F49110
:10451000E02D099469279627692778278727782728
:104520000895AA1BBB1B51E107C0AA1FBB1FA617FA
:10453000B70710F0A61BB70B881F991F5A95A9F74C
:1045400080959095BC01CD010895F999FECF92BD5B
:1045500081BDF89A992780B50895A8E1B0E042E0BE
:1045600050E00C94D922262FF999FECF92BD81BD3F
:10457000F89A019700B4021639F01FBA20BD0FB6A1
:10458000F894FA9AF99A0FBE08950396272F0E947D
:10459000B4220E94B322252F0E94B422242F0C940F
:1045A000B4220196272F0E94B4220C94B322DC017E
:1045B000CB01FC01F999FECF06C0F2BDE1BDF89A2E
:1045C000319600B40D9241505040B8F70895F894D8
:1045D000FFCF8D0CA30CE30CFB0C0C0D190D1C0D67
:1045E0001C0D1C0D1C0D1C0D210D270D330D420D36
:1045F000550D580D5B0D6E0D231029102D103B101D
:104600003F10431047104D10551059105D106110A8
:104610006D107110751079107F109D10871031107A
:10462000371065106910511083109310A610AA104E
:104630002A132A138C138C13E113FD135A135A13E4
:104640000814B214C314C31424155A135A132D1585
:104650002808641E140A321E2202721FDC1FA71FC4
:10466000A31F9F1FFF5A00000000E200E900EA00BC
:10467000B500B600B700CD008301CC008A019201DD
:1046800094012102230224022502260227022A0283
:10469000B300B4006F0070003097969594919061CC
:1046A0006263603534333231E200E900EA00B5007C
:1046B000B600B700CD008301CC008A0192019401BD
:1046C0002102230224022502260227022A02B30025
:0646D000B4006F00700051
:00000001FF
