:107000006BC00000AAC000008EC000008CC0000051
:107010008AC0000088C0000086C0000084C0000054
:1070200082C0000080C000007EC000007CC0000064
:107030007AC0000078C0000076C0000074C0000074
:1070400072C0000070C000006EC000006CC0000084
:107050006AC0000068C0000066C0000064C0000094
:1070600062C0000060C00000EC2DFD2DB7B6B0FC82
:10707000FDCF27BFE895B7B6B0FCFDCF21E1B7B68D
:10708000B6FCF4CF08950902120001010080320914
:10709000040000000000000012011001FF000008C1
:1070A000C016DC050201010200010E035500530069
:1070B00042006100730070001C03770077007700C6
:1070C0002E00660069007300630068006C002E00EB
:1070D000640065000403090411241FBECFEFD8E04B
:1070E000DEBFCDBF24B7D8E0CEEF39913833399128
:1070F00009F03FEF30933C0120933B0111E0A0E009
:10710000B1E0E4E7F8E702C005900D92A630B107C0
:10711000D9F721E0A6E0B1E001C01D92AB33B20780
:10712000E1F77CD1A5C36CCFA82FB92F80E090E008
:1071300041E050EA609530E009C02D918227979593
:10714000879510F084279527305EC8F36F5FA8F30A
:107150000895EADF8D939D930895CF93CFB7CF9392
:10716000DF93C3954B9BE9F74B9B0BC04B9B09C02F
:107170004B9B07C04B9B05C04B9B03C04B9B01C067
:1071800089C06F93C0911E01DD27CB5DDE4F2F9329
:1071900065E54B9B03C02F916F91E6CF0F931F9333
:1071A0004F9320E040E15F9309B10C7003FB27F996
:1071B0003F9350E03BE039C01C7040642F77012FB3
:1071C0005F5F1EC0406819B11C702F7752501FC0FE
:1071D000406409B12F770C70D1F15F5F00C023C00C
:1071E000406219B12F771C7091F15F5F00C025C01C
:1071F0000C701027515012F45D5F0000115027955C
:107200002C3F19B1C8F61C700127015027952C3F5F
:10721000C8F64227499309B10C7010274F731150DB
:1072200027952C3FA8F64695469519B11C7079F024
:107230000127015027952C3F98F66B5A60F3315087
:1072400009B1B0F600C011E01CBB002717C03B50CD
:107250003195C31BD04011E01CBB0881033CF9F001
:107260000B34E9F020911C011981110F1213EDCF9D
:10727000093651F10D3211F0013E39F70093230127
:107280003F915F914F911F910F912F916F91CCB3CF
:10729000C0FD67CFDF91CF91CFBFCF9118952091DF
:1072A0002301222369F310912101112339F5343090
:1072B0003AF13093210120931D0110911E013BE012
:1072C000311B30931E011CC0009121010130B4F428
:1072D0000AE53091010134FD14C000930101C1E1C0
:1072E000D1E013C0052710E000C000000BB91AC0A0
:1072F000052710E0221F1DC010E021C04AE502C092
:1073000032ED432FC4E1D0E032E01AB11C605B9A49
:107310000BB11AB95CE020E865E320FF05270BB943
:10732000279517951C3FF0F66695B8F7B1F720FF43
:1073300005270BB9279517951C3FD0F6279517956C
:1073400017FF052700001C3F0BB9B0F629913A95AD
:1073500019F7037F10912201110FC651D0400BB9CC
:1073600011F010931C0111E01CBB08601AB1137FCF
:10737000402F437F54E05A95F1F70BB91AB94BB936
:107380007FCFFC01438134818381948198278927B1
:1073900098272281203339F43370E32FF0E0EE5F39
:1073A000FE4F80810895283561F489E0E1E0F0E046
:1073B000442371F089E0E3E0F0E0483049F080E0F8
:1073C0000895203579F4411107C089E0F0E0E0E04C
:1073D000809357008491089589E0E2E0F0E048301E
:1073E00071F7F6CF203229F4880F991FFC018491A0
:1073F0000895283229F4FC01EE0FFF1F3196F7CFD4
:10740000203A09F41FC2203C19F4658123D2D7CF5A
:107410002F3FA9F681EF80930F01D1CF1AB880E2F8
:107420008BB981E085BF82E085BFE0E0F1E7A895F8
:1074300031978040E1F780913B01877F21F4809173
:107440003C01882371F04D9B0CC0F894539A1BB8F3
:107450001DBA1092690081E085BF15BEF0E0E0E042
:1074600009958EEF80930F0114BE0FB6F894A8957E
:1074700080916000886180936000109260000FBE70
:1074800080916900826080936900E89A539A8CE049
:10749000E0E0F5E3A89531978040E1F753987894C0
:1074A00010912101135017FD5AC080911E01CCE0AC
:1074B000D0E0C81BD109CB5DDE4F80911D018D321C
:1074C00009F00BC1183009F048C083EC809311011A
:1074D0008AE580930101109210013881832F807614
:1074E0009981882309F49BC046E051E05093200124
:1074F00040931F01933069F4CE0143DF809309016B
:1075000084E09F81911127C09E81981720F5892FD3
:1075100022C0953009F4DFC09A3009F4DCC08CEF4A
:10752000890F863008F070C04A815B8150930E014C
:1075300040930D01993009F46EC08E8180930C0147
:107540002D81227020930B0190930A0137FF8FEF5A
:1075500090E8909310018093000110922101809196
:10756000010184FF36C0809100018F3F91F1182FF7
:10757000893008F018E0982F911B909300019091AA
:10758000110128E89227909311018823A9F03091E6
:10759000100137FF2EC180910C01811708F4182FBC
:1075A000811B80930C01D0900A0100E082E1E82E5B
:1075B00081E0F82E101305C1612F82E191E0C9DD51
:1075C00084E0810F183019F09FEF909300018093B1
:1075D000010184E199B19C7031F48150D9F7109286
:1075E000220110921C0180910F01803108F41FC10B
:1075F0004D9B05C080910F01805180930F018091B8
:107600000F0181114DCF21CF80910F01923029F4CC
:107610008E7F80930F0180E074CF8160FACF2A8142
:1076200010921A0191110AC010921B012AE131E057
:1076300082E03093200120931F0163CF953029F41D
:10764000209322012AE131E0F4CF963099F59B8115
:10765000913059F488E990E79093200180931F01BD
:1076600082E190E4909310014CCF923019F486E8B7
:1076700090E7F2CF9330A9F7211108C084ED90E78D
:107680009093200180931F0184E0EBCF213041F4DF
:1076900088EB90E79093200180931F018CE1E1CF6C
:1076A0002230F9F68AEA90E79093200180931F0137
:1076B0008EE0D7CF983059F0993019F420932401F7
:1076C000C1CF81E09A3009F4BDCF80E0BBCF24E286
:1076D00031E081E0AECF81E014CF8091100187FFCF
:1076E0003CCF00910C01011708F4102F011B0093EF
:1076F0000C01F12CF11628F001112FCF109200018E
:107700002CCF80910D0190910E0120910A0127301C
:1077100058F069919C012F5F3F4F30930E012093E9
:107720000D0198D0F394E6CF8115904738F7F39484
:10773000F394F894E0910D01F0910E0129913991A3
:1077400081E0090180935700E89511247894809195
:107750000D0190910E01029690930E0180930D0100
:107760008F779927892B51F00111C4CFF11608F4B6
:10777000C1CF80910B01882309F4BCCFF894E0912C
:107780000D01F0910E01329783E080935700E89548
:10779000789407B600FCFDCFF894E0910D01F091CC
:1077A0000E01329785E080935700E895789407B6EC
:1077B00000FCFDCFF89481E180935700E895789420
:1077C00099CFC0910D01D0910E0126E02D1570F4D6
:1077D000CE0138D0F7018083FFEFEF1AFF0A219620
:1077E000D0930E01C0930D010F5FE4CEFE01849192
:1077F000F1CF80911F0190912001212F280FFC01D2
:1078000082E191E036FF0CC03491DC013C9301969B
:1078100031962E13F9CFF0932001E0931F01CCCEC7
:10782000DC0131913C9301962E13FACFF4CF4D99A0
:10783000E6CE80910F01823008F4E1CE80910F01F5
:107840008250DBCEF999FECF92BD81BDF89A99277F
:1078500080B50895262FF999FECF1FBA92BD81BD3C
:1078600020BD0FB6F894FA9AF99A0FBE01960895C2
:04787000F894FFCFBA
:06787400FF5A1E950F00F3
:040000030000700089
:100000000C9444010C9461010C947C010C946101EA
:100010000C9461010C9461010C9488160C9461019C
:100020000C9461010C9461010C9461010C946101C8
:100030000C9461010C9461010C9420170C946101E3
:100040000C9461010C9461010C9461010C946101A8
:100050000C9461010C9461010C9461010C94610198
:100060000C9461010C94610135001E001F002000FA
:1000700021002A0027002600250024002B00140060
:100080001A00080022004C00130012000C0023008C
:1000900029000400160015001700340033000F007B
:1000A00018001C00E1001D00070009000A002800DC
:1000B00038000E000D000B00E0001B0006001900C8
:1000C00005004F0037003600100011002152E200F9
:1000D000E30021522C0052005100500021522C000C
:1000E00035001E001F00200021002A0027002600E6
:1000F0002500240035001E001F00200022004C00B7
:1001000027002600250023004C003A003B00210078
:100110002200310030002F002400230001004000A5
:100120003C003D003E0001004E002E002D003F002F
:1001300001004100420043004400AE004B00640057
:100140003200450001000100010001000100A9008A
:10015000AA00AB000100010009023B00020100A05F
:10016000320904000001030101000921010100011D
:100170002240000705810308000109040100010372
:10018000000000092101010001227B000705830313
:1001900008000112011001000000086A700200014D
:1001A000000102000116034C0075006D006200653D
:1001B0000072006A00610063006B0000000A0350D7
:1001C00000650065006A00000004030904050109D8
:1001D00002A10185020901A10005091901290815DB
:1001E00000250195087501810205010930093115C5
:1001F00081257F95027508810609381581257F952F
:100200000175088106050C0A38021581257F9501C4
:1002100075088106C0C005010980A1018503190187
:100220002AB700150126B700950175108100C00599
:100230000C0901A101850419012AA002150126A0BB
:1002400002950175108100C005010906A10105078D
:1002500019E029E71500250195087501810295012E
:10026000750881030507190029FF150026FF009571
:100270000675088100050819012905950575019184
:1002800002950175039103C011241FBECFEFD8E082
:10029000DEBFCDBF11E0A0E0B1E0E2EAF6E302C0CC
:1002A00005900D92A838B107D9F723E0A8E8B1E08E
:1002B00001C01D92AA32B207E1F70E944B110C94C3
:1002C0001A1B0C940000A82FB92F80E090E041E0A9
:1002D00050EA609530E009C02D9182279795879567
:1002E00010F084279527305EC8F36F5FA8F3089558
:1002F000EADF8D939D930895CF93CFB7CF93DF938C
:10030000C3954B9BE9F74B9B10C04B9B0EC04B9B7F
:100310000CC04B9B0AC04B9B08C04B9B06C0C091B6
:100320000103C395C09301038EC06F93C091000376
:10033000DD27C85FDC4F2F9365E54B9B03C02F91F2
:100340006F91E1CF0F931F934F9320E040E15F93B4
:1003500009B10C7003FB27F93F9350E03BE039C033
:100360001C7040642F77012F5F5F1EC0406819B179
:100370001C702F7752501FC0406409B12F770C704A
:10038000D1F15F5F00C023C0406219B12F771C70AC
:1003900091F15F5F00C025C00C701027515012F41E
:1003A0005D5F0000115027952C3F19B1C8F61C70F5
:1003B0000127015027952C3FC8F64227499309B1E0
:1003C0000C7010274F73115027952C3FA8F64695B7
:1003D000469519B11C7079F00127015027952C3FE3
:1003E00098F66B5A60F3315009B1B0F600C012E0D4
:1003F0001CBB00271CC03B503195C31BD04012E0F2
:100400001CBB0881033C21F10B3411F12091FD024A
:100410001981110F1213EDCF4A81441F093679F16A
:100420000D3211F0013E29F74F7009F0042F0093AF
:1004300006033F915F914F911F910F912F916F9103
:10044000CCB3C1FD5DCFDF91CF91CFBFCF911895D8
:1004500020910603222369F310910403112309F06C
:1004600049C034300AF448C0309304032093FF029B
:10047000109100033BE0311B309300033DC000911D
:1004800004030130BCF50AE54F7049F430911301C3
:1004900034FD33C000931301CAEDD2E032C04330C3
:1004A00059F0443091F03091E50234FD26C00093BC
:1004B000E502C6EED2E025C030911E0334FD1DC01A
:1004C00000931E03CFE1D3E01CC03091F10234FD54
:1004D00014C00093F102C2EFD2E013C0052710E070
:1004E00000C000000BB91AC0052710E0221F1DC074
:1004F00010E021C04AE502C032ED432FC4E1D0E054
:1005000032E01AB11C605B9A0BB11AB95CE020E8CA
:1005100065E320FF05270BB9279517951C3FF0F6DB
:100520006695B8F7B1F720FF05270BB92795179502
:100530001C3FD0F62795179517FF052700001C3F95
:100540000BB9B0F629913A9519F7037F109105037D
:10055000110FC651D0400BB911F01093FD0212E0FB
:100560001CBB08601AB1137F402F437F54E05A959B
:10057000F1F70BB91AB94BB95CCFFB0122812223E9
:1005800029F0459ABF010E94F10208954598FACFDB
:10059000009721F0449A0E94C20708954498FBCF27
:1005A0008230B8F46630A8F44A3098F4E42FF0E0D2
:1005B0009AE0699FE00DF11D11249CE3899FE00DF5
:1005C000F11D1124EE0FFF1FE859FF4F8591949103
:1005D000089580E090E008950E94D002089581E09F
:1005E000089581E0089508950E94F3020895A5E01A
:1005F000B0E0EDEFF2E00C94861A49835A83309113
:100600008F0189819A81311119C0662399F02223C3
:1006100089F00E94A408182F682F89819A810E946E
:10062000800869817A81812F0E94E30E2596E3E09C
:100630000C94A21A0E949208182FF3CF0E94A408CB
:1006400069817A81F1CFFC01262F4081518162813D
:10065000738184810E94F702089581E00895CF9309
:10066000DF93D82FC92F60E00E9423036D2F7C2FCA
:100670000E94F402DF91CF9108950E94FB0F08952C
:100680000E94FF0F089508950E944E070E944303A1
:100690002FEF84E39CE0215080409040E1F700C0C0
:1006A000000008950E9444030E94441708950E9488
:1006B00044030E94591708950F931F93CF93DF931C
:1006C0008C0161E00E942303EC01B8010E94BD028D
:1006D000811106C080E0DF91CF911F910F910895A5
:1006E000B801CE010E9444158823A1F3B801CE01C0
:1006F0000E94DA13882371F3B801CE010E94B61468
:10070000882341F3F8018281882381F0CA35FCE710
:10071000DF0711F178F4C130ECE7DE07D1F0C33028
:10072000FCE7DF07A1F0C115DC4771F0C8010E94AA
:10073000EF02D1CFCB35ECE7DE0789F0CC35DC47D3
:10074000A9F70E947C0CF2CF0E945203C3CF0E94F3
:100750008E0C0E945703BECF0E94860CE7CF0E94EA
:100760008A0CE4CF0E946A160E94DC0308950E945E
:10077000E0030E946F16089508950E94BC03089537
:1007800081E008950895CF93DF93D82F0E94C0038E
:10079000C82F882319F08D2F0E94C2038C2FDF9160
:1007A000CF9108950895CF93C82F0E94BD038C2F39
:1007B0000E94C303CF91089580E00E94D30308955F
:1007C0000E9491150E94D3030895CF930E94911522
:1007D000C82F80918A018C1779F0C0938A010E94FA
:1007E000F41660938B0170938C0180938D0190932C
:1007F0008E018C2F0E94D303CF910895ABE0B0E01F
:10080000E4E0F4E00C94871A4F83588769877A876D
:100810008B8761110E94DD0B1E8285E0FE013796F9
:10082000DE01119601900D928A95E1F78C819D81F0
:10083000892B61F449815A816B817C818D819E81F4
:100840000E94FE0A2B96E2E00C94A31A89819A81F9
:1008500089238F3F79F3CE0101960E942D038111E8
:10086000E9CFF0CFFC01808191810E94D6080895E4
:10087000662329F00E94CF110E94A21208950E94BF
:100880002912FACFCF93C82F8823B9F08CEF8C0FA1
:10089000813AA8F46C2F80910001909101010E948F
:1008A0001616882329F08C2F0E949B0B0E94FE0BAA
:1008B0008C2F0E94930B0E94FE0BCF91089580E233
:1008C0008C0F883048F4C77081E001C0880FCA954A
:1008D000EAF70E94BE0BEFCF8BE58C0F833038F424
:1008E0002C2F2452330BC9010E94B815E6CFE8E53E
:1008F000EC0FE93150F4F0E0EE0FFF1FEC5EFE4F1D
:10090000808191810E94DE15D8CF83E38C0F8331E3
:10091000A0F661E08C2F0E943804CFCF882381F1AC
:100920009CEF980F913A28F40E949B0B0E94FE0BBB
:10093000089590E2980F983050F4877091E001C0CC
:10094000990F8A95EAF7892F0E94C40BEFCF9BE598
:10095000980F933028F490E080E00E94B815089535
:1009600098E5980F993128F490E080E00E94DE1518
:10097000089593E3980F933118F460E00E943804CF
:1009800008951F93CF93DF93182FEB010E94420429
:10099000209739F4812F0E948E04DF91CF911F910F
:1009A00008958FE99FE00197F1F700C000002197BB
:1009B000EFCF70E060E0893311F460E570E00E94F1
:1009C000C1040895882321F00E94BE0B0E94FE0BF3
:1009D0000895882321F00E94C40B0E94FE0B089505
:1009E000B0E0A0E0E6EFF4E00C947F1A6C01D62FA3
:1009F000C72FFC011281F580F2948FE0F8220E944B
:100A0000B40BE82E8823B9F0E12E1123A1F08C2F2E
:100A1000807F803421F080E28D0F8830C8F0809193
:100A2000BD0282FF15C082E00E944B0C0E94B40BF5
:100A300091E0E82EE9268C2F82958F70A82EB12C9C
:100A40008C3008F067C0F501E45EF44E0C94711A26
:100A5000E12CF1CF0C2F0F70C07F11F00295007FB9
:100A6000112399F0002359F080E28D0F883010F0A7
:100A7000D11107C0802F0E94BE0B0E94FE0B8D2F4C
:100A800041C0802F0E94CF0BF8CF8D2F0E948E0483
:100A9000002309F43FC080E28D0F883010F0D1119F
:100AA00004C0802F0E94C40B03C0802F0E94D50B6E
:100AB0000E94FE0B2FC00C2F0F70C07FC03211F0B0
:100AC0000295007FDD2381F0D13009F46BC0112342
:100AD00009F475C0FF2009F46BC0F601858180FF21
:100AE000CECF8F70858364C08091BD0282FD35C0FA
:100AF000112359F0002329F0802F0E94BE0B0E9481
:100B0000FE0B80E00E94420405C080E00E948E043B
:100B10000111C7CFE8E0AE1AB108F4E0AF16B10496
:100B200020F40E9491150E94D303EE2089F00E94C8
:100B3000B00B80FD0DC0F60112820E94AA0B0E942C
:100B4000DD07C6010E940E070E94AA0B0E94ED0756
:100B5000CDB7DEB7EAE00C949B1A112389F0F110AF
:100B600006C00E94E00B802B0E94E204D3CFF1E08C
:100B7000FF12F7CF0E94E00B802B0E94E70BCACF39
:100B8000F11006C00E94F40B802F0E94E904C2CF2E
:100B900021E0F21609F4BECF802F0E94E9040E94E2
:100BA000F40BB8CF112331F085E08F1508F4B2CFE4
:100BB000802FDACF94E09F1508F4ACCFE5CFFF206B
:100BC00019F3D93349F4FFEF27EE83E0F1502040C9
:100BD0008040E1F700C000008D2F0E948E049ACF64
:100BE0008C2F86958695837069F0813009F092CFBD
:100BF0008D2F9C2F9370111102C080E090E00E9415
:100C0000DE1588CF8D2F9C2F9370111102C080E0CC
:100C100090E00E94B8157ECF612F8D2F0E9438047E
:100C200079CF8C2F8370A9F5111174CF4D2F429578
:100C300046954770440F440F2D2F2F7030E0042E3F
:100C400002C0220F331F0A94E2F790E080E0D4FF45
:100C500009C08FE090E002C0880F991F4A95E2F723
:100C600080959095C695C695C370822B932BC23004
:100C700051F0C33059F0C13019F00E94B0074ACF8B
:100C80000E94A70747CF0E94B90744CF0E94A4073C
:100C900041CF8695112311F08C2F8170882309F4A0
:100CA00039CF4D2F429546954770440F440F8D2FF5
:100CB0008F7090E0042E02C0880F991F0A94E2F70B
:100CC00030E020E0D4FF09C02FE030E002C0220F66
:100CD000331F4A95E2F720953095C695C695C370A7
:100CE000822B932BC23051F0C33059F0C13019F030
:100CF0000E9418080FCF0E940F080CCF0E942108F5
:100D000009CF0E94C50706CFCF70112329F08C2F81
:100D10000E94DD078D2F28CF8D2F0E94E9048C2F94
:100D20000E94ED07F7CED23F51F160F4D03FB9F009
:100D3000D13F81F0112309F449C0F110A0CE8C2FCE
:100D40008F7121C0D33F11F1D43FA1F78091BD0233
:100D500082FD26C08C2F8F71112311F314C0112333
:100D600049F094E09F1508F4D5CE8C2F8F710E9426
:100D7000FF07D0CEE5E0EF1508F4CCCEF6CF8C2FF0
:100D80008F711111CDCF0E94DD07C4CE112329F040
:100D90008C2F8F710E94D107BDCE0E94CC07BACE96
:100DA000112349F0CF718C2F0E94DD0763E08C2F57
:100DB0000E942D0CAFCE81E00E944B0CF1E0FF159C
:100DC00008F0A8CE82E00E944B0CA4CEFF2059F080
:100DD000D93309F001CF2FEF87EE93E02150804007
:100DE0009040E1F7F7CE8C2F8F719ACF0F931F931E
:100DF000CF93DF93EC01688179818A810E94E308B7
:100E00008C010E942A080E94A307B801CE010E940B
:100E1000F004DF91CF911F910F910895CF93DF934D
:100E2000EC018B819C81892B29F088819981892310
:100E30008F3F51F4DF91CF910895CE010E94F606C5
:100E4000CE010E942F03F6CFCE010E945C038111D8
:100E5000F4CF0E94B40B882369F38A81882351F36D
:100E60008091BD0282FFE6CF82E00E944B0CE2CF70
:100E700090E080E00E94B81590E080E00E94DE15CE
:100E80000E94DD0B0E94FE0B0E94BD120E94A21266
:100E900008950E94A30B0E94380708950E94CC0B6E
:100EA0000E9449070895282F92959F70963091F0DF
:100EB00060F4925F9F70923030F481E0203F81F0C7
:100EC00030F4283E30F080E008959A5FF3CF243F5D
:100ED000D1F7089581E0283EE0F3213FA1F7F9CF53
:100EE0000895FC0183819481892B29F0808191816F
:100EF00089238F3F11F480E00895808191810E94C1
:100F0000D6080E9453070895A5E0B0E0EAE8F7E0AC
:100F10000C94871A2596E2E00C94A31AA6E0B0E0A0
:100F2000E4E9F7E00C94871A2696E2E00C94A31A01
:100F300008950E94980708950E9499079093B3011D
:100F40008093B201089508950E949C07089520910E
:100F5000B2013091B301822B932B0E949C0708951C
:100F60002091B2013091B301822393230E949C0708
:100F700008952091B2013091B301822793270E94F6
:100F80009C0708950E94980708950E94C8029093B4
:100F9000B1018093B001089590E080E00E94C50700
:100FA000089521E030E0A90102C0440F551F8A9541
:100FB000E2F7CA010E94C507089521E030E002C0AF
:100FC000220F331F8A95E2F78091B0019091B10111
:100FD000822B932B0E94C507089521E030E002C0C8
:100FE000220F331F8A95E2F7209530958091B0014A
:100FF0009091B101822393230E94C507089521E0B7
:1010000030E002C0220F331F8A95E2F78091B001D1
:101010009091B101822793270E94C50708952091DE
:10102000B0013091B101822B932B0E94C507089526
:101030002091B0013091B101822393230E94C50712
:1010400008952091B0013091B101822793270E9429
:10105000C507089508959B01677091E001C0990F3D
:101060006A95EAF763E0369527956A95E1F7220FCE
:10107000331F220F331FFA01E20FF31F50E040E04D
:10108000682F70E08191DF0111979B01042E02C04F
:10109000369527950A94E2F7217021952827292370
:1010A00028272C934F5F5F4F4430510559F708951F
:1010B0009C01982F977083E0369527958A95E1F7E4
:1010C000220F331F220F331FFB01E20FF31F50E0EB
:1010D00040E080E0219130E0092E02C0369527954E
:1010E0000A94E2F721703327042E01C0220F0A94DC
:1010F000EAF7822B4F5F5F4F4430510559F708954F
:10110000282F862F963068F42A3058F4622F70E02A
:101110002AE0929F600D711D112440E951E00E9468
:101120002B080895292F963068F48A3058F490E0FF
:1011300060E971E03AE0239F800D911D11240E9427
:101140005808089580E00895B0E0A0E0EAEAF8E0E9
:101150000C94801A8C01E090B001F090B101809164
:10116000B2019091B301E82AF92ACFE0D0E0CC2473
:10117000C394D12CBC2EC6010C2E02C0880F991F1F
:101180000A94E2F78E219F21892B49F4219790F749
:10119000B12C8B2DCDB7DEB7E9E00C949C1AB801C9
:1011A0008C2F0E94EF0E019789F3F3CFCF93DF933B
:1011B000D82FC92F0E94A4086D2F7C2F0E94EF0EFC
:1011C000DF91CF9108951F93CF93DF93162FD72FE1
:1011D00090918F01992341F0862F972F0E94D60876
:1011E000DF91CF911F910895882381F0862F972F4B
:1011F0000E94A408C82F682F812F9D2F0E9480086D
:10120000612F7D2F8C2F0E94EF0EEACF862F972F14
:101210000E949208C82FF4CF1F93CF93DF93E091E1
:10122000B40116E08091B5018E1304C0DF91CF9117
:101230001F910895CE2FD0E01E9FF0011124EA5493
:10124000FE4F4081518162817381848195810E942A
:101250008E07FE013196E770E5CF4091E60150918F
:10126000E7016091E8017091E9018091EA019091B4
:10127000EB010E948E0708951F93CF93DF93809117
:10128000EB01807F09F049C08091E801882309F4CF
:1012900044C08091B401C091B5016091E6017091A4
:1012A000E701A091E901B091EA01D62FD72316E01A
:1012B000C81799F190E0109711F0DF3F19F40196EB
:1012C0008770F6CF189F9001199F300D1124F901F6
:1012D000EA54FE4F41814713F2CF40814613EFCFCE
:1012E00042814111ECCF438154814A1B5B0B483C46
:1012F000510528F78091EB018F7080618093EB019D
:10130000F901E554FE4F80818F708061808386EE05
:1013100091E00E940E070E940C09DF91CF911F916E
:101320000895ABE0B0E0E7E9F9E00C947F1A8C0196
:1013300085E0F801DE01179601900D928A95E1F79C
:10134000F801E28086EEC82E81E0D82E6091E90196
:101350007091EA016115710509F434C19091E601BB
:101360002091E701822F89238F3F09F42BC140810F
:101370005181A380B480F090E801F501E61BF70BE2
:10138000FF2009F4D1C08091EB01382F307FE83C79
:10139000F10508F0A3C031116DC0FE2C521316C028
:1013A000941314C0E11012C08F7080618093EB0120
:1013B0000E942D09C6010E940E078091EB01F801E1
:1013C00085838F2D2B96EAE00C949B1AA114B1040F
:1013D00029F0852F84238F3F09F00DC180E0F82F7D
:1013E000F170DF2EE091B4012091B50136E080FD6F
:1013F0001CC0EE2031F38091EB0181608093EB0102
:10140000F12CDFCF8E2F90E03E9FF0011124EA54A3
:10141000FE4F6181561306C06081641303C0628170
:10142000E612E7CFFC013196E770E213EBCF4F8372
:1014300058878F8198850E94D608292F22952F7072
:10144000903260F0225F2F70223078F49F7051F05C
:10145000F8019581907F31F4D12C0AC09F7011F072
:101460008823D1F3805E8830B8F3C8010E940E074C
:10147000FD2CA7CF521306C0941304C0F801EE2030
:1014800009F46DC0C8010E947107882319F1EE208C
:1014900009F18091EB01803270F02091E6013091EA
:1014A000E7013A8329831B82BD82AC828E83CE0101
:1014B00001960E940E0786E0F801A6EEB1E00190C9
:1014C0000D928A95E1F70E943C090E942D09FF24A4
:1014D000F39477CFC8010E940E07F9CF311113C0E2
:1014E0007A2DBB86AA866E2D8B850E94840786EE98
:1014F00091E00E940E0786E0F60111928A95E9F7C5
:101500000E942D097DCF5213BDCF9413BBCFE110A4
:10151000B9CFF8018583C8010E940E0786E0F60165
:1015200011928A95E9F74DCFE83CF10508F03DC0EE
:10153000FE2CEE2079F252132AC0941328C0809119
:10154000EB0180FD1BC0982F907FC1F0F8018583CF
:10155000903F31F0982F907F905F8F70892B85831B
:10156000C8010E940E0786E0F801A6EEB1E00190E6
:101570000D928A95E1F70E942D0923CF86E0F801AC
:10158000A6EEB1E001900D928A95E1F71ACFC8015D
:101590000E94710781118FCF8091EB018160809350
:1015A000EB01C8010E940E070CCF7A2DBB86AA86DC
:1015B0006E2D8B850E94840786E0F60111928A9534
:1015C000E9F7D9CFEE2009F485CFC8010E94710751
:1015D000F82E882309F47ECF86E0F801A6EEB1E06C
:1015E00001900D928A95E1F786EE91E00E94320417
:1015F0000E943C09C0CF81E08E25F1CEACE0B0E086
:10160000E4E0FBE00C94861A4F83588769877A8759
:101610008B879C87CE0107960E949109882369F0E9
:101620008A859B85892B39F04F815885842F8523A6
:101630008F3F09F071C016E065C086E0FE01379665
:10164000DE01119601900D928A95E1F76A857B85FE
:101650006115710581F35F814885842F85238F3F54
:1016600051F32091B50130E0C901019687709927A7
:10167000E091B401E817190671F40E944E07109228
:10168000B5011092B40186E0E6EEF1E0DF011D92B3
:101690008A95E9F7D0CF59834A837D836C8396E09E
:1016A000929FD001939FB00D1124AA54BE4FFE010A
:1016B000319601900D929A95E1F78093B5010E94C1
:1016C0000C09B9CF819FC00111248A549E4F0E94FA
:1016D00091098823E9F0E091B4011E9FF0011124E3
:1016E000EA54FE4F408151816281738184819581EA
:1016F0000E948E078091B40190E00196877099272F
:101700008093B4018091B4019091B5018913DACF2F
:101710002C96E3E00C94A21A69857A858B859C85CA
:101720000E948E0788CF682F80910001909101015F
:101730000E9450160895682F809100019091010138
:101740000E945316089580910001909101010E941A
:10175000561608958091EC01859585958595089597
:101760008091EC01877008959091EC01977081E071
:1017700009F480E008958091F70108959091F701B0
:10178000982B9093F7010895982F90958091F701E9
:1017900089238093F70108951092F701089590919D
:1017A000F601982B9093F6010895982F90958091CB
:1017B000F60189238093F60108951092F6010895A9
:1017C0008091ED01089508950E94E30B0895909192
:1017D000BD0292FF08C09091ED01981721F080930F
:1017E000ED010E94E40B08958091ED01882329F01A
:1017F0001092ED0180E00E94E40B0895E091000159
:10180000F09101018091F7018083E0910001F09156
:10181000010180819091F601892B80839091ED01E7
:10182000992381F0E0910001F09101018081892BE1
:10183000808380910001909101010E940416811122
:101840000E94F40B80910001909101010E949E156D
:10185000089508950E94290C08959091BD0292FF69
:1018600011C098E0899F90011124622B6093EC01D4
:101870000E94DD078091EC018595859585950E94F4
:101880002A0C08950E94DD0708951092EC0180E073
:101890000E942A0C08959091EC01809589238093F1
:1018A000EC01282F277091F4282F082E000C330B01
:1018B0009217130659F09091BD0292FF07C08595CB
:1018C000859585950E94ED070E94450C089590919D
:1018D000BD0292FB222720F9281769F080FB92F9BC
:1018E0009093BD028091BC029091BD020E94AF0C0A
:1018F00082E00E944B0C08958091BD0282FB8827F4
:1019000080F991E089270E94670C089581E00E9488
:10191000670C089580E00E94670C08956FEF7FEFD9
:1019200090E080E00E94041B089590E080E00E9417
:10193000E01A9C0181E0273E3E4F09F080E00895C7
:1019400082E090E00E94D81A089583E090E00E941F
:10195000D81A089584E090E00E94E01A0895BC012E
:1019600084E090E00E94041B0895AB01BC018FE06D
:1019700090E00E94F81A0895AB01BC0183E190E069
:101980000E94F81A089560E070E0CB010E94BC0C40
:10199000089560E070E0CB010E94B50C0E94C30C7A
:1019A000089567EE7EEF90E080E00E94041B60E007
:1019B00082E090E00E94E61A60E083E090E00E94FE
:1019C000E61A1092B3011092B20160E074E184E073
:1019D00090E00E94041B60E086E090E00E94E61A1E
:1019E0006FEF87E090E00E94E61A40E050E0BA0115
:1019F00088E090E00E94F81A60E08DE090E00E949C
:101A0000E61A40E050E0BA0188E190E00E94F81A3E
:101A100060E087E190E00E94E61A40E050E0BA0101
:101A20008CE190E00E94F81A70E060E080E290E0C3
:101A30000E94041B40E050E0BA0188E190E00E945F
:101A4000F81A0E94C90C08950E94D10C0895682FBD
:101A50008EE090E00E94E61A08950E94F4166093CA
:101A60000A0270930B0280930C0290930D02609314
:101A7000060270930702809308029093090208956A
:101A8000089508950E94410D089508950E94450DFE
:101A9000089589ED9FE00E9487150E94400D0E94E5
:101AA000420D089581E008950E94520D0895089511
:101AB00008950E94570D0E94580D08950E94DC0F52
:101AC0000E94D20308950E94DF160E94B0100E9467
:101AD0005E0D0E94460D0895A5E0B0E0E2E7FDE04E
:101AE0000C947C1A0E94C6102AEF822E21E0922EBE
:101AF000640110E0F601E190F1906F01812F0E94E6
:101B000002101F5F163009F44BC0E816F90691F376
:101B100080910E0281FD0E940B100E94540D782EC0
:101B2000F12C8F2D0E9402108C01F401A190B19034
:101B30004F018A159B0569F1A826B126E12CCC241A
:101B4000C394D12CC5018C219D21892BC1F0772014
:101B5000B1F0E982FA8221E0C8018C219D21892B14
:101B600009F420E02B830E94E8168160782F9D8382
:101B70008C8349815A816B818D810E94FE03E3949D
:101B8000CC0CDD1CFAE0EF12DDCFF40132971183AB
:101B90000083F39486E0F812C4CF0E942D0D22C07A
:101BA000E816F90609F0B4CF0E94E8168C0180917E
:101BB000F8019091F90108171907A1F08FEF8983B7
:101BC0008A831B820E94E8168160782F9D838C8314
:101BD00049815A816B818D810E94FE031093F90126
:101BE0000093F8010E94DE120E94E5032596EDE0C5
:101BF0000C94981ACF93DF930E94F40EEC01811598
:101C000022E5920708F043C0811530E5930708F0FC
:101C1000C0C0803E910520F58D3C910508F092C032
:101C2000883A910570F4853A910508F088C08130B2
:101C3000910531F10497813A910510F1D0E0C0E0AF
:101C40001FC0885A91094997C8F7C85AD0E0CC0FED
:101C5000DD1FCA5BDE4F0990D881C02DD46410C04F
:101C60008115904488F4C11580E2D80708F09EC021
:101C7000C83ED10528F0CE019A9581159F41F0F616
:101C8000CE01DF91CF910895DF70D06AF9CF80380F
:101C900032E59307B8F5803642E5940708F05BC05B
:101CA000C03482E5D807C8F4C03292E5D90708F0FD
:101CB0004BC02C2F2695269540E2249F900111249D
:101CC0008C2F8370C1E0D0E002C0CC0FDD1F8A955D
:101CD000E2F7C22BD32BDD68D3CF2C2F2695269588
:101CE000277080E2289F900111248C2F8370C1E01F
:101CF000D0E002C0CC0FDD1F8A95E2F7C22BD32BB8
:101D0000DC68BECFC03C92E5D90760F48C2F8F71A0
:101D1000C03AD245A0F5C82FD0E0DC2FCC27C46F45
:101D2000D06AAECFCE01805C9245809708F086CF16
:101D3000DC2FCC27CC27DF71C06FD06AA1CFA4974E
:101D4000D0649ECFD0659CCFCF71D0E0DC2FCC2764
:101D5000C16FD06A95CF282F26952695277040E22F
:101D6000249F900111248370C1E0D0E002C0CC0F09
:101D7000DD1F8A95E2F7C22BD32BDA6881CF0E9450
:101D8000960FC82FD0E0DC2FCC27CC27DF71D06294
:101D900077CF8F710E94960F35E0D695C7953A950B
:101DA000E1F7CF70DC2FC82FD0696ACF8D2F8F71EC
:101DB0000E94960F90E0982F882788279F719C019A
:101DC0002C2BE901E4CF462F672F763028F44A30D8
:101DD00018F40E94EC02089580E090E008950E94BB
:101DE000E30E0E94FA0D0895803E9105C1F1C8F4FA
:101DF0008133910509F47DC048F48932910509F4D5
:101E00006DC08A32910509F47BC00895893391052C
:101E1000D1F082389105B9F08533910509F459C0A4
:101E20000895843E9105C1F138F4823E910521F177
:101E3000833E910531F10895863E9105C1F1873EBB
:101E40009105E1F108952091BC02237009F065C06D
:101E50002091BD0223FF14C089E290E008952091F3
:101E6000BC0220FD43C03091BD0230FF09C024FFF9
:101E70004EC090E080E008952091BC0222FDF7CF93
:101E800008952091BC0222FD45C03091BD0230FD75
:101E900044C024FFF5CFEDCF2091BD0221FFF0CF4C
:101EA0008091BC0284FDE5CF87EE90E008952091FB
:101EB000BC0223FFE5CF24FDDCCFF6CF2091BC028E
:101EC00023FD2EC03091BD0231FFE3CF84EE90E0C0
:101ED00008952091BC0225FFD3CFBECF2091BC0234
:101EE00025FD21C02091BD0223FFCACF89E390E0E8
:101EF000C7CF2091BC0226FFC3CF8AE290E00895AD
:101F00002091BC0226FFBCCF81E390E0089583EED0
:101F100090E0089582EE90E0089580EE90E00895BC
:101F200086EE90E0089585E390E008959091BC02DC
:101F300092FF06C0282F28712830F9F4877F84602B
:101F400093FF06C0282F28712831F1F4877E846121
:101F50002091BD0220FF06C0382F38713830D9F4E7
:101F6000877F816021FF06C0282F28712831D1F496
:101F7000877E816194FD877E0895282F2471243007
:101F8000F9F68B7F8860DCCF282F2471243101F78C
:101F90008B7E8861DDCF382F3171313019F78E7F1C
:101FA0008860E0CF282F2171213121F78E7E886152
:101FB000E1CF80E0089508950E94950C811102C040
:101FC0000E94240D0E94A00C80930E020E94AA0C75
:101FD0009093BD028093BC020E94DB0F0E94A50C6F
:101FE00090E00E94A4078091B0019091B1010E94FD
:101FF000C802089508950E94FA0F089508950E9456
:10200000FE0F0895E82FF0E0EE0FFF1FE653FD4F9F
:10201000808191810895089580EA8A95F1F7089565
:1020200000C008950E940C100895F894E82FE295DE
:10203000EF70F0E041A18F7021E030E0B90102C003
:10204000660F771F8A95E2F7CB01962F9095942320
:1020500091A392A1892B82A378940895CF93DF93C3
:10206000C2E8D1E089918F3F11F00E94151081E004
:10207000C838D807B9F7C8E7D1E089918F3F11F088
:102080000E94151081E0C238D807B9F7DF91CF91CF
:102090000895B0E0A0E0EFE4F0E10C94801AEC01C8
:1020A000B62E062F10E0C8018E579E4F7C01FC0112
:1020B00020812F3F09F44CC0F894E22FE295EF7095
:1020C000F0E031A12F7081E090E001C0880F2A95E7
:1020D000EAF7932F982B91A392A18095892382A34D
:1020E00078940E941010E8E7F1E041E050E0D12C34
:1020F000C12C21912F3F89F1A22FA295AF70B0E0A2
:1021000090968C9190E02F7002C0959587952A95B6
:10211000E2F780FD22C0CA01C82AD92A440F551F00
:1021200081E0E238F80729F7F70180818F3F11F04D
:102130000E94151061E0C114D10409F460E08B2DF8
:102140000E941210000F111FC00FD11FD982C88228
:10215000CDB7DEB7E9E00C949C1A90E080E0DCCFCC
:102160000E942E108CE0EAECF2E0DF01982F1D9225
:102170009A95E9F7EEEBF2E0DF011D928A95E9F717
:1021800086E00E9402110E943D030895ACE0B0E099
:10219000ECECF0E10C94841A8E010F5F1F4F8CE081
:1021A000F80111928A95E9F7F12C6F2DC8010E9470
:1021B0004910F394F6E0FF12F8CF4CE050E0B8017C
:1021C0008EEB92E00E94C21AAC0121E0892B09F447
:1021D00020E0452B41F08CE0F801AEEBB2E001903D
:1021E0000D928A95E1F746E06AEC72E08EEB92E0A0
:1021F0000E940311182F0E944003812F2C96E5E0C6
:102200000C94A01A0895B0E0A0E0E9E0F1E10C948C
:10221000821AD82EE92EF62E072FC42F222349F03A
:1022200081E0809311020E94E8169093100280933F
:102230000F0210911102111107C010E0812FCDB7CC
:10224000DEB7E7E00C949E1A80910F029091100285
:102250000E941117059788F3D0E0CC0FDD1FAE0167
:102260006D2D7E2D8F2D902F0E94C21A892B51F03B
:10227000AE016D2D7E2D8F2D902F0E94CF1A1092C2
:102280001102DCCF10E0FBCF0E9474170E94630D97
:102290000E94851708950E9487160E9464170E9465
:1022A000490D0E9444110E9493170E94590DFBCFC3
:1022B0008091180280FF0DC06091070170E0660FE9
:1022C000771F6038710570F56115710569F1862F0A
:1022D000089581FF07C06091070184E0689FB00105
:1022E0001124EFCF6091070182FD0AC0809117028F
:1022F0008823A9F02091060160910701821710F050
:1023000088E0ECCF869FC001112433E0880F991F2D
:102310003A95E1F7622F70E00E945D1AD2CF68E033
:1023200070E0D5CF8FE7089581E00895809118027D
:1023300080FF0CC06091030170E0759567957595FD
:1023400067956115710549F1862F089581FF06C0D3
:102350006091030170E075956795F3CF609103017B
:1023600082FD0BC0909116029923A1F060910201A9
:1023700080910301961738F0682F70E0603871057E
:1023800000F38FE70895899FC001112470E00E9437
:102390005D1AF4CF61E070E0D7CF81E008958D3C05
:1023A00031F40E945811819580931C0208958E3C4F
:1023B00019F40E945811F8CF8F3C31F40E94581143
:1023C000819580931B020895803D19F40E94581155
:1023D000F8CF893D29F40E94961180931D0208953B
:1023E0008A3D21F40E9496118195F7CF8B3D31F4FF
:1023F0000E949611819580931E0208958C3D19F4D8
:102400000E949611F8CF9FE2980F983070F4815D8A
:10241000990B21E030E001C0220F8A95EAF7809104
:102420001A02822B80931A0208958D3D31F4809117
:10243000180281608093180208958E3D21F48091E6
:1024400018028260F7CF8F3DB9F78091180284603F
:10245000F1CF40911B028D3C59F480911C0287FF03
:102460000DC010921C0241110BC01092170208C03F
:102470008E3C81F480911C0218169CF3442381F059
:1024800080911D0290911E02892B09F05AC0109272
:10249000160208958F3C49F447FFF0CF10921B02BB
:1024A00080911C028111ECCFE0CF803D19F414160D
:1024B000ACF3E4CF90911D02893D29F41916F4F68E
:1024C00010921D02DBCF8A3D19F497FFD7CFF8CFCA
:1024D00090911E028B3D29F497FFD0CF10921E02DF
:1024E000CDCF8C3D19F41916CCF3C8CF9FE2980FCD
:1024F000983090F4815D990B21E030E0B90102C081
:10250000660F771F8A95E2F7CB01809590911A02AA
:10251000892380931A02B2CF8D3D31F48091180245
:102520008E7F80931802AACF8E3D21F480911802ED
:102530008D7FF7CF8F3D09F0A1CF809118028B7F5F
:10254000F0CF08950E94E81620911B0230911C02E2
:10255000232B21F0809314029093150220911D02E9
:1025600030911E02232B21F08093120290931302CC
:1025700089E192E00E94A915089586E0E9E1F2E080
:10258000DF011D928A95E9F7109217021092160248
:10259000109218020895FC01828181110DC083817F
:1025A00081110AC08481811107C081E09581911158
:1025B00001C080E08170089581E0FCCFA6E0B0E02A
:1025C000E4EEF2E10C94861A86E0E9E1F2E0DE0145
:1025D000119601900D928A95E1F710921B021092CC
:1025E0001C0210921D0210921E028B819C81892B6D
:1025F00089F080911402909115020E9411179C019C
:10260000809117028823C9F190910801921713064F
:1026100008F440C08D819E81892B91F08091120237
:10262000909113020E9411179C0180911602882339
:1026300009F471C0909104019217130608F479C04F
:10264000BE016F5F7F4F89E192E00E945E168111AB
:1026500005C089E192E00E94CB1281110E94A21272
:1026600086E0FE013196A9E1B2E001900D928A95D3
:10267000E1F72696E3E00C94A21A409109019AE052
:10268000499FA00111244217530720F68F5F8093C2
:10269000170202C08F3FD1F71B81112359F00E940E
:1026A00058119FEF11160CF491E0899F802D112491
:1026B00080931B021C81112359F00E9458119FEF37
:1026C00011160CF491E0899F802D112480931C0237
:1026D00030911B02332309F49DCF20911C02222349
:1026E00009F498CF45EB3403C0011124992359F024
:1026F00090931B0245EB240390011124332339F0FE
:1027000030931C0287CF81E080931B02F3CF81E0DE
:1027100080931C027FCF409105019AE0499FA00160
:1027200011244217530708F08BCF8F5F8093160256
:1027300002C08F3FD1F71D81112359F00E949611DD
:102740009FEF11160CF491E0899F802D1124809346
:102750001D021E81112359F00E9496119FEF111640
:102760000CF491E0899F802D112480931E023091FA
:102770001D02332309F464CF20911E02222309F4A1
:102780005FCF45EB3403C0011124992359F0909396
:102790001D0245EB240390011124332339F03093BB
:1027A0001E024ECF81E080931D02F3CF81E0809323
:1027B0001E0246CFCF93DF93EC01FB018281882379
:1027C00009F4D2C09E0130572332310508F0B2C05F
:1027D0000E94AA0C9093BD028093BC02FE01E150BE
:1027E000F047E232F10520F4E85DF44E0C94711AE2
:1027F0008091BC0281608093BC0293C08091BD0235
:1028000088608093BD028DC08091BC028260F3CF4E
:102810008091BC028460EFCF8091BC028860EBCFD6
:102820008091BD028160EDCF8091BD028260E9CFD1
:102830008091BC028061DFCF8091BC028062DBCFDF
:102840008091BC028064D7CF0E944E078091BC0269
:102850008068D1CF8091BC028C60CDCF8091BD02C9
:102860008360CFCF8091BC028E7FC5CF8091BD02A7
:10287000877FC7CF8091BC028D7FBDCF8091BC0286
:102880008B7FB9CF8091BC02877FB5CF8091BD028D
:102890008E7FB7CF8091BD028D7FB3CF8091BC0278
:1028A0008F7EA9CF8091BC028F7DA5CF8091BC0285
:1028B0008F7BA1CF0E944E078091BC028F779BCF68
:1028C0008091BC02837F97CF8091BD028C7F99CF8E
:1028D0008091BC0282FB992790F921E0922790FB1E
:1028E00082F990FB83F987CF8091BD02982F909554
:1028F00091708E7F892B90FB81F983CF9091BC02E0
:10290000892F8F7B96FF806476CF0E944E0790912F
:10291000BC02892F97FB87F980586DCF81E00E9418
:10292000270D8091BC029091BD020E94AF0C0E94C5
:102930004E0780E0DF91CF91089580E0F0CF909135
:10294000BC02892F8F7E94FF806155CF9091BC028D
:10295000892F8E7F90FF81604ECF9091BD02892F8D
:10296000877F93FF88604DCF81E0E4CFCF93DF93E3
:10297000EB0186319C4711F50E94BB0B9A8199238C
:1029800099F08A7A91E009F490E090931F02811106
:1029900009C089E20E94930B0E94FE0B80E0DF9148
:1029A000CF91089585E3F6CF80911F02811104C075
:1029B00089E20E949B0BF0CF85E3FBCF81E0EFCF54
:1029C0000F931F93CF93DF93C42FD22FFC018281EB
:1029D0008823C9F0409322020E94E81690932102B6
:1029E0008093200280E28C0F883040F4C77081E031
:1029F00001C0880FCA95EAF70E94E204DF91CF91E7
:102A00001F910F91089510912202141332C08091EA
:102A10002002909121020E941117883C910548F5EF
:102A2000C0E2CD0F1D17B9F080E2810F883040F46D
:102A3000177081E001C0880F1A95EAF70E94E90437
:102A4000C83048F481E09D2F977001C0880F9A9597
:102A5000EAF70E94E204802F0E94D904C83070F681
:102A6000D77081E001C0880FDA95EAF70E94E90487
:102A7000C5CF80E28C0F883008F6C77081E001C0B6
:102A8000880FCA95EAF7F2CF0F93FC01CB01E8510A
:102A9000FC47E730F10590F5E65BF44E0C94711AB3
:102AA00006E221EE41EE6AE17CE70E94E01480E05C
:102AB0000F91089507E225EE45EE6BE17CE7F5CF37
:102AC00006E221EE40EE68E17CE7EFCF07E225EE7B
:102AD00044EE69E17CE7E9CF06E221EE42EE6CE1EB
:102AE0007CE7E3CF07E225EE46EE6DE17CE7DDCF44
:102AF00008E221E045EE6EE17CE7D7CFFB01828161
:102B0000882319F010922202D3CF81E0D1CF909385
:102B10008901809388010895909328028093270269
:102B20000895E0912702F0912802309729F0019052
:102B3000F081E02D0995089580E00895E091270245
:102B4000F0912802309721F00280F381E02D099561
:102B50000895DC01E0912702F0912802309739F0C6
:102B600082E08C930480F581E02DCD0109950895D4
:102B7000A3E0B0E0EEEBF5E10C94871A9C018091A4
:102B800025029091260282179307A1F03093260226
:102B900020932502E0912702F0912802309751F00E
:102BA00083E089833B832A830680F781E02DCE0171
:102BB000019609952396E2E00C94A31AA3E0B0E0F5
:102BC000E4EEF5E10C94871A9C0180912302909128
:102BD000240282179307A1F030932402209323024A
:102BE000E0912702F0912802309751F084E0898328
:102BF0003B832A830680F781E02DCE01019609955B
:102C00002396E2E00C94A31AAC019C012E5F3F4F87
:102C1000485F5F4F80E02417350709F40895F901F4
:102C200091919F019923B9F38F5FF5CF9C016623A2
:102C300051F0FC013296285F3F4F8191861729F0B1
:102C4000E217F307D1F780E0089581E008959C0131
:102C5000FC0132968FEF90E04191461751F08F3F83
:102C600019F4411101C0892F9F5F9630A9F78F3F5A
:102C700009F40895280F311D87FD3A95F901628303
:102C800008959C01FC013296285F3F4F8191861385
:102C900003C0DF0111971C92E217F307B9F70895FB
:102CA0000E94271608950E9441160895FC0132964D
:102CB00086E0DF011D928A95E9F7089546E050E02D
:102CC0000E94C21A9C0181E0232B09F480E0089540
:102CD000089508950E9469160895089508950E9420
:102CE00068160895CF930E946D160E94C6100E9428
:102CF0006E16C0E08C2F0E940210892B31F4CF5F3A
:102D0000C630C1F780E0CF91089581E0FCCF0895EF
:102D10001F921FB61F9211248F939F93AF93BF935F
:102D200080912902811113C08091D6029091D7021F
:102D3000A091D802B091D9024196A11DB11D8093F6
:102D4000D6029093D702A093D802B093D902BF9134
:102D5000AF919F918F911F901FBE1F9018958091EA
:102D60002C02882331F10E94B2031092290288E1DB
:102D700090E020E40FB6F894A895809360000FBE11
:102D80002093600083B7817F846083BF83B78160B5
:102D900083BF7894889583B78E7F83BF0FB6F894EE
:102DA000A895809160008861809360001092600017
:102DB0000FBE08950E944E070E94B703089582E057
:102DC00084BD93E095BD9AEF97BD80936E00089502
:102DD0002FB7F8948091D6029091D702A091D80293
:102DE000B091D9022FBF0895A4E0B0E0EAEFF6E178
:102DF0000C94871A8FB7F8942091D6023091D7029D
:102E00004091D8025091D90229833A834B835C8345
:102E10008FBF69817A818B819C812496E2E00C943A
:102E2000A31A9C014FB7F8948091D6029091D702D3
:102E3000A091D802B091D9024FBF821B930B089585
:102E400078941F921FB61F9211248F939F93AF9374
:102E5000BF938091D6029091D702A091D802B091F1
:102E6000D9020196A11DB11D8093D6029093D7027D
:102E7000A093D802B093D902BF91AF919F918F9147
:102E80001F901FBE1F90189588E198E00FB6F89428
:102E9000A895809360000FBE90936000A895F89469
:102EA000D8E0CEEF28E3299320E0299314BEFFCF8A
:102EB000089588E198E00FB6F894A8958093600093
:102EC0000FBE90936000FFCF0E94E81690932B02F4
:102ED00080932A0280E890E00FB6F8948093610016
:102EE000909361000FBE08950E94421A539A80E0A9
:102EF000815019F4539878940895A895EFE9FFE06C
:102F00003197F1F700C00000F3CF0E945B180E94D8
:102F10008C152FEF80E792E0215080409040E1F740
:102F200000C00000089580910103882311F11092E0
:102F300001030E94E81690932B0280932A0280914D
:102F40002C02882341F010922C020E94DA16809104
:102F50002C02811112C00E944A1980910703882314
:102F600029F08091E50284FD0E946C0D0E94FF17FC
:102F7000089580912C02882301F10E94AF160E94CF
:102F800072168823A9F3F8942AB15B9A822F8C6079
:102F90008AB99BB13CE093279BB94FE788E391E066
:102FA000415080409040E1F700C000008BB1832782
:102FB0008BB92AB95B987894089580912A029091F0
:102FC0002B020E941117069708F4C1CF81E080936D
:102FD0002C020E94AF16BBCF8091BB0208952091B6
:102FE0001E0324FF03C063E00E9445190895209149
:102FF0001E0324FF03C066E00E9445190895CF9385
:10300000DF93CAE0D0E08091E50284FF1AC080918E
:10301000380290913902981789F028E0829FC00108
:10302000112468E0865C9D4F0E944019809138020F
:1030300090E001968F70992780933802DF91CF91AD
:1030400008950E944A198FE99FE00197F1F700C0A7
:1030500000002197C1F6F2CFCF93DF93D82FC92F6D
:10306000A0913902B0E0CD0101968F70992720918F
:103070003802281781F093E0AA0FBB1F9A95E1F759
:10308000A65CBD4F98E0ED2FFC2F01900D929A9514
:10309000E1F7809339020E944A190E94FF1788E0E5
:1030A000ED2FFC2FA0E3B2E001900D928A95E1F79D
:1030B000DF91CF9108958AE091E00895FC0180812D
:1030C00080768032F1F48181813061F48481958150
:1030D000892BB9F480E392E0909303038093020379
:1030E00088E00895823041F48AEB92E090930303E4
:1030F0008093020381E008958A3029F483818093CC
:10310000BA0280E008958930E1F7828193818115C8
:10311000924069F484819581892B49F481E0809300
:103120002F028681978190932E0280932D028FEF3C
:103130000895FC0180912D0290912E02892B61F05F
:1031400080912F02813041F490819093BB021092C4
:103150002E0210922D0208958FEF08950895FC011C
:103160008381833059F130F48130C1F08230F1F045
:1031700080E00895813209F440C08232C9F7848129
:103180009581009709F44AC0019791F78DEC91E081
:1031900090930303809302038BE7089583E991E002
:1031A000909303038093020382E1089588E591E000
:1031B00090930303809302038BE30895828181300F
:1031C00061F0823091F08111D3CF89EC91E090933E
:1031D00003038093020384E008958DEB91E09093C4
:1031E0000303809302038AE0089585EA91E09093B7
:1031F00003038093020386E108958281882331F0DE
:10320000813009F0B5CF83E891E002C08AE691E011
:10321000909303038093020389E0089588E492E089
:10322000909303038093020380E408951F93CF9348
:10323000DF93782F162FEA01888184FF1EC08981D1
:1032400028E882278983AE014E5F5F4FFA01272F5E
:10325000392F710FD9012F5F3F4F8C918193872FA9
:10326000821B1816BCF3612FCA010E9478011C5FF3
:103270001883DF91CF911F9108958AE58883E3CF6A
:1032800045EE52E00E94161908954EE153E00E9467
:1032900016190895CF93DF9360910403635067FD7F
:1032A00012C080910003CCE0D0E0C81BD109C85FF8
:1032B000DC4F8091FF02803108F059C0CE010E949E
:1032C000AE18109204038091130184FF43C08091D3
:1032D00012018F3F09F43EC0C82F893008F0C8E0C2
:1032E000982F9C1B909312019091DA0228E8922764
:1032F0009093DA02882301F18091020390910303F5
:103300002091FE0226FFB2C0FC012C2F4BED52E0B3
:103310003491DA013C934F5F5F4F31962150C1F7F2
:103320009C012F5F3F4F8FEF8C0F820F932F911DCA
:1033300090930303809302036C2F8BED92E00E9425
:10334000780184E08C0FC83019F09FEF9093120140
:103350008093130184E199B19C7031F48150D9F7C5
:10336000109205031092FD02DF91CF9108958D32E6
:1033700009F069C0683009F0A4CF83EC8093DA02C9
:103380008AE5809313011092FE028881807671F0A5
:10339000CE010E945E188F3FC1F4988197FD8E8107
:1033A00090E89093FE02809312018BCF2A811092B5
:1033B000E3029981911111C01092E40223EE32E0F0
:1033C00082E030930303209302039F819111EBCF9E
:1033D0009E81981740F7892FE6CF953029F42093E6
:1033E000050323EE32E0EDCF963099F49B819130C6
:1033F00021F4CE010E94AF1808C09230D1F393306F
:10340000C1F39132B1F39232A1F390E49093FE02B2
:10341000C2CF983089F0993019F420930703E1CF97
:103420009A3071F09B30E9F69BE49093E60290931A
:103430001F039093F202D5CF27E033E081E0C1CFA4
:1034400023EE32E0FBCF8091FE0287FF3ACFCE0120
:103450000E9499188F3F21F48EE18093130131CFA0
:10346000882309F42ECF109212012BCFDC012C2FD0
:103470004BED52E0FA013D9130834F5F5F4F215099
:10348000C9F74ECFCF93DF93E9E6F0E08081886003
:103490008083E99AC5EED2E08BE48983AEE1B3E0A4
:1034A00011968C931197E1EFF2E081838AE588838E
:1034B0008C938083DF91CF91089597FB072E16F4AC
:1034C000009407D077FD09D00E94AE1A07FC05D002
:1034D0003EF4909581959F4F0895709561957F4F2B
:1034E0000895EE0FFF1F0590F491E02D09942F929F
:1034F0003F924F925F926F927F928F929F92AF9284
:10350000BF92CF92DF92EF92FF920F931F93CF93D0
:10351000DF93CDB7DEB7CA1BDB0B0FB6F894DEBF67
:103520000FBECDBF09942A88398848885F846E848D
:103530007D848C849B84AA84B984C884DF80EE80D7
:10354000FD800C811B81AA81B981CE0FD11D0FB6E0
:10355000F894DEBF0FBECDBFED010895AA1BBB1BC3
:1035600051E107C0AA1FBB1FA617B70710F0A61B83
:10357000B70B881F991F5A95A9F780959095BC01A4
:10358000CD010895FB01DC0104C08D9101908019EB
:1035900021F441505040C8F7881B990B0895FB0156
:1035A000DC0102C001900D9241505040D8F70895BF
:1035B000F999FECF92BD81BDF89A992780B50895FB
:1035C000A8E1B0E042E050E00C940C1B262FF999E2
:1035D000FECF92BD81BDF89A019700B4021639F072
:1035E0001FBA20BD0FB6F894FA9AF99A0FBE089543
:1035F0000396272F0E94E71A0E94E61A252F0E94A1
:10360000E71A242F0C94E71A0196272F0E94E71A35
:103610000C94E61ADC01CB01FC01F999FECF06C03F
:10362000F2BDE1BDF89A319600B40D924150504080
:10363000B8F70895F894FFCF2A052A055B055B05C6
:10364000F0050C068A058A05110684069306930682
:103650003214A6143A14041408143E140C14421420
:103660004E1418149F141C145214201456147E1453
:1036700024145A1485142A1460146814101446145F
:1036800014144A142E14641474148E149D14FE130E
:103690003614AD146015661550155A156C15721553
:0236A00078159B
:1036A200EE01280850011E0A1401EC172C18F71716
:1036B200EF17FF5AE200E900EA00B500B600B700D2
:1036C200CD008301CC008A019201940121022302E0
:1036D20024022502260227022A02B300B4006F0048
:1036E20070009F01CB01E200E900EA00B500B600DC
:1036F200B700CD008301CC008A019201940121021E
:10370200230224022502260227022A02B300B40061
:103712006F0070009F01CB01309796959491906154
:0837220062636035343332317B
:00000001FF
