:100000000C9447010C948E010C94A9010C948E0160
:100010000C948E010C948E010C948E010C948E0124
:100020000C948E010C948E010C948E010C948E0114
:100030000C948E010C948E010C94A3140C948E01DC
:100040000C948E010C948E010C948E010C948E01F4
:100050000C948E010C948E010C948E010C948E01E4
:100060000C948E010C948E0135001E001F002000A0
:1000700021002A0027002600250024002B00140060
:100080001A00080022004C00130012000C0023008C
:1000900029000400160015001700340033000F007B
:1000A00018001C00E1001D00070009000A002800DC
:1000B00038000E000D000B00E0001B0006001900C8
:1000C00005004F0037003600100011000151E2001A
:1000D000E30001512C0052005100500001512C004E
:1000E00035001E001F00200021002A0027002600E6
:1000F0002500240035001E001F00200022004C00B7
:1001000027002600250023004C003A003B00210078
:100110002200310030002F002400230001004000A5
:100120003C003D003E0001004E002E002D003F002F
:1001300001004100420043004400AE004B00640057
:100140003200450001000100010001000100A9008A
:10015000AA00AB000100010009023B00020100A05F
:10016000320904000001030101000921010100011D
:100170002240000705810308000109040100010372
:10018000000000092101010001228100070583030D
:1001900008000112011001000000086A700200014D
:1001A000000102000116034C0075006D006200653D
:1001B0000072006A00610063006B0000000A0350D7
:1001C00000650065006A00000004030904050109D8
:1001D00002A10185020901A10005091901290515DE
:1001E00000250195057501810295017503810305BF
:1001F00001093009311581257F95027508810609AD
:10020000381581257F950175088106050C0A38028D
:100210001581257F950175088106C0C005010980FB
:10022000A101850319012AB700150126B700950120
:1002300075108100C0050C0901A101850419012A6E
:10024000A002150126A002950175108100C00501CC
:100250000906A101050719E029E715002501950800
:10026000750181029501750881030507190029FFB1
:10027000150026FF0095067508810005081901295B
:1002800005950575019102950175039103C011242F
:100290001FBECFEFD8E0DEBFCDBF04B603FE27C040
:1002A0008091260390912703A0912803B091290300
:1002B0008730904BA740B04BD1F410922603109298
:1002C0002703109228031092290314BE84B7877F56
:1002D00084BF0FB6F894A8958091600088618093E0
:1002E0006000109260000FBEE0E0F8E3099511E0B5
:1002F000A0E0B1E0EEE5F6E302C005900D92A8386B
:10030000B107D9F723E0A8E8B1E001C01D92A632F9
:10031000B207E1F70E94A1170C940F1B0C94000088
:10032000A82FB92F80E090E041E050EA609530E0DE
:1003300009C02D9182279795879510F084279527DE
:10034000305EC8F36F5FA8F30895EADF8D939D9345
:100350000895CF93CFB7CF93DF93C3954B9BE9F726
:100360004B9B10C04B9B0EC04B9B0CC04B9B0AC0C1
:100370004B9B08C04B9B06C0C091FD02C395C09328
:10038000FD028EC06F93C091FC02DD27CC5FDC4F75
:100390002F9365E54B9B03C02F916F91E1CF0F9396
:1003A0001F934F9320E040E15F9309B10C7003FB72
:1003B00027F93F9350E03BE039C01C7040642F7731
:1003C000012F5F5F1EC0406819B11C702F7752501B
:1003D0001FC0406409B12F770C70D1F15F5F00C07E
:1003E00023C0406219B12F771C7091F15F5F00C08C
:1003F00025C00C701027515012F45D5F00001150A1
:1004000027952C3F19B1C8F61C700127015027957C
:100410002C3FC8F64227499309B10C7010274F733F
:10042000115027952C3FA8F64695469519B11C709A
:1004300079F00127015027952C3F98F66B5A60F30D
:10044000315009B1B0F600C012E01CBB00271CC03F
:100450003B503195C31BD04012E01CBB0881033CCC
:1004600021F10B3411F12091F9021981110F1213AE
:10047000EDCF4A81441F093679F10D3211F0013E6A
:1004800029F74F7009F0042F009302033F915F9109
:100490004F911F910F912F916F91CCB3C1FD5DCF03
:1004A000DF91CF91CFBFCF911895209102032223E6
:1004B00069F310910003112309F049C034300AF4A4
:1004C00048C0309300032093FB021091FC023BE0F4
:1004D000311B3093FC023DC0009100030130BCF59C
:1004E0000AE54F7049F43091150134FD33C0009393
:1004F0001501C6EDD2E032C0433059F0443091F0DE
:100500003091E10234FD26C00093E102C2EED2E058
:1005100025C030911A0334FD1DC000931A03CBE1AE
:10052000D3E01CC03091ED0234FD14C00093ED0205
:10053000CEEED2E013C0052710E000C000000BB9DA
:100540001AC0052710E0221F1DC010E021C04AE597
:1005500002C032ED432FC4E1D0E032E01AB11C609A
:100560005B9A0BB11AB95CE020E865E320FF052730
:100570000BB9279517951C3FF0F66695B8F7B1F7BC
:1005800020FF05270BB9279517951C3FD0F6279517
:10059000179517FF052700001C3F0BB9B0F62991EE
:1005A0003A9519F7037F10910103110FC651D040FE
:1005B0000BB911F01093F90212E01CBB08601AB1DC
:1005C000137F402F437F54E05A95F1F70BB91AB9C6
:1005D0004BB95CCFFB012281222319F0459A0C9480
:1005E00000034598FCCF459861157105810591057B
:1005F00019F0449A0C940E114498FCCF81E00895B0
:1006000081E0089508950C9402031F93CF93DF9324
:1006100000D000D00F92CDB7DEB749835A836B83E9
:100620003091A20189819A8131111DC06623B9F0F0
:100630002223A9F00E942612182F682F89819A81FF
:100640000E94D21169817A81812F0F900F900F90B3
:100650000F900F90DF91CF911F910C94B5030E94E2
:10066000FE11182FEFCF0E94261269817A81EDCFFB
:10067000FC01262F408151816281738184810C9419
:100680000503CF93DF93EC0160E00E943803BE01C5
:10069000DF91CF910C9403030E946A13811102C071
:1006A0000E940E140C94C1050C94C40508950E9478
:1006B0003E0D0E9456032FEF84E39CE021508040C2
:1006C0009040E1F700C000000C94C7140F931F93F3
:1006D000CF93DF93EC0161E00E9438038C01BE01EF
:1006E0000E94EA02882329F1BE01C8010E94440742
:1006F0008823F9F0BE01C8010E9496078823C9F03B
:10070000BE01C8010E94B908882399F08A81882314
:1007100039F001158CE5180751F00F3D1C4579F0B3
:10072000CE01DF91CF911F910F910C94FE020E9498
:10073000570380E0DF91CF911F910F9108950E94A0
:100740000E14F7CF08950C94A20381E008950C9441
:10075000A503CF93C82F0E94A3038C2FCF910C9495
:10076000A70390E080E008950895972F70E02AE0B5
:10077000929F600D711D1124FB019CE3899FE00D88
:10078000F11D1124EE0FFF1FE859FF4F8591949141
:100790000895FC01EE0FFF1FE85AFE4F85919491DA
:1007A0000895CF93DF930E94B5030E94E604EC0105
:1007B000811520E5920708F042C0811530E49307C7
:1007C00008F0BDC0883E910528F5803E910508F0EF
:1007D0009DC0883A910588F4853A910508F08FC04C
:1007E0008130910509F492C0009709F48FC00497F5
:1007F00008F08CC0D0E0C0E089C08F3B910508F4C0
:1008000089C0805C9109C03CD105A0F30E94C90356
:10081000EC017CC08115904250F4C11581E0D807ED
:1008200008F074C0C03FD10528F3D0656FC0C11572
:1008300090E3D90708F079C0CE019F70E7CF81150A
:1008400025E5920758F5811534E5930708F0A6C011
:10085000811542E5940750F4C11581E5D80708F4E5
:1008600071C0DC2FCC27C16FD06A50C0982F9695ED
:1008700096959E0123703327C115D34508F07FC09C
:10088000C1E0D0E002C0CC0FDD1F2A95E2F720E2E4
:10089000929FC0011124C82BD92B6FC0C11589E5C7
:1008A000D807A8F4C11598E5D90708F07CC0C11590
:1008B00026E5D20708F09ECF8C2F0E947D05C82F19
:1008C000D0E0DC2FCC27CC27DF71D0621FC0C11550
:1008D0003AE5D30708F46CC0CE01905681159042DA
:1008E00008F088CF8D2F8F710E947D0590E0982FA2
:1008F000882788279F719C012C2BE901E6CFC55AD8
:10090000D0E0CC5BDE4FC881D0E0D064CE01DF9177
:10091000CF910895C85AD0E0CC0FDD1FCA5EDE4FDC
:100920000990D881C02DD464F1CFCE019927D3FF8F
:1009300003C0EC01D86CEACFEC01D06CE7CFDF70DC
:10094000D06AE4CFCE01E4E096958795EA95E1F789
:1009500083702C2F26952695237090E2299F900175
:100960001124382B8C2F8370C1E0D0E002C0CC0F53
:10097000DD1F8A95E2F7C22BD32BDC68C7CFC1E01D
:10098000D0E002C0CC0FDD1F2A95E2F730E2939F42
:10099000C0011124C82BD92BDA68B8CFD82FCC27A7
:1009A000C46FD06AB3CFDC2FCC27C06FD06AAECF74
:1009B0008C2F8F700E947D0534E0D695C7953A95AF
:1009C000E1F7CF709C2FEC01D069A0CF8238910560
:1009D000B1F1B0F48133910509F475C048F489325E
:1009E000910509F469C08A32910509F473C008952C
:1009F0008533910509F459C08933910501F10895B2
:100A0000833E9105A9F138F4803E9105F9F0823ECC
:100A1000910549F10895863E9105A9F1873E91051A
:100A2000C9F1843E910519F52091D50221FF1FC01F
:100A30008091D40284FD14C087EE90E00895209147
:100A4000D4022370A1F080EE90E008952091D402AA
:100A500020FD47C03091D50230FF09C024FF44C0BB
:100A600090E080E004C02091D40222FDF7CF0895E9
:100A70002091D40222FD3BC03091D50230FDE3CF5E
:100A800024FFF5CFEDCF2091D40223FFF0CF24FD3A
:100A9000E7CFD2CF2091D40223FD2CC03091D502D4
:100AA00031FFEECF84EE90E008952091D40225FF2F
:100AB000DECF89E290E008952091D40225FFD7CFC0
:100AC00085E390E008952091D40226FFD0CF8AE2FA
:100AD00090E008952091D40226FFC9CF81E390E0F1
:100AE000089589E390E0089583EE90E0089582EE02
:100AF00090E0089586EE90E008959091D40292FFE0
:100B000006C0282F28712830F9F4877F846093FF6E
:100B100006C0282F28712831F1F4877E8461209146
:100B2000D50220FF06C0382F38713830D9F4877FBE
:100B3000816021FF06C0282F28712831D1F4877EDB
:100B4000816194FD877E0895282F24712430F9F661
:100B50008B7F8860DCCF282F2471243101F78B7EB6
:100B60008861DDCF382F3171313019F78E7F886081
:100B7000E0CF282F2171213121F78E7E8861E1CFCE
:100B800008950C94C00508950C94C305E82FF0E077
:100B9000EE0FFF1FEC53FD4F808191810895089562
:100BA00080EA8A95F1F70895F894E82FE295EF70BE
:100BB000F0E031A1282F2F7081E090E001C0880F74
:100BC0002A95EAF7982F9095932391A392A1892BC8
:100BD00082A3789408950F931F93CF93DF9380E6B9
:100BE0000E94D40585E30E94D40584E30E94D405C5
:100BF00083E30E94D40582E30E94D40581E30E942E
:100C0000D405C7E4D1E001E511E089910E94D40543
:100C10000C171D07D1F7E8EBF2E0A4ECB2E011925B
:100C200011921D921D9282E0E43CF807C1F786E024
:100C30000E949E06DF91CF911F910F910C944C035F
:100C4000AF92BF92DF92EF92FF920F931F93CF93D9
:100C5000DF93C1E5D1E008EB12E0D12CEE24E39460
:100C6000F12C8991F894E82FE295EF70F0E021A142
:100C70008F70A70102C0440F551F8A95E2F7CA0181
:100C8000922F982B91A392A18095892382A3789487
:100C90000E94D005E7E4F1E030E020E0B12CA12C87
:100CA0004191A42FA295AF70B0E090968C9190E006
:100CB0004F7002C0959587954A95E2F780FD39C03F
:100CC000C701022E02C0880F991F0A94E2F7A82AD2
:100CD000B92A2F5F3F4F2A30310511F7FE013197B6
:100CE00080810E94D405F80180819181A816B906FF
:100CF00019F1B182A08281E0D82A0E5F1F4FF1E086
:100D0000C735DF0709F0ADCF2D2D46E064EC72E06A
:100D100088EB92E00E949F060E9454038D2DDF9184
:100D2000CF911F910F91FF90EF90DF90BF90AF9008
:100D3000089590E080E0CBCF80E0DECF0895FF9271
:100D40000F931F93CF93DF93F82E092F162FD72FD2
:100D5000C42F222349F081E080938A010E948814E5
:100D6000909389018093880180918A018823A1F062
:100D700080918801909189010E949414069760F0F7
:100D8000EF2DF02FA12FBD2F90E080E0D0E08C1749
:100D90009D0744F010928A01DF91CF911F910F912E
:100DA000FF900895219131912D933D930196EFCFBE
:100DB0000F931F93CF93DF93C42FD22FFC01828117
:100DC0008823C9F040938D010E94881490938C0170
:100DD00080938B0180E28C0F883008F050C0C77080
:100DE00081E001C0880FCA95EAF7DF91CF911F918A
:100DF0000F910C94C20A10918D01141335C080918B
:100E00008B0190918C010E949414883C910560F5AF
:100E1000C0E2CD0F1D17B9F080E2810F883040F499
:100E2000177081E001C0880F1A95EAF70E94C90A7D
:100E3000C83048F481E09D2F977001C0880F9A95C3
:100E4000EAF70E94C20A802F0E94AF0AC830B8F4A5
:100E5000D77081E001C0880FDA95EAF7DF91CF9172
:100E60001F910F910C94C90A80E28C0F883038F4DE
:100E7000C77081E001C0880FCA95EAF7EFCFDF9114
:100E8000CF911F910F9108950F939C01CB01243FA7
:100E90004CE5340759F1A8F4293DFCE53F0701F181
:100EA0002A3D4CE53407D1F1283D3C4591F406E25A
:100EB00021EE41EE68ED7CE50E94D80680E00F91BE
:100EC0000895263FFCE53F07E9F0B0F0273F3C4599
:100ED000F9F0FC018281882339F110928D01EFCF66
:100EE00007E225EE45EE69ED7CE5E6CF06E221EE70
:100EF00040EE64EF7CE5E0CF07E225EE44EE65EFDF
:100F00007CE5DACF06E221EE42EE66EF7CE5D4CF57
:100F100007E225EE46EE67EF7CE5CECF08E221E062
:100F200045EE6AED7CE5C8CF81E0C9CFCF93DF9372
:100F3000EC01FB018281882309F419C1C230FCE570
:100F4000DF07C0F1C6319CE5D90730F09E012B5F69
:100F50003C452930310570F50E947D139093D502F0
:100F60008093D402C031ECE5DE0709F4CFC008F06D
:100F70005BC0C8308CE5D80709F4B6C088F5C4302A
:100F8000ECE5DE0709F4A8C0C0F4C2308CE5D80750
:100F900009F49CC08091D4028260C330DC4509F41E
:100FA00098C08091D4029091D5020E948B130E9428
:100FB0003E0D80E0DF91CF9108958091D402806151
:100FC000C630ECE5DE0709F484C08091D402886065
:100FD000C730DC4508F47DC08091D402806279C0BE
:100FE000CC308CE5D80709F489C070F48091D40224
:100FF0008C60CA30ECE5DE0709F46BC008F478C0F9
:101000008091D4028E7F65C0CE308CE5D80709F47C
:1010100079C08091D4028B7FCF30DC4508F459C071
:101020008091D4028F7E55C0CC3FECE5DE0709F4F9
:1010300057C030F5C3318CE5D80709F46FC078F498
:10104000C131ECE5DE0709F465C0C231DC4509F0C9
:10105000A8CF0E943E0D8091D4028F773AC0C5314F
:101060008CE5D80709F462C008F476C08091D502F7
:101070008160CB3FDC4509F094CF8093D50291CFBE
:10108000C115FDE5DF0709F44DC088F48091D50254
:101090008D7FCE3F9CE5D90781F38091D5028E7F6D
:1010A000CF3FDC4550F38091D5028360E6CFC2305C
:1010B000FDE5DF0709F459C008F444C080E0C330FF
:1010C000DD4509F06ECF0E9410146BCF8091D402E1
:1010D00081608093D40265CF8091D4028460F9CF7F
:1010E0008091D5028260C9CF8091D4028064F1CF13
:1010F0000E943E0D8091D4028068EBCF8091D40293
:101100008D7FE7CF8091D402877FE3CF8091D40297
:101110008F7DDFCF8091D4028F7BDBCF8091D40293
:10112000837FD7CF8091D5028C7FA7CF8091D402C7
:1011300082FB992790F921E0922790FB82F990FB9E
:1011400083F9C7CF8091D502982F909591708E7FAB
:10115000892B90FB81F991CF0E943E0D9091D40292
:10116000892F97FB87F98058B4CF81E0ACCF81E01D
:1011700021CFCF93DF93EB0186319C4511F50E947F
:10118000BB129A81992399F08A7A91E009F490E050
:1011900090938E01811109C089E20E9496120E94EB
:1011A000071380E0DF91CF91089585E3F6CF80911A
:1011B0008E01811104C089E20E949D12F0CF85E367
:1011C000FBCF81E0EFCF909394018093930108953A
:1011D000E0919301F0919401309721F00190F0811A
:1011E000E02D099480E00895E0919301F09194013D
:1011F000309721F00280F381E02D09940895E09169
:101200009301F0919401309739F022E0DC012C93A6
:101210000480F581E02D0994089520919101309189
:1012200092012817390771F09093920180939101F0
:10123000E0919301F0919401309721F00680F781BD
:10124000E02D0994089520918F0130919001281785
:10125000390771F09093900180938F01E091930191
:10126000F0919401309721F00084F185E02D0994EC
:101270000895089508950C94390908950C943D0932
:101280000E943A090C943B0981E008950C944409AA
:10129000089508950E947F140E94EB050E94DC14BB
:1012A0000C943E099F92AF92BF92CF92DF92EF9241
:1012B000FF920F931F93CF93DF93CDB7DEB72A979B
:1012C0000FB6F894DEBF0FBECDBF0E9448090E9442
:1012D00049090E9420060E944609882309F470C02B
:1012E00056E9A52E51E0B52E10E000E0902E802F9B
:1012F0000E94C6056C01F501E190F1905F01E816CE
:10130000F90609F457C08091180281FD0E94CF05AB
:1013100097012C253D2580E0EE24E394F12CA901D2
:101320004E215F21452B09F43FC08E839F82CE2042
:10133000DF2081E0CD2809F480E088870E948814AE
:101340008160782F9A8789874E815F8168858A8539
:101350000E94030A000F111FF801EA56FE4F808118
:101360009181E826F926F182E0820E9487160E9488
:10137000E808909195018917A1F10E94E8088093EF
:1013800095012A960FB6F894DEBF0FBECDBFDF9150
:10139000CF911F910F91FF90EF90DF90CF90BF9072
:1013A000AF909F900C94A9038F5FEE0CFF1C8A30C6
:1013B00009F0B5CF0F5F1F4F0630110509F096CF2A
:1013C0008FEF89838A831B820E9488148160782F23
:1013D0009D838C8349815A816B818D810E94030A90
:1013E000C4CF2A960FB6F894DEBF0FBECDBFDF91F3
:1013F000CF911F910F91FF90EF90DF90CF90BF9012
:10140000AF909F900895CF93DF93CDB7DEB72B9722
:101410000FB6F894DEBF0FBECDBF4F8358876987E4
:101420007A878B871E821D8285E0FE013796DE015A
:10143000119601900D928A95E1F749815A816B814D
:101440007C818D819E812B960FB6F894DEBF0FBEF6
:10145000CDBFDF91CF910C94B40FFC0180819181BD
:101460000C946812CF93C82F882309F447C08CEFDF
:101470008C0F813AA0F46C2F8091000190910101B2
:101480000E942714882329F08C2F0E949D120E940D
:1014900007138C2F0E949612CF910C94071380E2B1
:1014A0008C0F883048F4C77081E001C0880FCA955E
:1014B000EAF70E94BE12F0CFEBE5EC0FE33040F408
:1014C000F0E0EB57FE4F808190E0CF910C940D0936
:1014D000E8E5EC0FE73150F4F0E0EE0FFF1FE95ABA
:1014E000FE4F80819181CF910C942309C03F30F051
:1014F0008C2F0E948115CF910C946C16CF9108957A
:10150000882361F19CEF980F913A20F40E949D127C
:101510000C94071390E2980F983050F4877091E084
:1015200001C0990F8A95EAF7892F0E94C412F0CF63
:101530009BE5980F933020F490E080E00C940D0927
:1015400098E5980F973120F490E080E00C942309FF
:10155000803F20F00E94E9150C946C160895CF93FB
:10156000C82F0E94320AC93349F42FEF87EE93E067
:10157000215080409040E1F700C000008C2FCF91B7
:101580000C94800A882321F00E94BE120C94071349
:101590000895882321F00E94C4120C940713089523
:1015A000BF92CF92DF92EF92FF920F931F93CF9350
:1015B000DF936C01D62FC72FFC01058102950F70B8
:1015C000128111110E94DB120E94B412E82E8823AE
:1015D00091F01123D1F08C2F807F803421F080E2B4
:1015E0008D0F883090F082E00E9452130E94B41256
:1015F00091E0E82EE926BC2EB2949FE0B922EB2DB3
:10160000F0E0EF5EF44E0C94B31AE12CF4CF0C2F03
:101610000F70C07F11F00295007F1123A9F0002305
:1016200059F080E28D0F883010F0D11109C0802F61
:101630000E94BE120E9407138D2F0E94320A14C00E
:10164000802F0E94CE12F6CF8D2F0E94800A002399
:1016500059F080E28D0F883010F0D1112CC0802F0E
:101660000E94C4120E9407132B2D2850330B2430E4
:10167000310520F40E94E8080E94A903EE2009F435
:101680009EC10E94B01280FD9AC1F60112820E9492
:10169000AA120E943611C6010E94000D0E94AA12D1
:1016A000DF91CF911F910F91FF90EF90DF90CF903E
:1016B000BF900C945711802F0E94D412D3CFFC2FCF
:1016C000FF70FF2EC07FC03219F0F29480EFF82235
:1016D000DD2369F0D13049F1112391F1002351F15B
:1016E000F601858180FFA8CF8F70858323C01123E9
:1016F00081F0011106C00E94EE128F290E94C20AD9
:10170000B3CF0130C1F70E94EE128F290E94F4126C
:10171000ABCF011106C00E94FD128F2D0E94C90A95
:10172000A3CF013009F4A0CFF6CF112329F0063062
:1017300008F09ACF8F2DE2CF053008F095CFEDCF8E
:10174000002359F3D93349F4FFEF27EE33E0F1508A
:1017500020403040E1F700C000008D2F0E94800A39
:1017600083CF8C2F86958695837069F0813009F040
:101770007BCF8D2F9C2F9370111102C090E080E0E1
:101780000E94230971CF8D2F9C2F9370111102C0DD
:1017900090E080E00E940D0967CF8D2F112329F082
:1017A0000E9481150E946C165FCF0E94E915FACF46
:1017B0008C2F837009F041C0111156CF4D2F4295E7
:1017C00046954770440F440F0D2F0F7010E030E026
:1017D00020E0042E04C0000F111F221F331F0A94A3
:1017E000D2F760E070E0CB01D4FF0FC06FE070E093
:1017F00080E090E004C0660F771F881F991F4A950C
:10180000D2F76095709580959095C695C695C370F2
:10181000602B712B822B932BC23049F058F4C130CE
:1018200019F00E94EA1020CF0E94D8101DCF0E940C
:10183000FC101ACF0E94D61017CF8695112311F0F5
:101840008C2F8170882309F40FCF4D2F4295469538
:101850004770440F440F0D2F0F7010E030E020E070
:10186000042E04C0000F111F221F331F0A94D2F749
:1018700060E070E0CB01D4FF0FC06FE070E080E06B
:1018800090E004C0660F771F881F991F4A95D2F712
:101890006095709580959095C695C695C370602BA0
:1018A000712B822B932BC23049F058F4C13019F0C0
:1018B0000E94AD11D9CE0E949B11D6CE0E94BF11BD
:1018C000D3CE0E941011D0CECF70112329F08C2FCF
:1018D0000E9436118D2F12CF8D2F0E94C90A8C2F96
:1018E0000E945711C1CED23F89F160F4D03FC9F0B8
:1018F000D13F29F1112309F442C001119DCE8C2F53
:101900008F7121C0D33F39F1D43FA1F7112369F181
:10191000CF718C2F0E94361163E08C2F0E943D13F3
:10192000A3CE112341F0053008F09ECE8C2F8F718D
:101930000E947A1199CE063008F096CEF7CF8C2F00
:101940008F71112369F20E9436118ECE8C2F8F7108
:101950001123C9F3C5CF112329F08C2F8F710E9459
:10196000211182CE0E941C117FCE81E00E94521371
:10197000023008F479CE82E00E94521375CE002323
:1019800059F0D93309F0E9CE8FEF97EEE3E08150BB
:101990009040E040E1F7DFCE8C2F8F71A1CF4C2F2C
:1019A0004F706D2FC6010E94B1030E944E105CCE95
:1019B0004C2F4F706D2FC6010E94B40355CEDF919E
:1019C000CF911F910F91FF90EF90DF90CF90BF903C
:1019D00008950F931F93CF93DF93EC016881798172
:1019E0008A810E9472128C010E94D1110E94D5102E
:1019F000B801CE01DF91CF911F910F910C94D00AC5
:101A0000CF93DF93EC018B819C81892B29F0888116
:101A1000998189238F3F59F4DF91CF910895CE01A9
:101A20000E94E90CCE01DF91CF910C944103CE01CD
:101A30000E9466038111F3CF0E94B412882361F3E0
:101A40008A81882349F382E0DF91CF910C9452136D
:101A50000E94DB120E94EB120E9407130E94931750
:101A60000E946C1690E080E00E940D0990E080E0FA
:101A70000C9423090E94A4120C94280D0E94CB12EE
:101A80000C943A0DE92FE295EF70E250EE3070F4CD
:101A9000F0E0EF5DF44E0C94B31A803F19F020F49F
:101AA000883E20F481E00895843FE1F380E00895CA
:101AB000883EC0F3813FD1F7F5CF93FB882780F9AB
:101AC00008950E9468120C94420DCF93DF9300D0CA
:101AD00000D00F92CDB7DEB70F900F900F900F9000
:101AE0000F90DF91CF910895CF93DF9300D000D076
:101AF00000D0CDB7DEB726960FB6F894DEBF0FBE86
:101B0000CDBFDF91CF9108951F93CF93DF93C09105
:101B1000A30116E08091A4018C1304C0DF91CF9142
:101B20001F910895D0E01C9FF0011D9FF00D11241E
:101B3000EB55FE4F40815181628173818481958193
:101B40000E94740D2196C770E5CF4091D501509148
:101B5000D6016091D7017091D8018091D9019091FF
:101B6000DA010C94740D1F93CF93DF938091DA0107
:101B7000807FA9F48091D701882389F08091A30107
:101B8000C091A4016091D5017091D601A091D801B6
:101B9000B091D901D62FD72316E0C81304C0DF9126
:101BA000CF911F91089590E0109711F0DF3F19F445
:101BB00001968770F2CF189F9001199F300D112464
:101BC000F901EB55FE4F41814713F2CF4081461397
:101BD000EFCF42814111ECCF438154814A1B5B0B13
:101BE000483C510528F78091DA018F70806180931D
:101BF000DA01F901E655FE4F80818F7080618083A4
:101C000085ED91E00E94000DDF91CF911F910C9422
:101C1000840DAF92BF92CF92DF92EF92FF920F931B
:101C20001F93CF93DF93CDB7DEB761970FB6F894CC
:101C3000DEBF0FBECDBF8C0185E0F801DE011D9631
:101C400001900D928A95E1F7F80140815181E2807F
:101C500085EDC82E81E0D82E6091D8017091D90110
:101C60006115710509F461C19091D5012091D601EA
:101C7000892F82238F3F09F458C1A380B480F0904C
:101C8000D701F501E61BF70BFF2009F4FCC080919A
:101C9000DA01382F307FE83CF10508F0B2C031118D
:101CA00079C0FE2C251323C0941321C0E1101FC05E
:101CB0008F7080618093DA010E94A50DC6010E9499
:101CC000000D8091DA01F80185838F2D61960FB6A2
:101CD000F894DEBF0FBECDBFDF91CF911F910F9162
:101CE000FF90EF90DF90CF90BF90AF900895AB281A
:101CF00029F0842F85238F3F09F033C180E0F82F2E
:101D0000F170DF2E80FF3CC08091A3012091A401DF
:101D100036E0821315C04D875E878D859E850E94B3
:101D20006812292F22952F702230F0F0243018F5F8
:101D30009F70F1F0F8019581907FD1F4D12C1EC0F5
:101D400090E0389FF001399FF00D1124EB55FE4FC4
:101D50006181651306C06081641303C062816E11E6
:101D60000FC001968770D5CF9F7011F0882331F393
:101D7000805E883018F3C8010E94000DFD2CA5CFAD
:101D8000EE2009F4A2CF8091DA0181608093DA011C
:101D9000F12C9BCF251306C0941304C0F801EE204C
:101DA00009F48DC04D875E878D859E850E94610DEB
:101DB000882319F1EE2009F18091DA01803270F068
:101DC0002091D5013091D60138872F831986BB86A3
:101DD000AA868C87CE0107960E94000D86E0F80146
:101DE000A5EDB1E001900D928A95E1F70E94B30D47
:101DF0000E94A50DFF24F39468CFC8010E94000D36
:101E0000F9CF311113C07A2DB98AA88A6E2D89892C
:101E10000E94650D85ED91E00E94000D86E0F601BF
:101E200011928A95E9F70E94A50DB2CF25130FC034
:101E300094130DC0E1100BC0F8018583C8010E9406
:101E4000000D86E0F60111928A95E9F73ECF4D87A5
:101E50005E878D859E850E94610D882371F2EE203C
:101E600061F28091DA01803208F4B8CF2091D50177
:101E70003091D6013A8329831B82BD82AC828E8346
:101E8000CE010196A9CFE83CF10508F041C0FE2C37
:101E9000EE2009F4B2CF25132AC0941328C08091F4
:101EA000DA0180FD1BC0982F907FC1F0F801858377
:101EB000903F31F0982F907F905F8F70892B8583B2
:101EC000C8010E94000D86E0F801A5EDB1E0019087
:101ED0000D928A95E1F70E94A50DF7CE86E0F801F4
:101EE000A5EDB1E001900D928A95E1F7EECE4D8718
:101EF0005E878D859E850E94610D81116FCF8091D7
:101F0000DA0181608093DA01C8010E94000DDDCE04
:101F10007A2DB98AA88A6E2D89890E94650D86E07E
:101F2000F60111928A95E9F7D6CFEE2009F465CF34
:101F30004D875E878D859E850E94610DF82E8823D2
:101F400009F45BCF86E0F801A5EDB1E001900D92B8
:101F50008A95E1F785ED91E00E942D0A0E94B30D6C
:101F6000BACF81E08E25CBCE1F93CF93DF93CDB731
:101F7000DEB72C970FB6F894DEBF0FBECDBF4F83F0
:101F8000588769877A878B879C87CE0107960E943E
:101F9000090E882369F08A859B85892B39F04F814A
:101FA0005885842F85238F3F09F071C016E05FC0EC
:101FB00086E0FE013796DE01119601900D928A951A
:101FC000E1F78A859B85892B89F38F819885892301
:101FD0008F3F61F32091A40130E0C9010196877021
:101FE00099274091A3014817190671F40E943E0DEC
:101FF0001092A4011092A30186E0E5EDF1E0DF016B
:102000001D928A95E9F7D2CF96E0929FD001939FD7
:10201000B00D1124AB55BE4FFE01319601900D92CB
:102020009A95E1F78093A4010E94840DBFCF819F10
:10203000C00111248B559E4F0E94090E8823E9F0A0
:10204000E091A3011E9FF0011124EB55FE4F40814A
:10205000518162817381848195810E94740D809188
:10206000A30190E00196877099278093A301809146
:10207000A3019091A4018913DACF2C960FB6F8949E
:10208000DEBF0FBECDBFDF91CF911F91089569854F
:102090007A858B859C850E94740D88CFEF92FF9284
:1020A0000F931F93CF93DF938C01892B81F0F12C39
:1020B000EE24E394E8012196F8018491843770F4CA
:1020C000843008F05FC08130B1F08230A1F1DF913F
:1020D000CF911F910F91FF90EF900895853709F4EC
:1020E0004CC008F43DC09CE7980F903780F78F777D
:1020F0000E94800A49C00E5F1F4FFE01849190E24A
:10210000980F983060F48770FE2D01C0FF0F8A95FC
:10211000EAF78F2F0E94DE120E94071302C00E946E
:10212000320A8F2D815030F2EFE9FFE03197F1F75D
:1021300000C00000F7CF0E5F1F4FFE01849190E2B8
:10214000980F983050F48770FE2D01C0FF0F8A95CC
:10215000EAF78F2F0E94E412DFCF0E94800AE1CFBE
:102160000E5F1F4FFE01C491C150D8F28FE99FE06E
:102170000197F1F700C00000F7CF0E5F1F4FFE017F
:10218000F490CFCF0E94320A8E01CBCF08950C94E9
:10219000C6100E94C71060930702709308028093D4
:1021A000090290930A020C94280D08950C94C9100A
:1021B0000F931F93009107021091080220910902CA
:1021C00030910A02602B712B822B932B1F910F9160
:1021D0000C94C9100F931F930091070210910802ED
:1021E0002091090230910A026023712382239323F4
:1021F0001F910F910C94C9100F931F930091070228
:10220000109108022091090230910A02602771277B
:10221000822793271F910F910C94C9100C94C6101C
:102220000E94F302609303027093040280930502FC
:10223000909306020C94280D60E070E0CB010C94A2
:1022400010110F931F9341E050E060E070E08A01AD
:102250009B0104C0000F111F221F331F8A95D2F764
:10226000C901B8011F910F910C9410110F931F9386
:1022700041E050E060E070E004C0440F551F661F6D
:10228000771F8A95D2F78091030290910402A09162
:102290000502B09106028A019B01082B192B2A2BFB
:1022A0003B2BC901B8011F910F910C9410110F9392
:1022B0001F9341E050E060E070E004C0440F551F00
:1022C000661F771F8A95D2F7CB01BA01609570958A
:1022D00080959095009103021091040220910502CF
:1022E0003091060260237123822393231F910F9163
:1022F0000C9410110F931F9341E050E060E070E0E8
:1023000004C0440F551F661F771F8A95D2F780912E
:10231000030290910402A0910502B09106028A0185
:102320009B01082719272A273B27C901B8011F91BC
:102330000F910C9410110F931F93009103021091B1
:1023400004022091050230910602602B712B822B32
:10235000932B1F910F910C9410110F931F930091C9
:1023600003021091040220910502309106026023BD
:102370007123822393231F910F910C9410110F93BB
:102380001F930091030210910402209105023091E5
:10239000060260277127822793271F910F910C94C3
:1023A000101108952AE0929F800D1124982F9770A4
:1023B00041E001C0440F9A95EAF786958695869587
:1023C00095E0899FF0011124E552FE4F90E080E0F6
:1023D00070E05191DF0111979B01082E02C03695E4
:1023E00027950A94E2F72170219525272423252794
:1023F0002C9301968530910561F708952AE0929F0C
:10240000800D1124982F977086958695869525E0E6
:10241000829FF0011124E552FE4F50E040E080E041
:10242000219130E0092E02C0369527950A94E2F7F3
:1024300021703327042E01C0220F0A94EAF7822B61
:102440004F5F5F4F4530510559F70895BF92CF92C6
:10245000DF92EF92FF920F931F93CF93DF938C0144
:10246000C0900302D0900402E0900502F0900602B2
:102470008091070290910802A0910902B0910A028E
:10248000C82AD92AEA2AFB2ACFE1D0E0BC2ED701FC
:10249000C6010C2E04C0B695A795979587950A940A
:1024A000D2F780FD0EC0219788F7B12C8B2DDF91DC
:1024B000CF911F910F91FF90EF90DF90CF90BF9041
:1024C0000895B8018C2F0E94D103019761F3EECFDC
:1024D000CF93DF93EC010E942612BE01DF91CF91D2
:1024E0000C94D1031F93CF93DF93EB019091A20142
:1024F000992331F0CB01DF91CF911F910C94681299
:10250000882379F0CB010E942612182F682FCE0164
:102510000E94D211BE01812FDF91CF911F910C94A7
:10252000D103CB010E94FE11182FF4CF682F8091A8
:102530000001909101010C945D14682F80910001BD
:10254000909101010C945F14809100019091010120
:102550000C94611480910B0285958595859508955D
:1025600080910B028770089590910B02977081E023
:1025700009F480E008958091170208959091170260
:10258000892B8093170208958095909117029823C4
:1025900090931702089510921702089590911602D1
:1025A000892B8093160208958095909116029823A6
:1025B00090931602089510921602089590911502B4
:1025C000892B809315020895809590911502982388
:1025D00090931502089510921502089580910C02AF
:1025E000089508950C94F11290910C02981721F01F
:1025F00080930C020C94F212089580910C028823AF
:1026000029F010920C0280E00C94F2120895E091EF
:102610000001F0910101809117028083E091000197
:10262000F0910101808190911602892B8083E091C5
:102630000001F0910101808190911502892B808326
:1026400090910C02992381F0E0910001F091010139
:102650008081892B808380910001909101010E94EB
:10266000151481110E94FD128091000190910101C9
:102670000C94F40808950C943A1398E0899F900103
:102680001124622B60930B020E94361180910B0281
:102690008595859585950C943B1310920B0280E0EF
:1026A0000C943B1390910B028095892380930B022D
:1026B000282F277071F4282F082E000C330B921747
:1026C000130639F08595859585950E9457110C94D0
:1026D0004D13089590E080E00E94D51A21E08C3ED1
:1026E0009E4F09F020E0822F089582E090E00C9444
:1026F000CD1A83E090E00C94CD1ACF9384E090E063
:102700000E94CD1AC82F81E290E00E94CD1A982F26
:102710008C2FCF910895CF93C92F682F84E090E03C
:102720000E94DB1A6C2F81E290E0CF910C94DB1AAF
:10273000AB01BC018FE090E00C94ED1AAB01BC0141
:1027400083E190E00C94ED1A60E070E0CB010C9412
:102750009E1360E070E0CB010E9498130C94A413C8
:102760006CEE7EEF90E080E00E94F91A60E082E07B
:1027700090E00E94DB1A60E083E090E00E94DB1AA8
:1027800010920702109208021092090210920A0297
:1027900060E084E090E00E94DB1A60E081E290E07B
:1027A0000E94DB1A60E085E090E00E94DB1A60E0A6
:1027B00086E090E00E94DB1A6FEF87E090E00E94D5
:1027C000DB1A40E050E0BA0188E090E00E94ED1A88
:1027D00060E08DE090E00E94DB1A40E050E0BA013A
:1027E00088E190E00E94ED1A60E087E190E00E94AD
:1027F000DB1A40E050E0BA018CE190E00E94ED1A53
:1028000060E080E290E00E94DB1A40E050E0BA0114
:1028100088E190E00E94ED1A0C94A9130C94B01377
:10282000682F8EE090E00C94DB1A9C012E5F3F4FE6
:10283000AC01485F5F4F80E02417350709F4089525
:10284000F90191919F019923B9F38F5FF5CF662329
:1028500049F0FC01329608962191261729F0E817D5
:10286000F907D1F780E0089581E008959C01FC010B
:1028700032969FEF80E04191461751F09F3F19F447
:10288000411101C0982F8F5F8630A9F79F3F09F44F
:102890000895290F311D97FD3A95F9016283089536
:1028A000FC01329608962191261303C0DF0111978F
:1028B0001C92E817F907B9F708950C9436140C9494
:1028C0005014029626E0FC0111922A95E9F708952A
:1028D00008950895CF930E9468140E9420060E94D4
:1028E0006914C0E08C2F0E94C605892B31F4CF5F9C
:1028F000C630C1F780E0CF91089581E0FCCF82E03F
:1029000084BD93E095BD9AEF97BD80936E000895C6
:102910002FB7F8948091D0029091D102A091D20269
:10292000B091D3022FBF08959C014FB7F8948091C6
:10293000D0029091D102A091D202B091D3024FBFA8
:10294000821B930B089578941F921FB61F92112437
:102950008F939F93AF93BF938091D0029091D102B8
:10296000A091D202B091D3020196A11DB11D809316
:10297000D0029093D102A093D202B093D302BF9120
:10298000AF919F918F911F901FBE1F90189588E166
:1029900098E00FB6F894A895809360000FBE9093CE
:1029A0006000A895F894D8E0CEEF28E3299320E0C2
:1029B000299314BEFFCF08950E946A13811102C0AB
:1029C0000E940E140E947513809318020E947D13BA
:1029D0009093D5028093D4020E947913682F70E0FF
:1029E00090E080E00E94D610609103027091040292
:1029F00080910502909106020C94F30280911F02CF
:102A000080FF12C06091070185E0689FB00111242A
:102A1000759567957595679560387105A8F5611589
:102A20007105A1F1862F089581FF09C0609107010A
:102A300085E0689FB001112475956795EDCF609191
:102A4000070182FD0AC080911E028823D1F0909177
:102A5000060160910701891728F085E0689FB001A1
:102A60001124DACF869FB001112485E0869F900162
:102A7000879F300D1124692F70E0C9010E949F1AB1
:102A8000CBCF65E070E0CECF8FE7089581E0089569
:102A900080911F0280FF0CC06091030170E075956A
:102AA0006795759567956115710549F1862F0895AC
:102AB00081FF06C06091030170E075956795F3CFC3
:102AC0006091030182FD0BC090911D029923A1F03A
:102AD0006091020180910301961738F0682F70E031
:102AE0006038710500F38FE70895899FC0011124B4
:102AF00070E00E949F1AF4CF61E070E0D7CF81E0D0
:102B00000895803F31F40E94FE1481958093230242
:102B10000895813F19F40E94FE14F8CF823F31F4EA
:102B20000E94FE148195809322020895833F19F438
:102B30000E94FE14F8CF893F29F40E944815809323
:102B4000240208958A3F21F40E9448158195F7CF09
:102B50008B3F31F40E94481581958093250208959A
:102B60008C3F19F40E944815F8CF843F31F48091CE
:102B700021028160809321020895853F21F4809194
:102B800021028260F7CF863F21F480912102846088
:102B9000F1CF873F21F4809121028860EBCF883FFD
:102BA00021F4809121028061E5CF8D3F31F4809145
:102BB0001F02816080931F0208958E3F21F480914F
:102BC0001F028260F7CF8F3FB9F780911F028460A8
:102BD000F1CF90912202803F59F48091230287FF28
:102BE0000DC01092230291110BC010921E0208C05A
:102BF000813F81F48091230218169CF3992381F080
:102C00008091240290912502892B09F064C01092D2
:102C10001D020895823F49F497FFF0CF10922202DF
:102C2000809123028111ECCFE0CF833F19F4191674
:102C3000ACF3E4CF20912402893F29F41216F4F674
:102C400010922402DBCF8A3F19F427FFD7CFF8CFA9
:102C5000209125028B3F29F427FFD0CF1092250227
:102C6000CDCF8C3F19F41216CCF3C8CF843F31F48A
:102C7000809121028E7F80932102C0CF853F21F475
:102C8000809121028D7FF7CF863F21F48091210230
:102C90008B7FF1CF873F21F480912102877FEBCF9B
:102CA000883F21F4809121028F7EE5CF8D3F31F462
:102CB00080911F028E7F80931F02A0CF8E3F21F450
:102CC00080911F028D7FF7CF8F3F09F097CF8091C2
:102CD0001F028B7FF0CF08950E9488149C01909171
:102CE000220280912302982B21F030931C02209322
:102CF0001B029091240280912502982B21F03093A1
:102D00001A022093190280E292E00C94FF08EF92DD
:102D1000FF920F931F93CF93DF9300D000D000D08A
:102D2000CDB7DEB786E0E0E2F2E0DE011196019079
:102D30000D928A95E1F7E0902202F0902302009133
:102D40002402109125021092220210922302109266
:102D50002402109225028E2D8F2991F080911B0262
:102D600090911C020E949414AC0190911E02992330
:102D700009F43FC0809108018417150608F447C084
:102D8000802F812B91F08091190290911A020E945C
:102D90009414AC0190911D02992309F477C080919D
:102DA00004018417150608F47FC0809122029091D7
:102DB0002302892B90912402892B90912502892B43
:102DC00011F00E946C1686E0FE013196A0E2B2E09E
:102DD00001900D928A95E1F726960FB6F894DEBF22
:102DE0000FBECDBFDF91CF911F910F91FF90EF905C
:102DF0000895209109018AE0289F90011124241749
:102E0000350708F0BDCF9F5F90931E0202C09F3F21
:102E1000D1F7EE2059F00E94FE149FEF1E140CF41F
:102E200091E0899F802D112480932202FF2059F088
:102E30000E94FE149FEF1F140CF491E0899F802DD7
:102E400011248093230230912202332309F498CF76
:102E500020912302222309F493CF45EB3403C001D0
:102E60001124992359F09093220245EB24039001F9
:102E70001124332339F03093230282CF81E08093F1
:102E80002202F3CF81E0809323027ACF20910501C3
:102E90008AE0289F900111242417350708F085CF78
:102EA0009F5F90931D0202C09F3FD1F7002359F00E
:102EB0000E9448159FEF10160CF491E0899F802D19
:102EC000112480932402112359F00E9448159FEF8A
:102ED00011160CF491E0899F802D11248093250216
:102EE00030912402332309F460CF2091250222235C
:102EF00009F45BCF45EB3403C0011124992359F049
:102F00009093240245EB240390011124332339F0DC
:102F1000309325024ACF81E080932402F3CF81E0F1
:102F20008093250242CF86E0E0E2F2E0DF011D92CD
:102F30008A95E9F710921E0210921D0210921F024C
:102F400008950E9488148C0180E890E00FB6F894F0
:102F500080936100909361000FBE0E9440090E941F
:102F6000841A539A80E0815079F5539878940E949E
:102F70004A090E94A8180E94E308FFEF20E732E008
:102F8000F15020403040E1F700C00000C0E0DCE03C
:102F90008091FD02882311F11092FD020E94881495
:102FA0008C010E94941980910303882329F0809159
:102FB000E10284FD0E9452090E944F180E944809B4
:102FC0000E944909C0E0E4CFA895EFE9FFE03197FE
:102FD000F1F700C00000C7CFC1E0DACFC8010E94FE
:102FE0009414069710F4CC23E1F20E946A14C82FBF
:102FF000882391F3F8949AB15B9A892F8C608AB9EF
:103000008BB18D278BB98FE7E8E3F1E08150E04089
:10301000F040E1F700C000008BB18D278BB99AB961
:103020005B987894B5CF8091B7020895CF93DF93E2
:1030300000D00F92CDB7DEB790912802981307C049
:1030400020912602309127022617370791F08093AE
:103050002802709327026093260289837B836A8308
:1030600080911A0384FF05C063E0CE0101960E949F
:1030700090190F900F900F90DF91CF910895BC01A0
:1030800084E00C941618BC0183E00C94161820916F
:103090001A0324FF03C066E00C9490190895CF939F
:1030A000DF93CAE0D0E08091E10284FF1AC08091F2
:1030B000340290913502981789F028E0829FC00170
:1030C000112468E08A5C9D4F0E948C198091340223
:1030D00090E001968F70992780933402DF91CF9111
:1030E00008950E9494198FE99FE00197F1F700C0BD
:1030F00000002197C1F6F2CFCF93DF93EC01A091AE
:103100003502B0E0CD0101968F70992720913402ED
:10311000281779F093E0AA0FBB1F9A95E1F7AA5CF4
:10312000BD4F98E0FE0101900D929A95E1F78093D2
:1031300035020E9494190E944F1888E0FE01ACE20B
:10314000B2E001900D928A95E1F7DF91CF91089559
:103150008AE091E00895FC01808180768032F1F46C
:103160008181813061F484819581892BB9F48CE26D
:1031700092E09093FF028093FE0288E008958230EF
:1031800041F486EB92E09093FF028093FE0281E08F
:1031900008958A3029F483818093B60280E00895EF
:1031A0008930E1F7828193818115924069F48481AD
:1031B0009581892B49F481E080932B028681978148
:1031C00090932A02809329028FEF0895FC01809149
:1031D000290290912A02892B61F080912B02813083
:1031E00041F490819093B70210922A021092290222
:1031F00008958FEF08950895FC019381933059F15C
:1032000030F49130C1F09230F1F080E008959132C5
:1032100009F440C09232C9F784819581009709F47E
:103220004AC0019791F78DEC91E09093FF02809353
:10323000FE0281E8089583E991E09093FF02809374
:10324000FE0282E1089588E591E09093FF02809369
:10325000FE028BE3089582818130A1F0882351F032
:10326000823099F685EA91E09093FF028093FE0206
:1032700086E1089589EC91E09093FF028093FE022D
:1032800084E008958DEB91E09093FF028093FE021D
:103290008AE008958281882331F0813009F0B5CF2A
:1032A00083E891E002C08AE691E09093FF02809368
:1032B000FE0289E008958EE492E09093FF028093ED
:1032C000FE0280E408951F93CF93DF93E82F792FB8
:1032D000162FEA01888184FF1CC0298188E82827ED
:1032E0002983CE010296DC012E2F372F512F5E0F3E
:1032F000F90121912D939F01452F4E1B1416C4F304
:10330000612F0E94A5011C5F1883DF91CF911F914F
:1033100008958AE58883E5CF41EE52E00C94631965
:103320004AE153E00C946319CF93DF93609100035B
:10333000635067FD12C08091FC02CCE0D0E0C81B56
:10334000D109CC5FDC4F8091FB02803108F054C082
:10335000CE010E94FB18109200038091150184FF9A
:103360003EC0809114018F3FD1F1C82F893008F001
:10337000C8E0982F9C1B909314019091D60228E8E6
:1033800092279093D6028823E9F08091FE029091D3
:10339000FF022091FA0226FFAEC0FC012C2FA7ED00
:1033A000B2E034913D9331962150D9F79C012F5FC3
:1033B0003F4F8FEF8C0F820F932F911D9093FF0241
:1033C0008093FE026C2F87ED92E00E94A501CC5FF6
:1033D000CC3019F08FEF80931401C093150184E174
:1033E00099B19C7031F48150D9F710920103109279
:1033F000F902DF91CF9108958D3209F069C06830EC
:1034000009F0A9CF83EC8093D6028AE58093150159
:103410001092FA028881807671F0CE010E94AB187A
:103420008F3FC1F4988197FD8E8190E89093FA02C6
:103430008093140190CF2A811092DF02998191111B
:1034400011C01092E0022FED32E082E03093FF02D3
:103450002093FE029F819111EBCF9E81981740F738
:10346000892FE6CF953029F4209301032FED32E028
:10347000EDCF963099F49B81913021F4CE010E94DA
:10348000FC1808C09230D1F39330C1F39132B1F3FC
:103490009232A1F390E49093FA02C2CF983089F06F
:1034A000993019F420930303E1CF9A3071F09B30E7
:1034B000E9F69BE49093E20290931B039093EE0253
:1034C000D5CF23E033E081E0C1CF2FED32E0FBCF59
:1034D0008091FA0287FF3FCFCE010E94E6188F3F0E
:1034E00021F48EE18093150136CF882309F433CF80
:1034F0001092140130CFDC012C2FE7EDF2E03D916A
:1035000031932150E1F752CFCF93DF93E9E6F0E01A
:10351000808188608083E99AC1EED2E08BE4898360
:10352000AAE1B3E011968C931197EDEEF2E081835E
:103530008AE588838C938083DF91CF91089597FBF0
:10354000072E16F4009407D077FD09D00E94B91A0F
:1035500007FC05D03EF4909581959F4F0895709596
:1035600061957F4F0895EE0FFF1F0590F491E02DB8
:103570000994AA1BBB1B51E107C0AA1FBB1FA617BA
:10358000B70710F0A61BB70B881F991F5A95A9F70C
:1035900080959095BC01CD010895F999FECF92BD1B
:1035A00081BDF89A992780B50895A8E1B0E042E07E
:1035B00050E00C94011B262FF999FECF92BD81BDDE
:1035C000F89A019700B4021639F01FBA20BD0FB661
:1035D000F894FA9AF99A0FBE08950396272F0E943D
:1035E000DC1A0E94DB1A252F0E94DC1A242F0C946F
:1035F000DC1A0196272F0E94DC1A0C94DB1ADC01DE
:10360000CB01FC01F999FECF06C0F2BDE1BDF89AED
:10361000319600B40D9241505040B8F70895F89497
:10362000FFCF070B070B5F0B5F0BB10BCD0B340B01
:10363000340BD80B640C730C730CCF0C340B340BA1
:10364000D80C4D0D4D0D560D560D580D560D560DF1
:0E365000560D4D0D4D0D5D0D560D560D5D0DBB
:10365E000D022808641E140A321E13187C1847180F
:10366E0043183F18FF5AE200E900EA00B500B60021
:10367E00B700CD008301CC008A0192019401210292
:10368E00230224022502260227022A02B300B400D6
:10369E006F0070008182833097969594919061624D
:1036AE0063603534333231E200E900EA00B500B62A
:1036BE0000B700CD008301CC008A01920194012154
:1036CE0002230224022502260227022A02B300B494
:0836DE00006F0070008182837F
:107000006BC00000AAC000008EC000008CC0000051
:107010008AC0000088C0000086C0000084C0000054
:1070200082C0000080C000007EC000007CC0000064
:107030007AC0000078C0000076C0000074C0000074
:1070400072C0000070C000006EC000006CC0000084
:107050006AC0000068C0000066C0000064C0000094
:1070600062C0000060C00000EC2DFD2DB7B6B0FC82
:10707000FDCF27BFE895B7B6B0FCFDCF21E1B7B68D
:10708000B6FCF4CF08950902120001010080320914
:10709000040000000000000012011001FF000008C1
:1070A000C016DC050201010200010E035500530069
:1070B00042006100730070001C03770077007700C6
:1070C0002E00660069007300630068006C002E00EB
:1070D000640065000403090411241FBECFEFD8E04B
:1070E000DEBFCDBF24B7D8E0CEEF39913833399128
:1070F00009F03FEF30933C0120933B0111E0A0E009
:10710000B1E0E4E8F8E702C005900D92A630B107BF
:10711000D9F721E0A6E0B1E001C01D92AB33B20780
:10712000E1F785D1ADC36CCFA82FB92F80E090E0F7
:1071300041E050EA609530E009C02D918227979593
:10714000879510F084279527305EC8F36F5FA8F30A
:107150000895EADF8D939D930895CF93CFB7CF9392
:10716000DF93C3954B9BE9F74B9B0BC04B9B09C02F
:107170004B9B07C04B9B05C04B9B03C04B9B01C067
:1071800089C06F93C0911E01DD27CB5DDE4F2F9329
:1071900065E54B9B03C02F916F91E6CF0F931F9333
:1071A0004F9320E040E15F9309B10C7003FB27F996
:1071B0003F9350E03BE039C01C7040642F77012FB3
:1071C0005F5F1EC0406819B11C702F7752501FC0FE
:1071D000406409B12F770C70D1F15F5F00C023C00C
:1071E000406219B12F771C7091F15F5F00C025C01C
:1071F0000C701027515012F45D5F0000115027955C
:107200002C3F19B1C8F61C700127015027952C3F5F
:10721000C8F64227499309B10C7010274F731150DB
:1072200027952C3FA8F64695469519B11C7079F024
:107230000127015027952C3F98F66B5A60F3315087
:1072400009B1B0F600C011E01CBB002717C03B50CD
:107250003195C31BD04011E01CBB0881033CF9F001
:107260000B34E9F020911C011981110F1213EDCF9D
:10727000093651F10D3211F0013E39F70093230127
:107280003F915F914F911F910F912F916F91CCB3CF
:10729000C0FD67CFDF91CF91CFBFCF9118952091DF
:1072A0002301222369F310912101112339F5343090
:1072B0003AF13093210120931D0110911E013BE012
:1072C000311B30931E011CC0009121010130B4F428
:1072D0000AE53091010134FD14C000930101C1E1C0
:1072E000D1E013C0052710E000C000000BB91AC0A0
:1072F000052710E0221F1DC010E021C04AE502C092
:1073000032ED432FC4E1D0E032E01AB11C605B9A49
:107310000BB11AB95CE020E865E320FF05270BB943
:10732000279517951C3FF0F66695B8F7B1F720FF43
:1073300005270BB9279517951C3FD0F6279517956C
:1073400017FF052700001C3F0BB9B0F629913A95AD
:1073500019F7037F10912201110FC651D0400BB9CC
:1073600011F010931C0111E01CBB08601AB1137FCF
:10737000402F437F54E05A95F1F70BB91AB94BB936
:107380007FCFDC0113964C91139714963C91149780
:1073900013968D919C911497982789279827129678
:1073A0002C911297203339F43370E32FF0E0EE5F25
:1073B000FE4F80810895283561F489E0E1E0F0E036
:1073C000442371F089E0E3E0F0E0483049F080E0E8
:1073D0000895203579F4411107C089E0F0E0E0E03C
:1073E000809357008491089589E0E2E0F0E048300E
:1073F00071F7F6CF203229F4880F991FFC01849190
:107400000895283229F4FC01EE0FFF1F3196F7CFC3
:10741000203A09F41FC2203C21F415966C9122D227
:10742000D6CF2F3FA1F681EF80930F01D0CF1AB8AE
:1074300080E28BB981E085BF82E085BFE0E0F1E7C3
:10744000A89531978040E1F780913B01877F21F437
:1074500080913C01882371F04D9B0CC0F894539AA5
:107460001BB81DBA1092690081E085BF15BEF0E01F
:10747000E0E009958EEF80930F0114BE0FB6F894EB
:10748000A8958091600088618093600010926000F0
:107490000FBE80916900826080936900E89A539AD8
:1074A0008CE0E0E0F5E3A89531978040E1F7539850
:1074B000789410912101135017FD5AC080911E013C
:1074C000CCE0D0E0C81BD109CB5DDE4F80911D011F
:1074D0008D3209F00BC1183009F048C083EC80935D
:1074E00011018AE580930101109210013881832FE8
:1074F00080769981882309F49BC046E051E050933F
:10750000200140931F01933069F4CE013ADF80934C
:10751000090184E09F81911127C09E81981720F571
:10752000892F22C0953009F4DFC09A3009F4DCC0FD
:107530008CEF890F863008F070C04A815B815093D0
:107540000E0140930D01993009F46EC08E81809335
:107550000C012D81227020930B0190930A0137FFBB
:107560008FEF90E890931001809300011092210119
:107570008091010184FF36C0C0910001CF3F91F19D
:107580008C2FC93008F088E09C2F981B9093000145
:107590009091110128E8922790931101CC23B1F02A
:1075A0004091100147FF2FC190910C01C82F9817EF
:1075B00008F4C92F9C1B90930C01D0900A01D0E0D5
:1075C00082E1E82E81E0F82EDC1304C16C2F82E109
:1075D00091E0BFDDCC5FCC3019F08FEF80930001DC
:1075E000C093010184E199B19C7031F48150D9F7C5
:1075F0001092220110921C0180910F01803108F439
:107600001EC14D9B05C080910F01805180930F01D9
:1076100080910F0181114DCF21CF80910F019230C8
:1076200029F48E7F80930F0180E074CF8160FACFC0
:107630002A8110921A0191110AC010921B012AE1AD
:1076400031E082E03093200120931F0163CF953019
:1076500029F4209322012AE131E0F4CF963099F504
:107660009B81913059F488E990E7909320018093B1
:107670001F0182E190E4909310014CCF923019F4F5
:1076800086E890E7F2CF9330A9F7211108C084ED86
:1076900090E79093200180931F0184E0EBCF21308D
:1076A00041F488EB90E79093200180931F018CE1D7
:1076B000E1CF2230F9F68AEA90E790932001809397
:1076C0001F018EE0D7CF983059F0993019F42093EC
:1076D0002401C1CF81E09A3009F4BDCF80E0BBCF57
:1076E00024E231E081E0AECF81E014CF809110013F
:1076F00087FF3CCF00910C01011708F4102F011BEC
:1077000000930C01F12CF11628F001112FCF1092EB
:1077100000012CCF80910D0190910E0120910A0162
:10772000273058F069919C012F5F3F4F30930E0135
:1077300020930D0197D0F394E6CF8115904738F749
:10774000F394F394F894E0910D01F0910E012991D6
:10775000399181E0090180935700E89511247894CC
:1077600080910D0190910E01029690930E018093ED
:107770000D018F779927892B51F00111C4CFF11694
:1077800008F4C1CF80910B01882309F4BCCFF89491
:10779000E0910D01F0910E01329783E08093570044
:1077A000E895789407B600FCFDCFF894E0910D01C0
:1077B000F0910E01329785E080935700E895789418
:1077C00007B600FCFDCFF89481E180935700E8955F
:1077D000789499CF00910D0110910E0126E02D159E
:1077E00078F4C80137D0F7018083FFEFEF1AFF0A62
:1077F0000F5F1F4F10930E0100930D01DF5FE4CE6A
:10780000F8018491F0CF90911F0130912001282F31
:10781000290FE92FF32FA2E1B1E046FF0BC09491AD
:107820009D9331962E13FBCFF0932001E0931F011F
:10783000C82FCCCE91919D932E13FCCFF5CF4D99AF
:10784000E7CE80910F01823008F4E2CE80910F01E3
:107850008250DCCEF999FECF92BD81BDF89A99276E
:1078600080B50895262FF999FECF1FBA92BD81BD2C
:1078700020BD0FB6F894FA9AF99A0FBE01960895B2
:04788000F894FFCFAA
:06788400FF5A1E950F00E3
:040000030000700089
:00000001FF
